:1000000000270020FD1E0000ED700000E91E00002A
:10001000E91E0000E91E0000E91E000000000000CB
:10002000000000000000000000000000B1200000FF
:10003000E91E0000000000007D200000E91E000015
:100040003D2200003D2200003D2200003D22000034
:100050003D2200003D2200003D2200003D22000024
:100060003D2200003D2200003D2200003D22000014
:100070003D2200003D2200003D2200003D22000004
:100080003D2200003D2200003D2200003D220000F4
:100090003D2200003D2200003D2200003D220000E4
:1000A0003D2200003D2200003D2200003D220000D4
:1000B0003D2200003D2200003D2200003D220000C4
:1000C0003D2200003D2200003D2200003D220000B4
:1000D0003D2200003D2200003D2200003D220000A4
:1000E0003D2200003D2200003D2200003D22000094
:1000F0003D2200003D2200003D2200003D22000084
:10010000034613F8012B002AFBD1181A0138704757
:1001100090B5A1B000AF80220021384607F04DFD18
:10012000002401223919002007F0E0FA0028F8DD48
:1001300004F18003DA1912F8803C0A2B16D100234F
:1001400002F8803C88B06A460E4BC2E905374FF48E
:10015000007393830C4B42F8103F0C4800234FF47C
:10016000E65100F0C5FF8437BD4690BD0D2BE6D0AB
:1001700001347E2CD5D904F18003DC19002304F866
:10018000803CDFE7B8810000030000015C7E0000D6
:1001900098B500AF07F0BAFA134C204607F0C2FA40
:1001A000034660B1114A1248032106F0E6FEFFF74C
:1001B000AFFF00214FF4A47005F026FBF7E788B0ED
:1001C00021686A460B48C2E905014FF4007191832A
:1001D000094942F8101F06484FF4E25100F088FF29
:1001E0000020BD4698BD00BFB07C0000E881000043
:1001F0005C7E0000CD810000030000012DE9F04F7E
:1002000091B08407009302F004030293C2F3C20387
:1002100003F10103DDF86890039205460E4605934D
:1002200040F0BA81041D30B1072909D86FF01B00D6
:1002300011B0BDE8F08F01F00706341DC6F10806C5
:10024000009B4FF00008591E4FF0040A4FF0FF3397
:100250000193CDF810804746C34653460DB1009A2E
:1002600022600598002800F3E8809848009A8242AE
:1002700003D397488242C0F0E080039AA4EB050EB6
:1002800092074FEA9E0000F103810F2F00F2B18028
:10029000002D00F0058107F140020DEB020C019AE0
:1002A0000CF8200C0CF8102C049801300490E7E0B6
:1002B0007A285DD84B280ED8472859D829282DD818
:1002C000252852D054D820287AD02338D0F1000BDA
:1002D0004BEB000B74E04C382E2849D8DFE800F0D7
:1002E0007048484848484848484848484B48484863
:1002F000484848484859484B4B595959704B6D48E4
:100300007048184B184848827F4B48484B487F003C
:1003100000204FF0000B4FF0040A38E02A38C0B23A
:10032000012202FA00F010EA0E0F49D110F0625CCF
:100330002FD110EA020B43D06046013C5444B4FB79
:10034000FAF40AFB04F4002D61D0A3EB050CA444DD
:10035000B4453FF66BAF002868D1042B47D159F85C
:10036000043B2360043404232AE0019A013A0192F9
:100370004FF0000B24E011F8010C6C2834D111F877
:10038000023C00206C2B8346C5D14FF0080A53462F
:10039000D3E709F1070929F007090734F9E802ABA7
:1003A00024F0070435B106982044B0423FF63EAF32
:1003B000C4E900AB08344FF0000B4FF0080A534675
:1003C00011F8010F002878D0BBF1000F7FF470AF57
:1003D0002528F5D1019B013301934FF0010B4FF01C
:1003E000040AECE7584694E700208346A5E7082B6B
:1003F00002D06FF015001BE709F1070929F0070982
:10040000F9E80223C4E9002308340823D8E768B9CF
:10041000042B02D109F10409A4E7082BE9D109F161
:10042000070929F0070909F10809EDE7059A013ADA
:10043000059259F8042B009210E7039A900720D5F3
:10044000A4EB050E4FEA9E004FF0010CBEF5007FB5
:10045000CFD20F2FCDD8F5B107F140020DEB020E30
:10046000C0B2019A0EF8200C0EF8102CBCF1000F4F
:100470003FF41AAF60F07F000EF8200C08F101087D
:100480000137C5F10802043406924FF6DA7E97E789
:100490004FF0000CDAE7BCF1000F01D00136EFE7B6
:1004A000029802360028EBD10098CDE90631FFF71B
:1004B00027FEDDE906310644E2E7631BB3F5806FF2
:1004C00097D23DB9A6F10804E018B1E6F07B000030
:1004D000008B0000029A28609B082B709DF810305A
:1004E000C2B1EB7085F80280B8F1000F05D008A802
:1004F0000022C5F1010C97420ED1C5F101030DF1A7
:1005000020094FF0000A01930DF1300B574512D12D
:10051000601B8DE66B70E5E710F8013B190608D506
:1005200004EB0C0EB64503F07F033FF67FAE04F8F4
:10053000013B0132DFE7B8F1000F03D099F9002049
:10054000002A17DB029BD3B11AF80B2004F8012B09
:100550000022019B98182044B0423FF667AE99F8FC
:10056000000004F8010B00990392204607F017FBE6
:10057000039A14440AF1010A09F10109C6E799F83E
:10058000002055F822300093029B45F82230009855
:10059000FFF7B6FD421CDCE76FF00D0048E600BF38
:1005A0002DE9F04F97B000AF90F802A0D7F880B0D7
:1005B0003B62CBF3C0030446FA62BB61894641B992
:1005C000457800780AEB800020444D4517D8A0EB11
:1005D0000409E378FB61BAF1000F02D01BF0010FB0
:1005E00016D1FB6953BBFB6A1BB13A6A49462046E8
:1005F00098474D4628465C37BD46BDE8F08F461CFF
:100600003046FFF77DFD0130304409F10109DCE798
:10061000237862687A62FA6A9900796104EB83014F
:10062000002A40F000814D460E4601EB0A094FF0CA
:1006300000084E454CD101EB0A0610E01BF0020FFA
:10064000D1D023789A007A6162687A62FA6A04EB00
:100650008301002A77D14D4601EB0A0690461BF034
:10066000050F0CBF02230123FB62FB6906EB430A63
:100670000BF00203BB625645BCD016F8021B16F8FD
:10068000013C54F82390AF4B994502D3AE4B9945AA
:1006900036D3BB69002B40D0786A06F076F8002884
:1006A0003BD0E9468AB06A46A84B53617B6AC2E9EF
:1006B00006314FF400731384A54B42F8103FA54850
:1006C00000234FF4125100F013FD023DCD46D2E756
:1006D00016F8013BF96254F82300FFF711FDD7F833
:1006E0008430F96A01304BB1D7F8883098453EBF65
:1006F000D7F8843023F8180008F10108054498E77A
:10070000BB6923B1786A06F040F80028C9D11BF014
:10071000010F05D1FB6AED1AADE7BB6A002BAAD029
:100720004846FFF7EDFCD7F8843053B1D7F888304E
:1007300098453FBFD7F88420431C22F8183008F1B1
:100740000108054497E7BAF1000F72D01BF00406C8
:1007500072D0D046002607F1480052463B61B9628C
:1007600007F01DFAB96A3B6901EB0A02BA62FA693D
:10077000F9695200FA60BA6A02EB41023A610BF081
:100780000202BA603A69B96A8A4257D162787A62DB
:100790001BF0020F32440CBF4FEA580100211BF03E
:1007A000010FD2B240F09F801BF0040F14BF4046EF
:1007B0000020BB616270A070E1703A6A7969FB6ADF
:1007C00020469847051EFFF615AFBB6923707B6A6C
:1007D0006370FB69E37041463A6AFB6A84F802A0E1
:1007E00007F148009847B0F10008C0F2B5807B6976
:1007F0003A6AA9EB0A01C91AFB68C91AD7E90A03C0
:1008000098470028C0F2AA80A84408EB00054FF0E2
:10081000000B07F1380AB34567D300213A6AFB6A37
:1008200008469847E6E656464FF0000807F13800BC
:1008300093E75646D04697E7B04695E7BA6A12F86E
:10084000021BBA6212F8015C3E4A54F8250090423D
:1008500002D33D4A90421ED3BA6932B1786A7B60B6
:1008600005F093FF7B6800288CD1BA6802BB08F1C1
:10087000280207F1300C08F10100944407F15802F6
:1008800052FA80F008F102080CF8101C5FFA88F8A0
:1008900000F8105C76E7BA693AB1786A7B6005F0D7
:1008A00074FF7B6800287FF46DAF1BF0010F09D047
:1008B00006F1280207F13000711C161806F8205CBA
:1008C000CEB25FE71BF0040F3FF45CAF08F12802E3
:1008D00007F1300008F1010102EB000808F8105C94
:1008E0005FFA81F84EE7002063E71BF80A3087F8CB
:1008F000373054F82390D7F88430FBB133F81B809D
:100900003A6AFB6A012107F137009847002825DB86
:100910000544B8F1000F06D14846FFF7F1FB00F19E
:1009200001081FFA88F83A6AFB6A41464846984728
:10093000002813DB05440BF1010B6CE7D7F884802A
:10094000DEE700BFF07B0000008B00000D8200009E
:1009500004000001447E000045464BE6054649E69A
:10096000014B1860704700BF0000002080B50546AD
:100970000E461746984604F065FF034607F02EF929
:10098000DFF81890044649F80030424630463946B0
:10099000A84754F8090001F01FFB00BF0800000041
:1009A0002DE9F047058B04462807904611D402290B
:1009B00005F0070540F0CC80204606F06CF978B1D0
:1009C0000138218B042811D8DFE800F0C2106D85B2
:1009D000950001290CBF45F0100545F02005258341
:1009E00088F31188BFF36F8FBDE8F08701F0070A25
:1009F000AA4500F0A5800027B9463E46A368002B13
:100A000000F0BC8041F00801218388F31188BFF316
:100A10006F8FA168002900F0BA800D68002900F0EE
:100A2000B680D1F80480334652462046C047002D98
:100A300076D02B6829461D46F0E701F007035A1FC0
:100A4000012A1BD8002221F00701062B276889B252
:100A5000C4E9002209D13B4603E0628B0132628384
:100A60001B68002BF9D141F002012183204606F0DA
:100A700012F900287AD041F0200176E0042B0AD147
:100A800021F0070189B22183204606F004F910B154
:100A900041F020012183218B01F0070AAA454FD0A4
:100AA0000027B946AAE7236921F0070141F00601B2
:100AB000062DD3F8009021832DD1B9F1000F3FD03E
:100AC00041F00801218388F31188BFF36F8F3A4901
:100AD0002046C84729E021F00701236941F00401BD
:100AE00089B2042DD3F804902183E6D000273E4636
:100AF0004FF0040A82E721F00701236941F0050164
:100B000089B2052DD3F808902183D6D000273E4620
:100B10004FF0050A72E700273E464FF0060A6DE7E0
:100B20002B4687E7B9F1000FD1D1EFF311882023CD
:100B300083F31288BFF36F8F238B23F00803238383
:100B4000258BEA062ED525F01003238305F0070533
:100B50006669218B002EBFF670AF00232768C4E9B9
:100B6000003321F0070141F001012183218B01F0C5
:100B7000070AAA454FF000097FF440AF002F9CD030
:100B800041F00801218388F31188BFF36F8F002F94
:100B9000C8D03D68394633465246204606F0A7F88D
:100BA0002F46F4E7AB067FF51BAF25F02003238328
:100BB00005F0070500E700BF1B6D00002DE9F047B9
:100BC000DFF85880044607464FF0010914B938464B
:100BD000BDE8F08794FAA4F5B5FA85F509FA05F3AE
:100BE0002E0108EB05156FEA030A24EA03042B7BA8
:100BF000002BEBD058F806301B694BB94644042251
:100C000073682846196807EA0A0700F05DFADDE70D
:100C1000284698470028D9D1F0E700BFA47E0000FD
:100C200030B51049104889B0002206F02DFF0F4D55
:100C30000F4900220023CDE9062300240E23CDE92D
:100C40000334CDE901440B4B00944FF44072284625
:100C500004F02CFB0849284606F008FE204609B09F
:100C600030BD00BF7D0C0000B8060020300200201F
:100C7000001600206D0F0000C1820000014804F042
:100C80007FBA00BF200200202DE9F04780461F48B0
:100C90000F4606F0ECF80646002830D0002528461E
:100CA000BDE8F087237B6BB12368DB680BB120467E
:100CB000984723681B69D3B96368042219682046E2
:100CC00000F002FA013610344C45EBD3B8F1000FB6
:100CD000E5D0002DE2D02846FFF770FF0546002F33
:100CE000F7D000214FF4A47004F08EFDF1E7204608
:100CF00098470028E0D00AFA06F31D43E2E7044CC7
:100D0000DFF8109005464FF0010ADDE7C00800202B
:100D1000A47E0000C47E0000014B53F82000704701
:100D2000EC7E000008B5034608462BB1044A136068
:100D300000F06AFC002008BD6FF01500FBE700BF63
:100D40000400002010B5044C237813B9034804F0C4
:100D500017FA0123237010BDC411002020020020C7
:100D600010B50446084806F082F85CB1BFF35B8F0B
:100D7000064B53E8001F013943E80012002AF8D15E
:100D8000BFF35B8F10BD00BFB8080020BC08002077
:100D90000020064BBFF35B8F014653E8000F43E88A
:100DA0000012002AF9D1BFF35B8F7047B80800200A
:100DB00070B5FFF7EDFF084C084E0546B44200D36E
:100DC00070BD63685B792BB123685B6813B12946FA
:100DD000204698471034F1E7A47E0000C47E00004E
:100DE00010B5044C0449204605F0FDFD034B1C6082
:100DF00010BD00BF80010020D87E0000B008002098
:100E0000084A094808B500231370084A1360084AC5
:100E10004FF400411360FFF785FFBDE80840FFF77E
:100E2000DFBF00BFC51100206B6E0000B8080020B6
:100E3000BC080020014600220148002305F0F4BD53
:100E400080010020014805F08ABE00BF800100201B
:100E5000024B0146186805F0D6BE00BFB00800205E
:100E6000014805F00BBF00BF8001002070B5284B82
:100E7000187800284BD0FFF7E5FF054690B1BFF387
:100E80005B8F244B53E8001F013943E80012002A0E
:100E9000F8D1BFF35B8F204C204EB4422DD32846AF
:100EA000FFF7D6FF1E4B1F4C1B68002B19DD06F009
:100EB000E9FD4FF47A72A0FB020302FB0131C30B80
:100EC000D4E9002043EA41439B1A4FEAD13140F272
:100ED000E93261EB0001934271F1000101D3FFF7A8
:100EE00067FFD4E9003213F57A7342F10002C4E9D6
:100EF0000032BDE87040FFF7B3BF63685B7923B190
:100F0000236829461B68204698471034C5E770BD02
:100F1000C4110020BC080020A47E0000C47E000094
:100F2000B8080020B006002070B50D4D297861B9D1
:100F30000120FFF7A9FE0B4C0B4EB44206D3FFF77E
:100F400095FF0028FBD101232B7070BD63685B798E
:100F50001BB1236820469B6898471034EDE700BF1B
:100F6000C5110020A47E0000C47E000000212DE9F0
:100F7000F0470846FFF788FE044658B340F267681A
:100F80004FF0000906F02AFE1B4B1C4A1B58136049
:100F900033B11B4B1B68092B02DD1A4804F0F0F833
:100FA000194FDFF860A0002544B12046FFF706FE88
:100FB000044618B94FF0FF384FF0FF39FFF756FFDE
:100FC000064628B9B5B942464B46504604F0FCF8EF
:100FD0003546E9E74FF0FF384FF0FF39D2E72B688D
:100FE0009B691BB100221146284698471035BD4227
:100FF000F5D3E8E7054DFAE708000000B408002043
:10100000BC08002020020020C47E0000A47E000056
:1010100013B5184805F02BFF174B1B7873B1EFF38E
:101020001184202383F31288BFF36F8FFFF71EFF15
:1010300084F31188BFF36F8F02B010BD0F4B1B6894
:10104000002BF9D050B900220023CDE900230C4831
:101050004FF40042002304F04BFEEDE70928EBD1EA
:10106000074806F01DFD074802B0BDE8104004F037
:1010700087B800BFBC080020C5110020B4080020BC
:10108000B80600202002002010B5064B1B6804465D
:1010900098472146A060044805F042FDBDE8104095
:1010A000FFF7B6BF0400002080010020044A054B72
:1010B0009B1AB1EBD30F34BF52F8310000207047B8
:1010C000447E0000A47E0000084BC31A10B41B111C
:1010D00044680133237143689A7143681960436817
:1010E00001225A7110BCFFF72DBE00BFA47E000084
:1010F0002DE9F04F8FB004AFC1F34A28B8600D4618
:1011000091467B600C0DB8F1000F63D0002607F10B
:1011100014034FF0040B4FF00A0AC7F80C80C7E91C
:1011200007667E620193CDF808B0CDF800A007F104
:101130001C03F96832464846FFF732FAB0F5006FF3
:1011400003461CD36C468AB0D9F8041004AB264879
:10115000C3E9050140F2FF71D9611A464FF40071ED
:101160001984224B42F8103F214833464FF4125164
:10117000FFF7BEFFA5462C37BD46BDE8F08FC0F394
:101180000A0804F11700184420F0070080083B60AB
:10119000FFF750FE68F35325044690B13B68154AAB
:1011A000C7E9083600F1100107F11403F961CDE930
:1011B00000A3CDF808B0F96807F11C034846FFF713
:1011C000EFF968F353257B68B9682A46204605F095
:1011D00084FED0E704F1170020F007008008FFF735
:1011E00029FE0446EDE700BFD6820000040000019E
:1011F0006C7E0000AF6E00002DE9F04F87B0DDE996
:101200001269DDE9105A04460F4693469846A6B384
:101210001021CDF80090334652460020CDF81490AE
:10122000FEF7ECFF014605F117000844144B03914B
:1012300004F007040BF0070BE40020F0070003EABA
:10124000412344EA8B1480081C43FFF7F3FD44EA72
:101250000554054640B13EB10399CDF800903346A0
:1012600052461030FEF7CAFF43462246394628460A
:1012700007B0BDE8F04F05F030BE3146D3E700BF00
:1012800000FE0F00406820B1034BC01A40F3CF00AE
:1012900070474FF0FF307047447E00000EB403B536
:1012A00003AB014653F8042B0448019301F060F9A5
:1012B00002B05DF804EB03B0704700BFD76F0000C9
:1012C000CA0605D48B064CBF02490349FFF7E6BFA7
:1012D000704700BF16830000158300002DE9F04F12
:1012E00089B09B46149B06939DF84CA0159B0593D3
:1012F000169B179E049304460D469046BAF1000FC4
:1013000000F09D8006F48073079305F0CEFD06F093
:101310000209024600283ED091492046FFF7BEFF51
:101320000746B9F1000F08D016F0440F35D18D49AA
:101330002A462046FFF7B2FF074406F0010353B1E7
:10134000894B8A4953F82A20894B2046002A08BF36
:101350001A46FFF7A3FF06F48073002B49D006F06E
:101360000803002B63D1B8F1000F66D081494246D3
:101370002046FFF793FF0546069B3D44002B6DD1A9
:10138000049B002B73D1F30700F1E4803146204623
:10139000FFF796FFD8E00746C3E7774B18680028A9
:1013A000CAD0764B4FF47A791B68B5FBF3F54FF44E
:1013B0006161B5FBF0F300FB135509FB05F54FF038
:1013C0003C0CB3FBF1F201FB1231B5FBF0FEB1FBBB
:1013D000FCF300FB1E550CFB131109FB05F50091F6
:1013E000B5FBF0F56649CDE901E52046FFF756FF6C
:1013F000A2E706F00803EBB1624B634953F82A20D9
:101400002046FFF74BFF0546B8F1000F05D05949BC
:1014100042462046FFF742FF0544BBF1000FABD028
:101420005A495A462046FFF739FF0544A4E74FF0D2
:10143000000BE1E706F00805E6E745469CE7BBF14F
:10144000010F069B06D1002B64D1049B002B7BD09F
:1014500000250CE0002BF8D04D485CE04D48069B81
:101460004D49224605F060F9049B002B68D0DFF857
:101470002C81DFF82C91049F3146102F204628BF85
:101480001027FFF71DFF4FF0000B5D4545DC059B66
:1014900049461A782046FFF701FF4FF0010B1BF079
:1014A000070F03D141462046FFF7F8FE5F453BD9C1
:1014B000059B494613F80B202046FFF7EFFE0BF182
:1014C000010BBBF1100FEAD1364920464FF0000B5B
:1014D000FFF7E4FE5A46059B9A5CA2F120015F29C2
:1014E00028BF2E2230492046FFF7D8FE0BF1010B12
:1014F000BBF1100F1DD01BF0070F03D14146204652
:10150000FFF7CCFE5F455A46E5D841462046FFF737
:10151000C5FEEBE71F485546A1E741462046FFF7C9
:10152000BDFE0BF1010BB0E720492046FFF7B6FEE8
:10153000C5E7059B3B440593049BDB1B04939AD1B1
:10154000BAF1000F7FF41FAF204609B0BDE8F04F9D
:1015500005F034BD064A05492046FFF79FFE15E712
:101560001D83000021830000FC7E00005E890000D6
:101570001883000046830000C8080020C40800202B
:101580002A830000107F00004A830000508300007F
:101590000D700000D76F0000712500005D83000012
:1015A000558300005F830000618300005B830000BF
:1015B00073B542F20F738B4228BF0B4605680F4A82
:1015C00004460521684604F0BDFD63680C495B686C
:1015D00006460B22284605F0E3FC6368324669465E
:1015E00028465B6805F0DCFC636806495B681B22E3
:1015F000284605F0D5FC02B070BD00BF378500005D
:101600008083000064830000074A00210123904288
:1016100006D8064A01B901231360054B18607047CC
:1016200040085B000121F2E740420F00C40800209F
:10163000C8080020014B01221A707047C611002013
:10164000014B002019607047E0080020024B03485E
:1016500001221A7005F0B2BCC7110020407F0000C3
:101660000148FFF7A5BF00BF407F000010B5064B43
:1016700018680C46FFF750FB21460346BDE81040B2
:1016800002480F22184700BFE0080020407F0000FA
:1016900010B9074B18707047064B1B781BB141F20D
:1016A000883006F03AB8A420002104F0ADB800BF9D
:1016B000C6110020C71100202DE9F843DFF874900F
:1016C0001D4F80460E46042499F8005095B903F04A
:1016D000A5FA28463246414603F052FA054603F081
:1016E000A7FAE5B101233B7099F8003073B9304691
:1016F000BDE8F88332464146002003F041FA054632
:10170000EFE72046FFF7C4FF651E2C46002003F0DC
:101710007BFA0028EBD03B78002BF2D1E7E73B784F
:10172000002BE4D0013C2046FFF7B2FF3B78002BB2
:10173000CAD1DCE7C7110020C6110020F8B5074F59
:101740000D4604464618B44201D12846F8BD14F8A7
:10175000011BBB6801485B689847F4E79C7C00006C
:10176000014B036000207047847F000008B50448E7
:1017700005F032F8BDE80840024805F02DB800BF7A
:10178000D68300000B840000014804F033BB00BF87
:10179000847F000038B5044618B90F4B0F485B68CA
:1017A00098476168B1F5683F10D0B1F5680F0DD06A
:1017B0000B4DA9420AD011F46861206807D0014698
:1017C000084806F002F800232360656038BD142243
:1017D00006F0F3F9F9E700BF140100203984000096
:1017E0002C5F5CA9080E002008B520B34368B3F550
:1017F000683F10D101220368BFF35B8F53E8001FDD
:10180000002903D143E800200028F7D1BFF35B8F04
:101810000DD1002008BD094A93420AD000684FF05C
:10182000FF324FF0FF3303F0F7FB0028F1D00448FC
:10183000F0E70448EEE76FF4E040EBE72C5F5CA9CB
:10184000E98FFFFFEA8FFFFF08B5D8B14368B3F512
:10185000683F10D100220368BFF35B8F53E8001F7D
:10186000012903D143E800200028F7D1BFF35B8FA3
:101870000BD1002008BD074A934208D0006803F04E
:1018800043FCF6E76FF4E040F4E70348F2E703486F
:10189000F0E700BF2C5F5CA9E98FFFFFEA8FFFFF35
:1018A00010B5044618B91D4B1D485B68984763681E
:1018B000B3F5683F2FD0B3F5680F2CD0194A934287
:1018C00019D1236803BB18484FF0FF324FF0FF33A4
:1018D000214603F073FB08B923681BB90F4B13486B
:1018E0005B68984720681422002106F066F94FF4DF
:1018F0006863636008E0B3F5683F0DD83A2B03D006
:1019000040F6BA629342DED1206805F096FF636824
:1019100043F03A03636010BD054AF3E71401002069
:10192000398400002C5F5CA9080E00205F84000051
:101930003A00003A08B5064906484023142205F04B
:1019400036FFBDE808400449044804F0C5BA00BFAA
:1019500008090020080E00208C7F0000A07F0000F6
:101960002DE9F047064600AF0C46002936D0E9467F
:101970008AB0D1E90012A3686D462148A8464FF00D
:10198000050AC5E90501C5E9072348F810AF1D4858
:10199000424600234FF42151FFF7AAFBCD46D4E97C
:1019A00003126369AD461848C5F810A0C5E90501E2
:1019B000C5E907231348002342464FF42151FFF79E
:1019C00097FBCD46E369114A0E48012105F0DEFA86
:1019D000A3690F4A0B48012105F0D8FA012E07D15F
:1019E000EFF305830B4A0748103B314605F0CEFA6A
:1019F0002146304603F032F9BD46BDE8F08700BF0E
:101A00008C8400008C7E0000BB840000EA8400000F
:101A1000F98400002785000030BFFFF7FDBF00BF3D
:101A20002DE9F0410B4EDFF8308006EB0807CC1BA8
:101A3000054632460949204606F0B1F8A01942464B
:101A40000021083C06F0B9F82C6707F10800BDE852
:101A5000F08100BF0000000004000000C47E000010
:101A6000074A936893F90E10002907DB52699342E5
:101A70001FBF044A536843F080535360704700BF50
:101A8000BC0F002000ED00E070B5294C06460D4665
:101A90002848294905F031FBA36AD9043CD52548DB
:101AA000264905F02AFB1720A36A1A0504D5214808
:101AB000234905F022FB18201D4CA36A9B0512D573
:101AC0001C48204905F019FBA36BA26A100409D534
:101AD0001D4A1848012105F059FA1EB1A36A23F4E2
:101AE0000043A3621920124CA36A590504D511487A
:101AF000164905F002FB1A20A36ADA050ED50D4837
:101B0000134905F0FAFA1B20094A936A43F47F430C
:101B1000936200232B7070BD1620C5E7A36A9B0457
:101B2000F2D504480B4905F0E8FA1C20ECE700BFA9
:101B300000ED00E08C7E00003A850000508500003A
:101B400061850000748500008D850000A28500007D
:101B5000BD850000D585000010B5204C20492148E6
:101B600005F0CBFAA36A990136D51E481E4905F047
:101B7000C4FA1E20A36ADA0104D51A481B4905F0ED
:101B8000BCFA1F20154CA36A1B0304D5154818493D
:101B900005F0B3FA2120A36A590304D51148154969
:101BA00005F0ABFA22200D4CA36A9A0304D50D4828
:101BB000114905F0A2FA2320A36ADB0304D50948E2
:101BC0000E4905F09AFA2420044A936A6FEA034307
:101BD0006FEA1343936210BD1D20CBE700ED00E0D8
:101BE000048600008C7E00001C8600002F8600000A
:101BF00049860000678600008C860000A6860000EB
:101C00002DE9F843364D8046894636483649174611
:101C100005F073FAAB6ADE0627D53449314805F082
:101C20006CFA1124AB6A1D0704D531492D4805F023
:101C300064FA12242A4DAB6A980718D52D49294811
:101C400005F05BFA6E6BAB6A190646D52A4A254841
:101C50003346012105F09AF9B9F1000F03D0AB6AC0
:101C600023F08003AB62132403E01024DAE76FF063
:101C700015061B4DAB6ADA0704D52049194805F053
:101C80003CFA1424AB6A9B0604D51D49154805F09F
:101C900034FA1524124B9A6AD50602D49A6A900730
:101CA0000AD55B68190507D54146304600F07CFA35
:101CB00010B180F309880224094B9A6A920642BF48
:101CC0005A6A22F400525A629A6A42F0FF029A62F9
:101CD00000233B702046BDE8F8836FF01506C2E78D
:101CE00000ED00E08C7E0000D1860000E786000059
:101CF000618500001A8700003287000048870000D5
:101D0000D58500002DE9F041664B8AB0D3F80480F8
:101D100000AF0446C8F30805002686F31188BFF318
:101D20006F8F02F07F43B3F17F4F07D102F00C03B6
:101D3000082B12D15C495D4805F0DFF900263446D6
:101D40000023FB71EB1E092B00F28A80DFE803F011
:101D50000A80837D88888888888610074CBF0C4657
:101D60000126EDE7524951484E4D05F0C6F90023D2
:101D7000FB71EB6A9A0705D54E494C4805F0BDF951
:101D8000002333E0EB6A002B01DA4B49F5E7EB6AFD
:101D90005B00F5D54949454805F0AFF96B69A26983
:101DA00043F480736B61BFF34F8FBFF36F8F6B6929
:101DB00032F8022C23F480736B61BFF34F8FBFF3B3
:101DC0006F8F4DF602739A4209D0AB6ADBB27BB3D8
:101DD000FA1D01212046FFF713FF034606E02368A2
:101DE000374A3248012105F0D1F82368FA79DAB987
:101DF00007F1080504F1200C206861682A4603C237
:101E0000083464451546F7D17A6A002E44D0C2F3EF
:101E1000080121B96FEA52226FEA42227A6207F181
:101E200008011846FFF79CFD2837BD46BDE8F08144
:101E3000AB6A13F47F4F04D0F91D0120FFF724FE95
:101E4000CBE7AB6AB3F5803F9AD3FFF785FEC4E7D3
:101E5000FA1D0021BEE7F91D0020EFE719498CE7C4
:101E6000194A1A4B18F4F87FE8468AB018BF13468F
:101E70006A461749C2E905134FF400731384103DF5
:101E8000144BD56142F8103F084800234FF411511C
:101E9000FFF72EF9C54673E722F4FF7222F0010224
:101EA000BCE700BF00ED00E0958700008C7E0000DD
:101EB000C0870000D7870000F88700000688000070
:101EC00025880000418800007C87000067870000AB
:101ED0006588000004000001024A536943F01003C2
:101EE0005361704700ED00E0EFF30880EFF30981E4
:101EF00001B57246FFF706FF01BD00BF002080F369
:101F00001488BFF36F8F01F09FFC00200D4908601B
:101F1000BFF34F8F0C4880F3088800F02BF8202087
:101F200080F3118809484FF40461401880F3098850
:101F3000EFF314800221084380F31488BFF36F8FFE
:101F400000F0FAF894ED00E000270020401900208E
:101F50000749D1F890200023C2F307221846934284
:101F600000DB7047C1F89830C1F8A0000133F6E7F4
:101F700000ED00E008B572B6002383F31388FFF785
:101F8000E7FF144B4FF0FF32C3F88020C3F88420E2
:101F9000C3F88820C3F88C20C3F89020C3F894209D
:101FA000C3F89820C3F89C20C3F88021C3F884218B
:101FB000C3F88821C3F88C21C3F89021C3F8942179
:101FC000C3F89821C3F89C2162B6BFF34F8FBFF3CB
:101FD0006F8F08BD00E100E0084B9B6883420BD186
:101FE000EFF3058343B1064B5A6842F080525A60C2
:101FF0005A6A22F400425A6205F009BDBC0F002063
:1020000000ED00E0094A93686FF00A0199670849FA
:1020100058674B6843F080534B60002383F311886B
:10202000BFF36F8F9368986F704700BFBC0F00209D
:1020300000ED00E010B50446EFF31183202383F395
:102040001288BFF36F8F0A4B58699860094B4FF0A5
:1020500000625A60084B026F1A600022436F4267A9
:1020600083F31188BFF36F8F00F006F9204610BD8F
:10207000BC0F002000ED00E0240E00200B498A6810
:102080004FF030001044EFF3098C80E8F01F7446E5
:102090007046FFF7CFFFA64604498A6802F1300078
:1020A00090E8F01F8CF3098870470000BC0F0020F7
:1020B0001EF0040F0CBFEFF30880EFF30980816975
:1020C00011F8021C0229FFD001B505F00BF801BD83
:1020D00040B2002807DB044A4109012300F01F0039
:1020E000834042F82130704700E100E0054B42098F
:1020F00000F01F0053F82220012303FA00F01040E3
:10210000704700BF00E100E040B20028A8BF00F126
:10211000604001F10101B8BF064B4FEA4111ACBF6D
:1021200000F5614000F00F00C9B2B4BF195480F847
:102130000013704714ED00E00B4A08B50B4B22F07A
:102140007F029A60BFF34F8FBFF36F8FD3F8882061
:1021500022F47002C3F8882002F06AFE03F0FEFB4E
:1021600000F060F802F0A8FE0000000000ED00E0C2
:1021700042F8203C009B42F81C3C0A49019B42F873
:10218000183C029B42F8143C21F001014FF080738F
:1021900042F8043C42F8081C0023203A02654367D9
:1021A000704700BF6D090000094A0346906870B18E
:1021B00013F1160F006E05D0A0F140029A4205D827
:1021C000834203D2814228BF00207047002070471D
:1021D000BC0F002008B515460B4A0C4B9060026FEF
:1021E0001A600E4600F048F82C4686F309884FF036
:1021F0000000074B984720464FF000014FF00002C7
:102200004FF00003034C2047BC0F0020240E002099
:102210000B7100006D090000014B10221A6170471C
:1022200000ED00E0044800232021C2180133302BC8
:1022300082F80013F9D1704700E100E008B5EFF330
:102240000583064A103B02EBC30152F8330049688C
:102250008847BDE80840FFF703BC00BFC47C00000E
:10226000024B034A0348012100F08AB80000042011
:1022700000000020B07F0000026E054B403A1A605B
:10228000044A4021C3E901121846012100F082B836
:10229000280E002000000B1508B503461048D0F8A2
:1022A0009020C2F30722013A934207D90D480E4A03
:1022B000012104F06BFE6FF0150008BDC0F89830E6
:1022C0000A6822F01F021A4342F01002C0F89C2054
:1022D0008A6842F00102C0F8A0201846EDE700BF6E
:1022E00000ED00E0847E00007C880000F0B50E4622
:1022F00085B01F4604460025B5420DDA606810B36C
:1023000097B1431E18420AD0104A11482B460121AA
:1023100004F03CFE6FF01502104605B0F0BD1F281A
:10232000F2D921680B42EFD12368019304F010FF2A
:10233000A36801A90343D0B20393FFF7ADFF10F1E7
:10234000160FE7D0421C01350C34D5E7A2880000F7
:10235000847E0000044B0522C3F89420BFF34F8F06
:10236000BFF36F8F704700BF00ED00E0BFF35F8FDA
:10237000024B0022C3F89420704700BF00ED00E03C
:1023800010B5034C01232278FFF7B0FF207010BD79
:10239000D911002008B50B4A00231278FFF7A6FFD9
:1023A00010F1160F07D0084A0021D2F89030C3F37D
:1023B0000723984200DB08BDC2F89800C2F8A010BD
:1023C0000130F2E7D911002000ED00E02DE9F043E3
:1023D00057485849D0F890300D68C3F307239D4201
:1023E00085B000F2A180FFF7C1FF49680022954245
:1023F00001F10C011AD1504C504F25706846FFF77F
:10240000AFF9DFF83C81DFF83C9106460025AE428B
:102410001FD1237846490020D1F89020C2F307222B
:1024200093427BDBFFF796FF00204CE0C0F898203A
:1024300051F80C3C23F01F03134343F01003C0F882
:102440009C3051F8043C43F00103C0F8A030013245
:10245000CDE7009800EB05114FEA051CCB683B4027
:10246000B3F5000F44D00AD8B3F5001F2ED0B3F552
:10247000800F34D0B3F5801F10D00135C7E7B3F11A
:10248000807F3ED0B3F1007FF7D150F80C308868E0
:102490004A6804F05DFE40F4802009E050F80C30FA
:1024A00088684A6804F054FE40F0885040F43020B8
:1024B000039001A92078CDE90123FFF7EDFE002864
:1024C00028DA6FF0150005B0BDE8F08350F80C3045
:1024D00088684A6804F03CFE40EA0800E8E750F8E3
:1024E0000C3088684A6804F033FE40EA0900DFE7F0
:1024F00050F80C3088684A6804F02AFE40F0827078
:10250000D6E750F80C3088684A6804F021FE40F0A5
:102510008870CDE7237801332370AEE7C1F8983097
:10252000C1F8A000013377E74FF0FF30CBE700BFE1
:1025300000ED00E0BC7F0000D91100200000F0FF9A
:10254000000008110000020708B5024B1B689847FD
:10255000002008BD340E0020034B044A1860937815
:1025600043F0020393707047340E002030000020C7
:10257000F0B587B007460E46144600211022684683
:102580001D4605F01AFB02238DF802302A46054B42
:10259000019321466846CDE9047603F0FFFD07B0BC
:1025A000F0BD00BF7171000008B50649064821F072
:1025B0000701C1F1005202F5802204F078F80020F2
:1025C00008BD00BF47270020380E00200E4A012317
:1025D000C2F840354FF080424FF08051C2F8783554
:1025E000D1F83001082808D1D1F83411052904D8D0
:1025F0000648415C09B1C2F838364FF080430122E9
:10260000C3F880250020704700E00140D488000016
:1026100020B1034B800143F001031847704700BF0E
:10262000D07E0000084B70B5C31A0D4607499B10B9
:10263000044659430648402204F0AEFD2B460146AD
:102640002046BDE870401847580E0020B76DDBB635
:10265000607C000073B50C4C0C4A4023041B0093B3
:102660000D460B460A49A41061430646094804F08A
:10267000BEFD011E05DA30462B4602B0BDE87040B3
:10268000184702B070BD00BF580E002057720000FE
:10269000B76DDBB6607C000010B5EFF3118420232A
:1026A00083F31288BFF36F8F074A136823F0020188
:1026B000DB07116002D4012004F0F1FE84F31188DD
:1026C000BFF36F8F10BD00BFA80E0020002270B5B1
:1026D000012104461046FFF717FD0F4801F03EFAAE
:1026E0000E4B984215D101F049FA26690C49304643
:1026F00004F020FB00280BDB012535642469084920
:1027000004F11C0004F016FB002801DBE564002046
:1027100070BD6FF00400FBE71D2800000000AD0B4A
:10272000DC7F00001FB500220123CDE90223094A06
:10273000CDF800D06B46CDF804D004F085FD00281C
:1027400005DB4FF480420023684602F03DFD05B0F2
:102750005DF804FB7572000030B4104B0C2202FBD4
:10276000003301460020D3E90E529863EFF3118045
:10277000202484F31288BFF36F8F1C6C04F0C00414
:1027800044F002041C6480F31188BFF36F8F1DB105
:102790002B46034830BC184730BC7047580E002009
:1027A000607C000010B4EFF31182202383F31288C1
:1027B000BFF36F8F1748016841F002040460C80737
:1027C00007D482F31188BFF36F8F012010BC01F092
:1027D000E7B94FF08041D1F80C04D1F80C14C907C7
:1027E000EFD5EFF3118083F31288BFF36F8F0A499F
:1027F0000B6C03F0C00343F002030B6480F31188F9
:10280000BFF36F8F82F31188BFF36F8F002010BC6E
:10281000FFF7A2BFA80E0020580E002010B101281B
:1028200004D07047034B1B6C5B0701D1FFF794BFCB
:10283000704700BF580E00202DE9F0413849BFF322
:102840005B8F0746012251E8003F41E80020002845
:10285000F9D1BFF35B8F33B9324933484B60CB605A
:102860008A6004F07AFA7B1E012B2BD8012F07D146
:102870004FF08043D3F81C3403F00303012B21D025
:1028800004F0EEFF0546F8B9284B1B78E3B14FF092
:1028900080430222C3F808230646DFF894804FF0F5
:1028A0008044D4F81824D4F81834D20315D503F092
:1028B0000303012B01D0012F0FD155B386F31188EB
:1028C000BFF36F8FBDE8F081EFF31186202383F310
:1028D0001288BFF36F8F0125DFE7ADB1304604F0FA
:1028E00028FCD4F81835002BDBD1D4F80421002AB9
:1028F000D7D0C4F80431D4F804310123C4F8183512
:10290000C8F88031A360CCE70021212002F07CFFD1
:10291000E7E74FF080430222C3F80423D2E700BF69
:10292000540E0020440E0020740E0020EC150020F0
:1029300000E100E008B5074804F0F4FE38B10648AD
:10294000FFF70AFE0448FEF70BF8002008BD6FF001
:102950001200FBE79C7C00005D2900000A2838B5C6
:10296000074D044604D1AB680D215B6828469847A3
:10297000AB6803485B68E1B29847204638BD00BFAA
:102980009C7C0000F0B54068057B01F01F0444EA20
:102990004514056987B0002D64D0B2F5001F00F121
:1029A000100506D12146284604F0F9FD002007B0A5
:1029B000F0BD01AE0027B2F5800F0197776039D1E5
:1029C000B3F1007F14BF052304238DF804300023E6
:1029D000CDE904630393836823FA01F111F0010147
:1029E0001AD1B2F1A07F17D104F01F03620903F5D9
:1029F000E0732AD0012A3BD11F4A52F82330DB076B
:102A00000AD40DF1030632462146284601F0A6FB02
:102A10001A4B98421CD0029603AA2146284601F080
:102A20005FFA174B984220D101222146284601F037
:102A3000F9FBBBE7B3F1C06F05D0B3F1007F14BF62
:102A400001230223C1E70323BFE74FF0A042D4E7ED
:102A50003146284601F0E0FB094B9842DBD06FF08D
:102A60000B00A4E76FF08500A1E76FF015009EE76B
:102A700051F82330FFDE00BF000300500400AD0B0F
:102A80000000AD0B38B545682B69B3B11035284649
:102A900001F0B2FB044680B90146284601F078FBFC
:102AA000084B98420BD108492246284601F050FBBA
:102AB000224605210620FFF727FB002038BD6FF0D6
:102AC0000400FBE70000AD0BCD2A0000420970B501
:102AD000034602D0012A17D070BD0D4E32695168ED
:102AE0000029F9D003F01F0301250C689D4000293F
:102AF000F2D08A682A4002D04B68304698472CB101
:102B0000236821461C46F2E7024EE7E72346F8E732
:102B1000887C0000747C00002DE9F043466840F298
:102B20000635D006337B87B002EA050554BFC2F3F1
:102B30004010032001F01F07B5F5837F144647EAD4
:102B400043178DF8030044D00FD8062D18D007D8AE
:102B5000B5B1022D3FD06FF0150007B0BDE8F0838E
:102B6000B5F5807FF7D101250AE040F202229542B7
:102B700033D0B5F5407F32D0B5F5007FEBD10225DB
:102B800022032ED5726801238B40C2F808353269C2
:102B900092BB07F01F037F092BD0012F79D13F4A49
:102BA00002EB830284F48033D2F80017C3F30043AE
:102BB000C4F3404444EA430421F4E16144EA80045C
:102BC00021F0070144EA05230B43C2F80037002037
:102BD000C3E70725D4E70425D2E70525D0E7032579
:102BE000CEE7630341BF012372688B40C2F80C3506
:102BF000CDE74FF0A042D3E710360DF1020239467F
:102C0000304601F0ABFA14F4403F80460CD139460F
:102C1000304604F0C2FC224B9845D8D19DF80210F2
:102C2000304601F0F3FAD2E701AB4FF0000903AAF6
:102C300039463046CDE90439CDE90199CDF80C90FB
:102C400001F04EF9164B984285D114F4003315D09B
:102C50009DF803308DF80E3084F48034C4F30044C2
:102C60004B4603AA394630468DF80C508DF80D407E
:102C700001F0F0F90A4B9842CDD06CE7CDE904336E
:102C800003AA0DF1030339463046039301F028F9F6
:102C9000F0E703F5E07352F82330FFDE0003005045
:102CA0000000AD0B02780B69012A08D0022A08D077
:102CB0004AB9064A5A6203F1140002F061BA044AA2
:102CC000F8E7044AF6E7044AF4E700BF0000AD0B5A
:102CD0000100AE0B0200AE0B0100AD0B2DE9F04F71
:102CE000D0F81090D0F8048085B005460C46174601
:102CF000029309F1040A4FF0FF324FF0FF335046C0
:102D000002F062FA09F1140B00230022584602F087
:102D10005BFA404601F03CFD7B1E00260393B74260
:102D200001D8002322E0039B217AB34283BF237D95
:102D300083F00403C3F3800300230193029B0093F9
:102D4000D4E90023284600F08FF8034670B94FF409
:102D500080420023584602F037FA98B1404601F00D
:102D600027FD284600F06EF86FF0040340460293FA
:102D700001F01EFD504602F003FA029B184605B012
:102D8000BDE8F08FD9F82430034A934204F10C04D3
:102D9000EAD10136C3E700BF0000AD0B98B5044689
:102DA00040682346826900AF00F1080101F0ACFCE5
:102DB0000E4B984217D023686C4688B06A460C497F
:102DC000C2E905134FF4007393830A4B42F8103F96
:102DD000094800234FF4E251FEF78AF96FF00F0023
:102DE000A546BD4698BD0020FBE700BF0000AD0B27
:102DF0004189000003000001647E000008B5CA0795
:102E0000436800690AD4C1F34202012A09D0022AA8
:102E10000FD00A4A0A48012104F0AFF86FF01500FC
:102E200006E01B684FF0CC72C3F824250160002037
:102E300008BD1B684FF0CD62F6E700BF6189000056
:102E4000647E000008B543681B68D3F80805D3F812
:102E50000C1501F0B3FD034B984214BF6FF00F0047
:102E6000002008BD0000AD0B2DE9F04186B00C46F6
:102E700047689DF834801546002112220DF10600A6
:102E80001E4604F09AFEBDF830208DF8052004F0AF
:102E9000010314F008028DF804300296049509D05D
:102EA000124A1348012104F068F86FF0850006B05B
:102EB000BDE8F081A10705D4B8F1000F11D1002BB6
:102EC000F3D1202201A9384601F08EFC094B98422B
:102ED00009D00B3398420CBF6FF00F006FF0040065
:102EE000E5E74022EEE70020E1E700BF738900003C
:102EF000647E00000000AD0B036803F01F025B0955
:102F0000026004D0012B034818BF002070474FF027
:102F1000A0407047000300502DE9F04FDFF8949176
:102F2000DFF894A185B01546834600EB810140F29D
:102F3000FF18594503D1002005B0BDE8F08FDBF83C
:102F400000305E04C3F3C322C3F3080400F1AC8075
:102F50005B0C19F80270444508BF4FF0FF34222B78
:102F600000F2A580DFE803F012191F22252B22A30F
:102F7000A3A3A33B68A3A3A3A3A3A3A3A3A36B811E
:102F80008487A3A3A38A9194979A9D00C5F80C45C2
:102F9000601C5ED10BF1040BCBE7C5F81445621C35
:102FA000F8D000265FE0C5F80845F1E7C5F8104500
:102FB000F5E7631CC5F80845ECD0002604E0661C64
:102FC000C5F80C45E6D0012603A80394FFF794FF4B
:102FD000039B012202FA03F3C0F80C3508E0C5F8A0
:102FE0000845002FDBD1631CD4D0002632460627CB
:102FF000DBF80030019303F40040002818BF0022E2
:1030000003A8009218BF01260394FFF775FF039CE5
:10301000019B009A00EB8400C3F3412CD0F80047D9
:103020003B0243EA8C03134304EA0A04234343EAC2
:103030004603C0F80037ADE7C5F80C45D1E7C5F841
:103040006045601CDBF80030A4D0C3F30043002BC4
:10305000B9D003A80394FFF74FFF039B012606FA9C
:1030600003F3C0F808353246C2E7C5F86445E8E71F
:10307000C5F86845E5E7C5F86C45E2E7C5F82445BD
:10308000621C87D000220126B2E7C5F828457FE7F9
:10309000C5F83045F4E7C5F83445F1E7C5F83845DB
:1030A000EEE7C5F83C4573E76FF0150044E76FF0B5
:1030B000850041E799890000F0F8FCFF2DE9F7430E
:1030C0000646002201210220FFF71EF80220FEF72B
:1030D000FFFF776835693C684FF00008C4F8008549
:1030E0002E60D7F80C9001AA4146484604F03AF900
:1030F000002837DB019BD9F8002019791868FFF701
:103100000BFF00282EDB6B7A3169012B03D0032BD8
:1031100026D14FF01008AB7A032B21D195F80BC0C4
:10312000BCF1000F02D0BCF1010F19D12A7A12B103
:10313000022A15D10E226B687068B3F5164F00682D
:103140007BD02DD8B3F5165F7AD016D8B3F5966F2D
:1031500078D00AD8B3F5967F77D0B3F5167F77D0BD
:103160006FF0850003B0BDE8F083B3F5166F72D041
:10317000B3F5965FF4D15C4B3EE0B3F5E14F6DD013
:1031800007D8B3F5615F6BD0B3F5964FE8D1574BD5
:1031900032E047F6122E7345E2D14FF400032BE0E4
:1031A000B3F5613F5ED013D8B3F5963F5DD009D833
:1031B0004DF6C02E73455AD0B3F5614FD0D14FF4C0
:1031C0006B0319E0B3F5E13FCAD14FF0EB7313E0A5
:1031D000B3F5612F4ED009D8DFF814E173454CD018
:1031E000B3F5E12FBCD14FF0E86305E0DFF804E16F
:1031F0007345B5D14FF08053C0F82435736848EA61
:103200000C081B6842EA0802C3F86C250B1DD5E9BF
:10321000010183E803007B6899073DD505F118009B
:1032200001F036F9344B98422AD03448344A01210F
:1032300003F0A3FE6FF0040094E74FF41D03DBE7F7
:10324000304BD9E74FF49E23D6E74FF4A033D3E7B2
:103250004FF41C33D0E74FF41D23CDE72A4BCBE7C7
:103260002A4BC9E74FF06C73C6E7294BC4E74FF40C
:103270006503C1E74FF07063BEE74FF08063BBE7C3
:10328000287E04F10C0204F5907104F0FEF82B7E08
:103290000120984000F0FAFB0823C4F800353B7A7F
:1032A00053B9C4F81031D4F810316B69C4F834350F
:1032B0000123C4F8383523607B689A075CBF4FF45C
:1032C0008073C4F804337B68DB0644BF4FF480038B
:1032D000C4F804332B69C4F8443500200123C4F832
:1032E0004805A360E3603DE700B0130000A04E0076
:1032F00090D0030040420F000000AD0B9C7E000008
:10330000A18900000050270000C0750000F03A00BD
:1033100000903A012DE9F041044607690D4604F09A
:103320009FFA4FF02008B0B92C4B1B789BB1642654
:10333000606804F045F8F0B9012004F0A4F8013EFB
:10334000F6D10021212002F05FFAF0E786F3118820
:10335000BFF36F8FF5E7EFF31186314688F31288DC
:10336000BFF36F8F606804F02BF880B986F3118883
:10337000BFF36F8FEFE7EFF31186314688F31288C2
:10338000BFF36F8F606804F01BF80028DED03B6944
:103390001D70626838691368C3F844050120C3F8DA
:1033A00048050020C3F82001D3F82051C3F8580184
:1033B0005268D3F85801D20608D56268126808200E
:1033C000C2F800054FF48002C3F8042301229A607A
:1033D00081F31188BFF36F8FBDE8F081EC150020F9
:1033E00070B5012383400E4ABFF35B8FDC4352E884
:1033F000001F01EA040542E80056002EF7D1BFF392
:103400005B8F4FF4803282400648C0F80823BFF338
:103410005F8FBFF36F8F0B4214BF0120002070BD80
:10342000C80E00200010014070B40E49D1E90034EC
:10343000D01AC31844F1000422F07F46C1E90034D9
:10344000A6F50013B3F5400F09D2074B1B681A0A03
:103450001B069C19054B42F10005C3E9004570BCF1
:1034600002F056BB00070020CC0E00200807002009
:1034700011B3BFF35B8F0123104A834052E800CFA2
:103480004CEA030C42E800C10029F7D1BFF35B8F7F
:103490000B4A4FF480338340C2F80433094BBFF327
:1034A0005B8F1B68BFF35B8FC340DB0742BF064BDC
:1034B0004FF40032C3F80021704700BFC80E00204F
:1034C00000100140C40E002000E100E00D4B186820
:1034D000010A0006BFF35F8F0B4BD3F804351818B1
:1034E00041F10001B3F5801F0AD2084BD3E9002354
:1034F000904271EB030303D210F1807041F100019F
:10350000704700BFCC0E00200010014008070020CB
:103510002DE9F04F85B016461F469DF840A00446A1
:10352000FFF75EFF0190FFF7D1FFB04271EB070399
:1035300054D23E4B301A67EB0101984271F1000101
:103540004FD23B4B03EB0413D3E902239F4208BF46
:1035500096425ED037494FF4803804F1500508FA9E
:1035600004F8AD00C1F848832046ADB203F06FFF08
:1035700026F07F4B05F1804504F5A87305F58835E5
:10358000DC464FF003090293029A2CF07F4341F886
:103590002230C1F84483D1F80435274A6FF0020085
:1035A000C01A604420F07F40904232D9286868B148
:1035B000D1F804350393A3EB0B0020F07F40B0F566
:1035C000000F26D9204603F042FF039BBAF1000FFB
:1035D00007D109EB030C09F10109D5E7BAF1000F96
:1035E00009D06FF0150520460199FFF741FF2846E5
:1035F00005B0BDE8F08F0123104ABFF35B8FA340F5
:1036000052E8000F184342E800010029F8D1BFF347
:103610005B8F07490E98230101EB0412C8500F9BE2
:103620005360C2E902670025DDE700BF01008000AA
:10363000F006002000100140FDFF7F00C40E0020B6
:103640007FB51C4C1C4BC4F80833C4F848331B4BE3
:1036500000254FF0FF304FF0FF31C4F80855C3E9A3
:1036600002014FF48033C4F80433154B02264FF4A3
:1036700000320121C4F804631120C3F880212A46D6
:10368000FEF742FD1120FEF723FD0E4A0123A36041
:10369000236013600C4B0D4A0093CDE901550023C4
:1036A0002846FFF735FF3046FFF7C6F8284604B036
:1036B00070BD00BF0010014003000F00F0060020A5
:1036C00000E100E0C80E002029340000FFFF7F0069
:1036D0002DE9F7432F4CD4F8043399070BD5D4F8D0
:1036E000043143B12C4A0023C4F80431D4F8043126
:1036F000136801331360D4F80433DA0329D5BFF318
:103700005B8F264B53E8002F22F0010143E80010A5
:103710000028F7D1BFF35B8FD30702D4D4F8403130
:10372000BBB10025C4F84051D4F84031FFF7CEFEBC
:10373000EFF31182202383F31288BFF36F8F184BAE
:10374000D3E90267B042B94106D282F31188BFF3D0
:103750006F8F03B0BDE8F0834FF0FF384FF0FF39B3
:10376000C3E90289D3E900101D604FF48033C4F827
:103770004833C4F84051D4F8403182F31188BFF384
:103780006F8F0029E5D0009032463B462846884797
:10379000DFE700BF00100140CC0E0020C40E002067
:1037A000F006002030B5431C124C85B005D0844291
:1037B000A8BF0446012CB8BF0124FFF787FE0E4BBB
:1037C0000C4DD3E90013401AB0F5000F10D22218A7
:1037D000AA4228BF2A4652184FF00000074900911C
:1037E000CDE9010043F10003FFF792FE05B030BDC3
:1037F0002A46F0E7FFFF7F00000700202934000081
:1038000008B5FFF763FE024B1B68C01A08BD00BF76
:10381000000700204FF08053D3F83021082A06D14A
:10382000D3F83431052B02D8024AD05C704700200F
:10383000704700BFE4890000024AD2F80034002B30
:10384000FBD0704700E0014010B54FF08053D3F833
:103850003021082A4ED14FF080420021C2F80C11CD
:10386000C2F81011C2F8381502F54042D3F804141A
:10387000C2F82015D3F80814C2F82415D3F80C1494
:10388000C2F82815D3F81014C2F82C15D3F8141464
:10389000C2F83015D3F81814C2F83415D3F81C1434
:1038A000C2F84015D3F82014C2F84415D3F82414F4
:1038B000C2F84815D3F82814C2F84C15D3F82C14C4
:1038C000C2F85015D3F83014C2F85415D3F8341494
:1038D000C2F86015D3F83814C2F86415D3F83C1454
:1038E000C2F86815D3F84014C2F86C15D3F8443404
:1038F000C2F87035FFF78EFF18B13A4B3A4AC3F859
:103900008C26FFF787FF18B1384BFB22C3F8182528
:10391000FFF780FF70B14FF080414FF08053D1F836
:10392000E42ED3F8583222F00F0203F00F031343B2
:10393000C1F8E43EFFF76EFF20B12D4B4FF400724B
:10394000C3F840264FF08053D3F83031082B1AD1FA
:103950004FF08043D3F80024D20744BF6FF0010238
:10396000C3F800244FF08053D3F83431052B02D82C
:10397000204AD35C3BB14FF01023D3F808224FF01C
:103980008043C3F858254FF01023D3F80022002AB3
:1039900003DBD3F80432002B22DA174901234FF05E
:1039A0001020C1F804351224FFF746FFC0F800428A
:1039B000FFF742FFC0F80442FFF73EFF0023C1F8C3
:1039C0000435FFF739FFBFF34F8F0C490C4BCA6822
:1039D00002F4E0621343CB60BFF34F8F00BFFDE7FB
:1039E00010BD00BF005000404881030000F00040BF
:1039F00000900240DE89000000E0014000ED00E0A0
:103A00000400FA0530B50468CCB1BFF35B8FB4FA9B
:103A100084F3C3F11F03DBB201229A4024EA0202BD
:103A200050E8005FA54204D140E8002CBCF1000F33
:103A3000F6D1BFF35B8FE6D102480B7030BD024870
:103A4000FCE700BF0000AD0B0200AD0B10B5036832
:103A5000CB40DB0714D401238B400268BFF35B8F9C
:103A600043EA020150E8004F944204D140E8001CB0
:103A7000BCF1000FF6D1BFF35B8FEED1014810BD52
:103A80000148FCE70000AD0B0400AD0B014BC3F88F
:103A90000405704700F00140F7B5044618B101284D
:103AA00023D003B0F0BD4FF080430222C3F80823B7
:103AB0000122DA60C3F80401D3F804310646012379
:103AC0008DF8073042F210754FF08047D4B1012CC9
:103AD000E7D1D7F80C3403F48033AEBB83B30120B5
:103AE00003F0D1FC013DF4D12AE04FF080430022E5
:103AF000C3F808035860C3F80021D3F800310DF172
:103B00000706DCE7D7F8183403F480333EB9002BFE
:103B1000C7D0012003F0B7FC013DF3D1C1E7D7F8CE
:103B2000182402F003023260002BBAD09DF807007F
:103B3000012803D103F0A7FC013DC7D1012CB0D16E
:103B4000054B00225A71ACE7D7F80C2402F00102B1
:103B50003270002BEAD1F3E7D00E0020044B1A7923
:103B600022B9012218609A800248704702487047C3
:103B7000D00E00200000AD0B0C00AD0B08B5074BBC
:103B80001B682BB10020FEF7B1FA08B9FEF7A0FAC6
:103B90004FF080430022C3F8182508BDD00E002046
:103BA00010B510B1012843D010BD4FF08043D3F8B9
:103BB0001814D3F81824C80321D502F00303012BED
:103BC00004D013B10020FFF767FF00234FF08042BD
:103BD0000220C2F8183508224FF4827303F18043A3
:103BE0000021196002F180421C6801241460154A0A
:103BF00012680AB34FF08043C3F80403D4E7D3F844
:103C00001424D107E1D5D3F81C249207DAD40D4A45
:103C100012681AB10222C3F80423C5E7D3F80421BD
:103C2000002AFBD00022C3F80421D3F80431BBE7FB
:103C300000224FF48073D1E71A68002AFCD0196083
:103C40001B68B1E7D00E002010B54FF08043D3F8C9
:103C500000216AB10022C3F80021D3F8002101221B
:103C6000C3F80823114B587910B95A711B6898474B
:103C70004FF08043D3F8042172B10022C3F804212D
:103C8000D3F80421D3F81824D3F81824920704D1C8
:103C90000122C3F818259A6010BD0222C3F8082338
:103CA000024BBDE810401B6801201847D00E0020D1
:103CB000036803F01F025B09026004D0012B034874
:103CC00018BF002070474FF0A0407047000300501D
:103CD000034A430900F01F00D35C1844C0B2704788
:103CE000EA89000070B50546FFF7F2FF0C4C08307A
:103CF0000E4634F81030DA0508D5C3F3432304EB3D
:103D0000C302284654F8333052689847A3682BB151
:103D1000E26831462846BDE87040184770BD00BFD4
:103D20008400002008B5FFF7D3FF034B083033F8B9
:103D30001000400B08BD00BF8400002008B5FFF74D
:103D4000C7FF034B083033F81000C0F3400008BD34
:103D50008400002008B5FFF7BBFF034B083033F8A1
:103D60001000C0F3401008BD84000020034611F08D
:103D7000010010B5CCB20DD1A207C4F3400012D59A
:103D8000094AD2F820055860C2F82005003818BF4B
:103D9000012008E04FF0A041D1F820251A60C1F8B9
:103DA0002025002AE8D010BD0003005010B5FFF711
:103DB0008FFF124A083032F81030D9051CD5C3F3F2
:103DC000432123F4F85322F8103002F10E040020AE
:103DD00034F8023F13F4807F03D0C3F343239942A6
:103DE0000AD001303028F3D1002342F831300448A2
:103DF000BDE81040FFF72ABE10BD00BF84000020C0
:103E0000FC000020F0B505460020044601260746C8
:103E10008C420BD1114BD3F87C2132B10022C3F874
:103E20007C21D3F87C3140F00040F0BDE3B29B0030
:103E300003F580729B0806FA03F31D420BD002F1D2
:103E4000804202F5C042D2F800C0BCF1000F02D09F
:103E50001760126818430134DAE700BF00600040C1
:103E6000F7B506460846FFF733FF194F00F108057E
:103E70000C4637F81530DB0727D5304603F069FBD1
:103E80002046FFF767FF40B12046FFF74BFF316840
:103E900000F5A270002341F820302046FFF786FF8E
:103EA000002301A827F815300194FFF701FF019BBB
:103EB00000EB8300074BD0F80027134043F00203C8
:103EC000C0F80037044803B0F0BD0448FBE700BF6A
:103ED00084000020F0F8FCFF0000AD0B0400AD0BE7
:103EE0002DE9FF41164680460846FFF7F1FE0D46D4
:103EF0003168044609B32846FFF720FF18B1284669
:103F0000FFF728FF10BB0023CDE900338DF80E30FA
:103F10008DF80F300DF10F020B4628460DF10E0102
:103F200003F0BFFA474A04F1080132F8113023F0D8
:103F3000020343F0010322F81130736863B328468B
:103F40001F785968FFF7FAFE10B1D1B13E4826E05C
:103F50003C4A04F1080032F8103023F02003DB045F
:103F6000DB0C22F8103061B1032FEFD8716849687B
:103F700091F800C0D8F80010A7B90CF5A27C41F860
:103F80002C70304A04F1080132F8113023F01C0380
:103F900043EA870322F81130B3684BBB2B4804B0C7
:103FA000BDE8F08101EB8C0143EA4C33D1F810E518
:103FB0002EF0030EC1F810E5D8F8001001EB8C0EBE
:103FC00043F02003DEF8101522F8103021F44F31B1
:103FD00021F44071CEF810152902DEF8108501F4A5
:103FE0007C5141EA074141EA0801CEF81015C8E7C3
:103FF000D3E900672846FFF7D9FE002ECED0114D39
:10400000D5E90023964203D19F4201D1002209E065
:104010000F480DF10F01FFF7F5FC0C4B9842BED194
:104020009DF80F2045F8326005EBC20308345F604D
:1040300035F8143043EA422343F4807325F81430F2
:10404000ACE700BF840000200400AD0B0000AD0B06
:10405000FC0000202DE9F0430C4685B08046204648
:1040600011461E46FFF734FE054629B32046FFF7EA
:1040700065FE18B92046FFF76DFE18BB314F05F1FC
:10408000080937F8193013F01C0F02D04B78012BB8
:1040900018D001238DF80F300023CDE900134A1CFE
:1040A0008B1C20460DF10F0103F0FBF937F8193096
:1040B00043F0030327F81930002E41D02046FFF7C4
:1040C0003DFE18B9204805B0BDE8F08396F800C061
:1040D000D8F800301B4F0CF5A272002143F82210D3
:1040E00005F1080237F8121021F02001C904C90CAB
:1040F00027F8121075781DB3D8F80000B67800EBD9
:104100008C002D04D0F8103523F4991323F4F853C0
:10411000C0F81035230203F47C5305F4403536050E
:10412000D0F810E52B4306F4801641EA4C313343B6
:1041300041F0200143EA0E0327F81210C0F81035B1
:104140000248C0E7840000200400AD0B0000AD0B66
:10415000014BC3E9021270478400002010B50846E5
:104160001446FFF7F7FD50B10846FFF7B1FD054BC8
:10417000083033F8103004485B0B237010BD03483F
:10418000FCE700BF840000200000AD0B0400AD0B75
:1041900070B5164D95F8804006462CBB214660222E
:1041A00005F1100003F009FD30682E6F21468E42A4
:1041B0000ED10023C0F87C31D0F87C3140F30730B9
:1041C000FDF786FF01230A4885F88030AB6770BD94
:1041D000CBB29B0003F580727C2B08BF845001F1A9
:1041E000010108BF8358E2E70248F0E7840000209D
:1041F0000000AD0B0C00AD0B034B93F880000038B2
:1042000018BF0120704700BF840000200148FFF75D
:104210001DBC00BFF80000200148FFF7F3BB00BF42
:10422000F800002073B503681646D3F80423002A6B
:10423000A8BF4FF000420546A8BFC3F804230846B4
:104240000C46FFF787FD00B30846FFF777FD0146F0
:10425000D8B92046FFF766FD04B2A40004F58072C9
:10426000034628688150296882582144D1F81025D6
:1042700042F00102C1F810252EB12968012202FA8C
:1042800003F3C1F8043302B070BD2046FFF720FDF0
:104290000F4B083033F81030C3F38203042B12D0D5
:1042A000052B12D001A80194FFF702FD019AD0F866
:1042B0001035D34003F00103991C204602B0BDE83D
:1042C000704003F037B90321F7E70221F5E700BF9B
:1042D000840000202DE9F04F694BDFF8A881D3F866
:1042E0000403D8F87010C0B289B040F00040FFF766
:1042F00089FD051E2FDAC24600235AF87C1F06A846
:10430000CDE90633FFF732FD5F4B01930DF118093C
:104310004FF0000B019A12F8013B0192DA0803F00A
:1043200007031AF8022022FA03F3DA071CD409F172
:104330000409BBF1000F14D0D8F870104FF0004002
:10434000FFF760FDD8F87C1006A8FFF70FFD0028E6
:10435000DAD125F000450124002D79D109B0BDE85E
:10436000F08F4FF0010BD5E7484B5B440293D9F82F
:1043700000100029DBD0029B91FAA1F11C78B1FA60
:1043800081F141EA44142046FFF7A2FC083005946D
:1043900038F81070C808BB0819F80020039301F022
:1043A0000701012303FA01F122EA010209F80020C2
:1043B00005A8FFF77DFC059A039B02F5E072C7F3A1
:1043C000820650F822205B073746C2F3014224D50B
:1043D00020463946D6B2FFF785FC05A80594FFF7BD
:1043E00067FC059B03F5E07350F82330C3F30143EA
:1043F0009E4207D10021204603F09CF8314620461A
:1044000003F098F805A80594FFF752FC059B0122DC
:1044100002FA03F3C0F82035A9E7022A0CD10321E0
:10442000204603F087F806F00503012BEAD1394650
:104430002046FFF757FCE5E702212046039203F0F0
:1044400079F8032EF3D0039A032ADBD1022EEDE78D
:1044500095FAA5F3B3FA83F304FA03F29B0003F190
:10446000804303F5C04325EA0205D3F81005D3F8CD
:104470001015C0F30520C1F30141FFF733FC6BE7D2
:104480000060004084000020FA890000FA890000E2
:1044900001460148FFF7B6BA0801002030B500F028
:1044A0001F04400911D0012812D10C4800EB8400F0
:1044B0001B02D0F800570A4C43EA82022C4042EA21
:1044C00041012143C0F8001730BD4FF0A040EDE797
:1044D00004F5E074002353F82430FFDE000300509D
:1044E000F0F8FCFFCB7B10B433B9D1E9004203688C
:1044F000C3F80845C3F80C2503688A68C3F8242567
:1045000003793C225343054AD3582BB1006810BCB1
:1045100040F30730FDF7DCBD10BC7047D80E00201B
:1045200013B53B4B01930023C0F80431D0F80421AC
:10453000C0F82431D0F82421C0F81C31D0F81C2157
:10454000C0F80831D0F80821C0F800324B6381F878
:104550002F300123036291F82D209A4218BF836007
:104560004B6B8A6A934204460ED24A6AD35CC0F807
:104570001C350B6803B340F286238B608B6825489B
:10458000C4F8043302B010BD91F82C3013B10123EC
:10459000C361EEE70B6A13F0400F4FF0010316BF43
:1045A000C361436181F82D30E3E7204602F0F9FF53
:1045B00028B1019B013B0193019B002BF5DC91F895
:1045C0002F305BB91348019B002BDBDC0023C4F8C0
:1045D000003505231048C4F80035D3E7D4F8C434B7
:1045E000C4F8C4348BB10D4A0B4813F0010F18BF47
:1045F000104613F0020F02F1010218BF104613F02B
:10460000040F074B18BF1846DDE70348DBE700BF80
:10461000A08601000000AD0B0100AD0B0000AE0B49
:104620000200AE0B13B5334B01930023C0F80431E5
:10463000D0F80421C0F82431D0F82421C0F81C316E
:10464000D0F81C21C0F80831D0F808214B6381F85C
:104650002F308B6A012B044617D10B6A5B0614D4EA
:104660000223C4F800320123236291F82D20022A8C
:1046700018BF23600B688BB140F286238B608B6878
:104680001D48C4F8043302B010BD0123E9E72046F9
:1046900002F087FF28B1019B013B0193019B002B96
:1046A000F5DC91F82F305BB91348019B002BEADC55
:1046B0000023C4F8003505231048C4F80035E2E7AC
:1046C000D4F8C434C4F8C4348BB10D4A0B4813F089
:1046D000010F18BF104613F0020F02F1010218BFBC
:1046E000104613F0040F074B18BF1846DDE70348C8
:1046F000DBE700BFA08601000000AD0B0100AD0BA1
:104700000000AE0B0200AE0B2DE9F84390F80490C8
:104710001C4E07463C2000FB09F035180C4695F866
:104720002E1061BBA96032506B6085F82D1085F8A2
:10473000311085F83010CCB1637B85F8383094F8AF
:104740000E8085F83980B8F1000F0BD12068062360
:1047500003224146FFF7A2FE60680623032241467A
:10476000FFF79CFE21463846FFF7BCFE3C2303FBC7
:1047700009660548012386F82E30BDE8F883034812
:10478000FBE700BFD80E00200000AD0B0C00AD0B06
:10479000036802790521C3F80015044B3C2101FB95
:1047A0000233022283F82E20704700BFD80E00206B
:1047B00003680B4A0179C3F80823D3F8002222F0DA
:1047C0000302C3F800220022C3F80025054B3C2059
:1047D00000FB0133012183F82E1083F8302070474D
:1047E00086420400D80E00202DE9F047314F0479AD
:1047F000D0F800903C2303FB04730D4693F82D3052
:10480000012B944604D10B78012B06D12A4811E0E4
:10481000022B02D10B78012BF8D13C26274BC9F88B
:10482000083306FB047696F830302BB1B368244881
:10483000C9F80433BDE8F0878CF00403C3F38003A8
:1048400086F83030C6F820C0A846B8E80F0006F158
:104850000C0EAEE80F00D8F80030CEF800306B68D0
:10486000B362EB6873626B78C9F888352B78C4EB58
:10487000041A012B07EB8A0A17D09BB9CCF3401C12
:104880003C2303FB04735146484683F82CC0FFF7D2
:1048900047FE3C235C433A193B59002BCAD182F8AE
:1048A0003030C7E74FF0010CEAE751464846FFF7C2
:1048B000B9FEEEE7D80E00200500AD0B86420400DD
:1048C0000B00AD0BF0B5324C324887B0214602F0F8
:1048D00068FE002859D194F82F70FFB9227B931EEF
:1048E000012B1BD8606AA369984217D1E369636200
:1048F0006369A362236A274884F82D70C3F34013C9
:10490000032A84F82C3004D107B0BDE8F040FFF74B
:1049100007BE07B0BDE8F040FFF784BE1E4E0FCEC5
:1049200001AD0FC533682B6047B31A4AD2F8C434BF
:10493000C2F8C43413F0020106D001238DF8003010
:10494000002384F8303007E013F0040209D002237A
:104950008DF8003084F83010D4E90031684698476B
:1049600013E013F0010305D003238DF8003084F821
:104970003020F1E704228DF80020E2E7236A8DF869
:1049800000705B0784F83070E6D507B0F0BD00BF5B
:10499000D80E002000300040E40E0020036803F031
:1049A0001F025B09026004D0012B034818BF0020DE
:1049B00070474FF0A040704700030050F7B506461F
:1049C00002F087FE084602F084FE01A80196FFF778
:1049D000E5FF019B2E4D00EB83000C46D0F800371D
:1049E000019440F20D612B400B43C0F8003701A841
:1049F000FFF7D4FF019B00EB83000127D0F80037BD
:104A00002B400B43C0F80037042002F03CFD092581
:104A100001A80194FFF7C2FF019AD0F81035D340E6
:104A2000DB0715D401A80196FFF7B8FF019B07FA31
:104A300003F3C0F80C35042002F025FD304602F0E7
:104A400048FE013D042002F01EFD15F0FF05DFD1F8
:104A500001A80194FFF7A2FF019A01239340C0F837
:104A60000C35042002F00FFD204602F032FE042037
:104A700002F009FD01A80194FFF790FF019AD0F818
:104A800010350448D34003F00103C01A03B0F0BD51
:104A9000F0F8FCFF0100AD0B08B5124BA822002175
:104AA000184603F08AF8032202610F4942610F4A57
:104AB0008161C2614FF480620262002282624262BE
:104AC000C26201660A49416610218166094902678E
:104AD0000346C266426711F8010D98540132102A4C
:104AE000F9D108BD140F0020FC890000EC11002052
:104AF000DC110020158A00002DE9F84FDFF87C80DA
:104B000098F800308246894616460BB9FFF7C4FF75
:104B1000182707FB0A873D6FD7F86CB05D452BD986
:104B2000BC6E796E641BB44228BF344629444846A3
:104B3000224603F034F8BB6E2544A144361BAB4239
:104B400008BF0025ABEB050B5E4528BF5E4656B19E
:104B5000182303FB0A833246596E4846294403F062
:104B60001EF83444354424B1182303FB0A88C8F8DE
:104B700070502046BDE8F88F0024E3E7140F0020B2
:104B80002DE9F84FDFF87C80182606FB008E00FB2D
:104B900006664644DEF82440DEF828C07368A44563
:104BA00007468946154603EB040022D8DEF820B0FC
:104BB000ABEB040A0AF1FF339A4203D802F0EFFF8D
:104BC0002C440FE063449A4219D852462C4402F018
:104BD000E6FFB4EB0B0405D07068224609EB0A012E
:104BE00002F0DDFF182303FB078301205C62BDE8B0
:104BF000F88F0CF1FF3CACEB040C9445DED20020A6
:104C0000F5E700BF140F0020034B182202FB00330E
:104C10009A6A586A801A7047140F002003484FF0B0
:104C2000FF324FF0FF3300F0F7B900BFF80100206A
:104C3000014800F069BA00BFF801002010B5044631
:104C4000FCF772F90348044A012102F096F9204664
:104C500002F073FD8C7E0000168A00002DE9F843F7
:104C6000044600AF0D46EFF31188202383F312882A
:104C7000BFF36F8F0428294A98BF294B9668117C8F
:104C800094BF53F82030274BE9468AB06A4626483D
:104C9000C2E9073140F201339384244BC2E9050491
:104CA00042F8103F224800234FF43151FCF720FA1C
:104CB000CD4645B1EB69C3F3080323B11D4A1C4837
:104CC000012102F05AF92EB1304602F0D2FD08B1AE
:104CD000037803B91848E9468AB06A46174BD06191
:104CE000C2E9053640F201331384154B42F8103FF8
:104CF00000230F484FF41151FCF7FAF92946CD462D
:104D00002046FFF79BFF88F31188BFF36F8F304673
:104D1000FDF762F9BD46BDE8F88300BFBC0F002077
:104D200004810000258A00003B8A00000500000184
:104D30008C7E0000638A0000338A0000848A0000B1
:104D40000400000138B5094B53F82040013053F8F6
:104D50002050A54200D838BD636823B1204602F038
:104D6000F4FC0834F5E723689847FAE71881000057
:104D700070B52A4B2A4C2B4D012286B003201A70A5
:104D8000FFF7E0FFFCF7F2FC0420FFF7DBFF26460D
:104D9000AE4204F1300410D300F078FC204C224ED7
:104DA000AC4226D300F086FCFBF7F2F91F4A137BD6
:104DB00023F00103137306B070BD54F80C3C059347
:104DC00054F8103C049354F8143C039354F8183CE2
:104DD000029354F81C3C019354F8203C009354E98E
:104DE0000A2354E90C0100F015FA54F8303C5E65D2
:104DF000CDE7D4E90A23B3F1FF3F08BFB2F1FF3F8B
:104E000005D052EA0301206803D102F034FD3034AA
:104E1000C6E73146183000F001FEF8E7EC15002037
:104E2000447E0000447E0000A57900009007002029
:104E300008B50348034A0021121A02F09EFC08BD7F
:104E400030020020F015002070B5002386B001224A
:104E5000CDE90423134E144D01930F22CDE9023204
:104E60001249142303FB005506EBC01604464FF409
:104E7000C07000FB04110E4B00954FF4A072304639
:104E800000F0C8F9737B0B4AEE6023F004037373E0
:104E90004FF4046304FB033313442C746B6006B0BB
:104EA00070BD00BF10070020BC0F00208021002033
:104EB0001578000040190020BFB50020FFF742FF21
:104EC0002D4B83F308882D4D2D4E6B692D4F43F4E8
:104ED00000736B610024E02385F82230EC772C7698
:104EE0006C76AC7685F820406B6A43F4E0236B6205
:104EF00085F82340FCF7F0FFFDF78EF94FF0FF3304
:104F0000AB62EB62FDF762FAFDF7AAF9FBF778FFF7
:104F10001D4BB36040F201129A81C3E91844DC666C
:104F200002F0FFFB0120FFF70DFF0220174DFFF7F6
:104F300009FF00F0DFFB164B75610593012315494E
:104F40000094CDE903434FF480623B46CDE9014430
:104F5000284600F05FF96A7B064622F004022846E4
:104F60006A7302F0C4FC2046FFF76EFF3A463146F2
:104F70002846FDF72FF900BF8021002000ED00E05A
:104F8000BC0F0020714D0000100800209007002089
:104F9000E68A00000023002038B5064C064D0020AC
:104FA000AC4200D338BD204602F0EBFB0028F9DB11
:104FB0001C34F5E7BC010020BC01002073B50C4691
:104FC000EFF31181202585F31288BFF36F8FC56839
:104FD0005DB125602B68C360836901338361002064
:104FE00081F31188BFF36F8F11E052EA030603D1FA
:104FF00025606FF00B00F3E7CDE90023024608308F
:1050000000F090FA18B9034B9B685B69236002B00B
:1050100070BD00BFBC0F00202DE9F34104461746C8
:105020001E46EFF31188202383F31288BFF36F8F9E
:10503000C368334A7BB180689168884219D057EAC7
:10504000060318D188F31188BFF36F8F6FF00F003C
:1050500002B0BDE8F081916891F90E102161013331
:10506000E3609368A36088F31188BFF36F8F00201B
:10507000EEE72169F2E791F90E1090F90E309942AE
:10508000A8BF19466FF07E029142B8BF11468B420D
:105090002DDD02F0CAFB0546CDE90076194822460F
:1050A000414600F03FFA0028E1D0EFF311862023BB
:1050B00083F31288BFF36F8FA068D0B12368216992
:1050C0009C420AD04BB193F90E309942A8BF1946C1
:1050D0006FF07E039942B8BF194602F0A6FB40B1BB
:1050E0000848314600F08EFA6FF00A00B0E700255C
:1050F000D2E7002DF4D186F31188BFF36F8FF3E769
:10510000BC0F0020ED15002038B58368044663B35A
:10511000194A926893422BD1C368012B03D9013BF2
:10512000C360002038BDEFF31185202383F312887C
:10513000BFF36F8F0169806802F077FB204602F0B1
:105140004BFCA06058B190F90E20226100228267CA
:1051500002F0CDFB0948294600F054FAE1E7E0608F
:1051600085F31188BFF36F8FDBE76FF01500D9E788
:105170004FF0FF30D6E700BFBC0F0020ED15002038
:1051800038B50446EFF31185202383F31288BFF36B
:105190006F8F02F021FC48B10022826702F0A7FB6A
:1051A00029460848BDE8384000F02CBAD4E902325C
:1051B0009A4218BF0133A36085F31188BFF36F8F44
:1051C00038BD00BFED15002013B5EFF31181202489
:1051D00084F31288BFF36F8F846844B1013C84600C
:1051E00081F31188BFF36F8F002002B010BD52EA27
:1051F000030406D181F31188BFF36F8F6FF00F00A6
:10520000F3E7CDE900230246014800F08BF9ECE713
:10521000ED1500202DE9F043073285B022F007029A
:105220000E461F461099017300F158037F32C0E902
:1052300016330446002322F03F02042183604173A9
:105240003F2A0F98A073C4E90633E37306F14009BF
:10525000A2F1400805D883F31188BFF36F8F084689
:1052600002DFB51829462046FCF7DAFB07300E9B13
:1052700020F00700A066C4E9189802930D9B0193E3
:105280002D1A0C9B00932A463B4631462046FCF7DC
:105290006FFF00236365044B9B6803B1DB6EE3661D
:1052A000284605B0BDE8F083BC0F0020F0B587B0FC
:1052B00000250595109D04950F9D03950E9D029563
:1052C000DDE912760D9D01950C9D00950446FFF7D2
:1052D000A1FFB6F1FF3F08BFB7F1FF3F05D056EA87
:1052E000070305D1204600F09FF9204607B0F0BD26
:1052F00003493A46334604F1180000F08FFBF4E707
:10530000A579000038B50D4D2B4653F8184F9C4237
:1053100000D004B9EC68AB6838B95A7BD20604D126
:10532000A26912B9DA897F2A05D89C4202D02046A8
:1053300000F0BCFA23466B6138BD00BFBC0F0020F3
:1053400008B590F90D20437B002A014604DA03F0EA
:105350007F03437302F091FA044B9868431A584252
:105360005841BDE80840FFF7CDBF00BFBC0F00208B
:1053700070B490F90D30427B002B29DBD30627D186
:1053800083692BBB134962F07F0242730A4652F8CD
:10539000184F944218BF2346CC6923B9C0E90024B2
:1053A0002060C8610CE090F90E5093F90E60B54290
:1053B0000AD0AE4208DD5A68C0E900321060586079
:1053C00070BC0020FFF79EBF9C42E7D01B68E4E75B
:1053D00070BC7047BC0F00202DE9F041002A427BD1
:1053E0000E460CBF10210821114204460FD141EA9C
:1053F0000203D20918D1437308291BD00120FFF7FB
:1054000081FFBFF35F8F637B23F060036373264BE1
:105410009B68A34241D1EFF30583002B3DD1304679
:10542000BDE8F041FCF7EEBD03F07F03437302F0EB
:1054300024FAE1E7A36813B1204602F026FA04F14A
:10544000180002F006FB04F158074FF00008A56DA4
:10545000BD4200D0A5B9144DAB689C42CED1EFF34C
:105460000583002BCAD00120FFF74CFF0F4BAB6028
:1054700040F201129A810022C3E91822DA66C0E7DD
:10548000284602F002FA05F1180002F0E2FAC5F827
:1054900078802846FFF76CFFD9E786F31188BFF3C1
:1054A0006F8FBDE8F08100BFBC0F00201008002006
:1054B00070B590F90D20437B002A014604DA03F011
:1054C0007F03437302F0D9F94B7B154A63F07F03E6
:1054D00010464B7350F8183FD469834208BF00232D
:1054E00023B9C1E900042160D1610CE091F90E50AB
:1054F00093F90E60B5420ED0AE420CDD5868C1E99A
:105500000030016059609068431A5842BDE870400D
:105510005841FFF7F7BE9C42E3D01B68E0E700BFAD
:10552000BC0F0020F8B5124B0C461146114A986882
:105530001060DDE90676EFF31182202282F31288F3
:10554000BFF36F8F9D68284602F0A9F9B6F1FF3FBF
:1055500008BFB7F1FF3F06D007493A46334605F189
:10556000180000F05BFA2046BDE8F840FCF74ABDA1
:10557000BC0F0020DC0F0020A5790000F8B5044620
:10558000EFF31186202383F31288BFF36F8F437BE1
:10559000DA0649B219D18569BDB903F07F034373B7
:1055A00002F06BF9437B164A817363F07F03437308
:1055B000134653F8180F984218BF0546D0695DB9D5
:1055C000C4E900300460D46111E0A173002086F3C7
:1055D0001188BFF36F8FF8BD95F90E70B9420BD0EB
:1055E0008F4209DD6B68C4E900531C606C600120C8
:1055F000FFF788FE0120EAE7A842E1D02D68DEE748
:10560000BC0F002049B9EFF3058030B9054B5A694A
:105610009B689A4201D0FCF7F5BC81F31188BFF377
:105620006F8F7047BC0F002010B5EFF3118420225C
:1056300082F31288BFF36F8F427B510704D484F347
:105640001188BFF36F8F10BD22F004024273FFF781
:105650008FFE21460248BDE81040FFF7D3BF00BFD0
:10566000ED150020034648B9EFF3058232B9064A2A
:1056700051699268914201D0FCF7C4BC83F3118850
:10568000BFF36F8F704700BFBC0F0020EFF3118195
:10569000202383F31288BFF36F8F054B9A68D37B67
:1056A000013BD37381F31188BFF36F8F704700BF45
:1056B000BC0F002038B5EFF31185202484F3128845
:1056C000BFF36F8F0A4B9A68D37B0133D3730020EB
:1056D000FFF718FE85F31188BFF36F8FEFF311808A
:1056E00084F31288BFF36F8FBDE83840FFF7BABF6D
:1056F000BC0F0020024B03F11802C3E906227047D9
:10570000BC0F0020F8B5EFF31185202383F3128836
:10571000BFF36F8F19498868437B03F07F0343739E
:1057200002F0ABF88B685A7B084662F07F025A732E
:1057300050F8182FCC69824208BF002222B9C3E971
:1057400000042360CB610CE093F90E6092F90E70B7
:10575000BE420ED0B7420CDD5168C3E900210B6098
:1057600053600120FFF7CEFD2846BDE8F840FCF766
:1057700049BCA242E3D01268E0E700BFBC0F0020A2
:1057800050EA01032DE9F04105460E4603D1FFF72B
:10579000B9FF00202BE0831C71F1FF3329DB02F0FD
:1057A0006DF92C18EFF31188202383F31288BFF3CF
:1057B0006F8F124F124BB8681860FFF7C1FDB868C1
:1057C00010492A463346183000F028F9BA68537B4E
:1057D00043F0100353734046FCF714FC02F04EF9FB
:1057E000201A63EB0303012873F10003D1DBBDE84A
:1057F000F0816FF00104241AD4E700BFBC0F002031
:10580000DC0F0020A5790000B1F1FF3F08BFB0F127
:10581000FF3F08B506D10A4B986802F077F84FF0C1
:10582000FF3008BDFFF7ACFF4FF47A7147F6FF7306
:105830000022C0FB0132D80B40EA4240F1E700BF32
:10584000BC0F0020014B9868704700BFBC0F0020C0
:10585000044BC01A044BC0105843044B01221A5485
:10586000704700BF90080020ABAAAAAAED1500203F
:10587000C3897F2B12D80A4B1B6863B1094B90F97F
:105880000E201B689A4209DB437BDB0606D1064BE0
:10589000C31A18BF012303F0010070470023FAE781
:1058A000E40F0020E00F00201007002070B50E4B21
:1058B0000E4C1E7C06EB460304EBC3040546204653
:1058C00002F0C7F80A4B002228469A55FFF7D0FF8E
:1058D00048B1084B08491A68013A2046D317BDE879
:1058E000704000F09BB870BDBC0F002090080020F5
:1058F000ED150020E40F00205158000038B5EFF3FB
:105900001185202383F31288BFF36F8F104B114A48
:105910009C681068A04206D1FFF7C8FF85F3118884
:10592000BFF36F8F38BD00211B7C11600A4AD35C26
:10593000002BF3D02046FFF79BFF0028EED0637BBF
:10594000DB0602D12046FFF7B3FD2046E4E700BFA7
:10595000BC0F0020DC0F0020ED15002008B5064824
:10596000064A0749121A01F00AFFBDE80840054A35
:105970000549064801F003BF000000203002002066
:10598000008B000000000000008B000000000020E1
:10599000034B1B680BB9FDF733BF0020704700BFF6
:1059A000E80F002030B570B10B4B5B6898420AD00D
:1059B000036843B1D3E90421D0E90445121941EB4E
:1059C0000501C3E90421D0E9003213605A600023C5
:1059D000C0E9003330BD00BF0C01002010B50E4BF4
:1059E0001C689C4204D1FFF7D3FF6FF0004010BD4C
:1059F000FFF7CEFF002CF8D0D4E904321B1A62EB7B
:105A0000E072B3F1004F72F10001EEDA002AACBF90
:105A100018460020EBE700BF0C010020B3F1FF3F68
:105A200008BFB2F1FF3FF8B504461D4616465ED0EA
:105A30008160EFF31187202383F31288BFF36F8F08
:105A4000013275F1FF3324DA2E49D1E900206FF0DD
:105A500001039B1A4FF0FF3262EB00009E1B60EBCC
:105A60000500012E70F1000301DA01260020C4E9CF
:105A70000460254ED6F800C07568B44508BF4FF0E5
:105A8000000CBCF1000F0DD1C4E900652C607460FE
:105A90001CE0FFF77DFF013645F10005361845EBA8
:105AA000E070E4E7DCE90420D4E90431934271EBCF
:105AB000000E1DDAD21ADCF8043060EB0100CCE9EC
:105AC0000420C4E900C31C60CCF804403368B3422E
:105AD00009D09C4207D10D4B1C6824B9FFF77EFF0B
