:1000000040270020011F000091710000ED1E00003C
:10001000ED1E0000ED1E0000ED1E000000000000BF
:10002000000000000000000000000000B5200000FB
:10003000ED1E00000000000081200000ED1E000009
:100040004122000041220000412200004122000024
:100050004122000041220000412200004122000014
:100060004122000041220000412200004122000004
:1000700041220000412200004122000041220000F4
:1000800041220000412200004122000041220000E4
:1000900041220000412200004122000041220000D4
:1000A00041220000412200004122000041220000C4
:1000B00041220000412200004122000041220000B4
:1000C00041220000412200004122000041220000A4
:1000D0004122000041220000412200004122000094
:1000E0004122000041220000412200004122000084
:1000F0004122000041220000412200004122000074
:10010000034613F8012B002AFBD1181A0138704757
:100110002DE9F047314C88B002AF94F8008007F029
:10012000A2FB2F4D284607F0AAFB034600283FD02C
:100130002C4A2D48DFF8B4902B4E032106F063FFC4
:1001400040222146002007F071FB58B32378032199
:100150004A46304606F060FF2549002007F076FB4E
:1001600023783B7063787B704FF6FF737B804FF092
:10017000FF337B603B810A233B610223FF603B75B9
:10018000AB681748D3F808A001224A2307F10C01F5
:10019000D04738B1174ACDF800804A2301213046B4
:1001A00006F044FF00214FF4A47005F073FBC7E78D
:1001B00088B0296802AA1048C2E905014FF400710D
:1001C00091830E4942F8101F07484FF4E25100F0A6
:1001D00091FF00201837BD46BDE8F087C41100200C
:1001E000087E000023830000B47F00003D830000F0
:1001F000968400004B830000088300000300000188
:100200002DE9F04F91B08407009302F004030293AC
:10021000C2F3C20303F10103DDF8689003920546BF
:100220000E46059340F0BA81041D30B1072909D864
:100230006FF01B0011B0BDE8F08F01F00706341D10
:10024000C6F10806009B4FF00008591E4FF0040A43
:100250004FF0FF330193CDF810804746C346534615
:100260000DB1009A22600598002800F3E8809848B4
:10027000009A824203D397488242C0F0E080039AFA
:10028000A4EB050E92074FEA9E0000F103810F2FA9
:1002900000F2B180002D00F0058107F140020DEB66
:1002A000020C019A0CF8200C0CF8102C0498013068
:1002B0000490E7E07A285DD84B280ED8472859D813
:1002C00029282DD8252852D054D820287AD0233850
:1002D000D0F1000B4BEB000B74E04C382E2849D8C2
:1002E000DFE800F0704848484848484848484848CF
:1002F0004B484848484848484859484B4B59595931
:10030000704B6D487048184B184848827F4B4848DE
:100310004B487F0000204FF0000B4FF0040A38E0FC
:100320002A38C0B2012202FA00F010EA0E0F49D1B9
:1003300010F0625C2FD110EA020B43D06046013C02
:100340005444B4FBFAF40AFB04F4002D61D0A3EB8F
:10035000050CA444B4453FF66BAF002868D1042BCC
:1003600047D159F8043B2360043404232AE0019A5E
:10037000013A01924FF0000B24E011F8010C6C28B7
:1003800034D111F8023C00206C2B8346C5D14FF0CC
:10039000080A5346D3E709F1070929F0070907348A
:1003A000F9E802AB24F0070435B106982044B042C6
:1003B0003FF63EAFC4E900AB08344FF0000B4FF0FE
:1003C000080A534611F8010F002878D0BBF1000F3E
:1003D0007FF470AF2528F5D1019B013301934FF0D5
:1003E000010B4FF0040AECE7584694E700208346DF
:1003F000A5E7082B02D06FF015001BE709F10709EC
:1004000029F00709F9E80223C4E900230834082386
:10041000D8E768B9042B02D109F10409A4E7082B35
:10042000E9D109F1070929F0070909F10809EDE700
:10043000059A013A059259F8042B009210E7039AA5
:10044000900720D5A4EB050E4FEA9E004FF0010C5B
:10045000BEF5007FCFD20F2FCDD8F5B107F1400206
:100460000DEB020EC0B2019A0EF8200C0EF8102C03
:10047000BCF1000F3FF41AAF60F07F000EF8200CC3
:1004800008F101080137C5F10802043406924FF65D
:10049000DA7E97E74FF0000CDAE7BCF1000F01D0ED
:1004A0000136EFE7029802360028EBD10098CDE93B
:1004B0000631FFF725FEDDE906310644E2E7631B5E
:1004C000B3F5806F97D23DB9A6F10804E018B1E604
:1004D000487D00007C8C0000029A28609B082B70ED
:1004E0009DF81030C2B1EB7085F80280B8F1000FB2
:1004F00005D008A80022C5F1010C97420ED1C5F124
:1005000001030DF120094FF0000A01930DF1300BAA
:10051000574512D1601B8DE66B70E5E710F8013B83
:10052000190608D504EB0C0EB64503F07F033FF621
:100530007FAE04F8013B0132DFE7B8F1000F03D0D2
:1005400099F90020002A17DB029BD3B11AF80B207F
:1005500004F8012B0022019B98182044B0423FF67A
:1005600067AE99F8000004F8010B00990392204649
:1005700007F0C2FB039A14440AF1010A09F10109C8
:10058000C6E799F8002055F822300093029B45F801
:1005900022300098FFF7B4FD421CDCE76FF00D003D
:1005A00048E600BF2DE9F04F97B000AF90F802A0E9
:1005B000D7F880B03B62CBF3C0030446FA62BB615C
:1005C000894641B9457800780AEB800020444D45C2
:1005D00017D8A0EB0409E378FB61BAF1000F02D051
:1005E0001BF0010F16D1FB6953BBFB6A1BB13A6AC2
:1005F0004946204698474D4628465C37BD46BDE8EB
:10060000F08F461C3046FFF77BFD0130304409F186
:100610000109DCE7237862687A62FA6A99007961F5
:1006200004EB8301002A40F000814D460E4601EBA9
:100630000A094FF000084E454CD101EB0A0610E0C4
:100640001BF0020FD1D023789A007A6162687A6237
:10065000FA6A04EB8301002A77D14D4601EB0A06C2
:1006600090461BF0050F0CBF02230123FB62FB69C0
:1006700006EB430A0BF00203BB625645BCD016F8EA
:10068000021B16F8013C54F82390AF4B994502D356
:10069000AE4B994536D3BB69002B40D0786A06F043
:1006A000BAF800283BD0E9468AB06A46A84B5361A5
:1006B0007B6AC2E906314FF400731384A54B42F8FC
:1006C000103FA54800234FF4125100F013FD023DE6
:1006D000CD46D2E716F8013BF96254F82300FFF744
:1006E0000FFDD7F88430F96A01304BB1D7F8883064
:1006F00098453EBFD7F8843023F8180008F1010868
:10070000054498E7BB6923B1786A06F084F80028AD
:10071000C9D11BF0010F05D1FB6AED1AADE7BB6A29
:10072000002BAAD04846FFF7EBFCD7F8843053B132
:10073000D7F8883098453FBFD7F88420431C22F86B
:10074000183008F10108054497E7BAF1000F72D09C
:100750001BF0040672D0D046002607F1480052462E
:100760003B61B96207F0C8FAB96A3B6901EB0A025A
:10077000BA62FA69F9695200FA60BA6A02EB410298
:100780003A610BF00202BA603A69B96A8A4257D1FB
:1007900062787A621BF0020F32440CBF4FEA5801B4
:1007A00000211BF0010FD2B240F09F801BF0040F1C
:1007B00014BF40460020BB616270A070E1703A6ACD
:1007C0007969FB6A20469847051EFFF615AFBB699D
:1007D00023707B6A6370FB69E37041463A6AFB6A87
:1007E00084F802A007F148009847B0F10008C0F271
:1007F000B5807B693A6AA9EB0A01C91AFB68C91A74
:10080000D7E90A0398470028C0F2AA80A84408EB59
:1008100000054FF0000B07F1380AB34567D30021FC
:100820003A6AFB6A08469847E6E656464FF00008E3
:1008300007F1380093E75646D04697E7B04695E76C
:10084000BA6A12F8021BBA6212F8015C3E4A54F806
:100850002500904202D33D4A90421ED3BA6932B17C
:10086000786A7B6005F0D7FF7B6800288CD1BA6876
:1008700002BB08F1280207F1300C08F10100944492
:1008800007F1580252FA80F008F102080CF8101C27
:100890005FFA88F800F8105C76E7BA693AB1786ACE
:1008A0007B6005F0B8FF7B6800287FF46DAF1BF01C
:1008B000010F09D006F1280207F13000711C16184B
:1008C00006F8205CCEB25FE71BF0040F3FF45CAF8C
:1008D00008F1280207F1300008F1010102EB0008DD
:1008E00008F8105C5FFA81F84EE7002063E71BF818
:1008F0000A3087F8373054F82390D7F88430FBB1AA
:1009000033F81B803A6AFB6A012107F137009847E8
:10091000002825DB0544B8F1000F06D14846FFF753
:10092000EFFB00F101081FFA88F83A6AFB6A4146BA
:1009300048469847002813DB05440BF1010B6CE790
:10094000D7F88480DEE700BF487D00007C8C000083
:100950008D830000040000019C7F000045464BE6AB
:10096000054649E6014B1860704700BF00000020B3
:1009700080B505460E461746984604F0A9FF034683
:1009800007F0D8F9DFF81890044649F800304246DD
:1009900030463946A84754F8090001F01FFB00BF54
:1009A000080000002DE9F047058B04462807904613
:1009B00011D4022905F0070540F0CC80204606F04E
:1009C000B0F978B10138218B042811D8DFE800F0A4
:1009D000C2106D85950001290CBF45F0100545F04A
:1009E0002005258388F31188BFF36F8FBDE8F0875A
:1009F00001F0070AAA4500F0A5800027B9463E4647
:100A0000A368002B00F0BC8041F00801218388F32B
:100A10001188BFF36F8FA168002900F0BA800D68BC
:100A2000002900F0B680D1F80480334652462046B3
:100A3000C047002D76D02B6829461D46F0E701F00F
:100A400007035A1F012A1BD8002221F00701062B99
:100A5000276889B2C4E9002209D13B4603E0628BD2
:100A6000013262831B68002BF9D141F0020121831E
:100A7000204606F056F900287AD041F0200176E0B1
:100A8000042B0AD121F0070189B22183204606F008
:100A900048F910B141F020012183218B01F0070AB0
:100AA000AA454FD00027B946AAE7236921F00701DC
:100AB00041F00601062DD3F8009021832DD1B9F124
:100AC000000F3FD041F00801218388F31188BFF364
:100AD0006F8F3A492046C84729E021F00701236972
:100AE00041F0040189B2042DD3F804902183E6D0AB
:100AF00000273E464FF0040A82E721F007012369F0
:100B000041F0050189B2052DD3F808902183D6D094
:100B100000273E464FF0050A72E700273E464FF099
:100B2000060A6DE72B4687E7B9F1000FD1D1EFF345
:100B30001188202383F31288BFF36F8F238B23F058
:100B400008032383258BEA062ED525F01003238383
:100B500005F007056669218B002EBFF670AF0023F4
:100B60002768C4E9003321F0070141F00101218326
:100B7000218B01F0070AAA454FF000097FF440AF2E
:100B8000002F9CD041F00801218388F31188BFF326
:100B90006F8F002FC8D03D683946334652462046F5
:100BA00006F0EBF82F46F4E7AB067FF51BAF25F018
:100BB0002003238305F0070500E700BFA76D0000B1
:100BC0002DE9F047DFF85880044607464FF0010949
:100BD00014B93846BDE8F08794FAA4F5B5FA85F55E
:100BE00009FA05F32E0108EB05156FEA030A24EA5A
:100BF00003042B7B002BEBD058F806301B694BB954
:100C00004644042273682846196807EA0A0700F078
:100C10005DFADDE7284698470028D9D1F0E700BF04
:100C2000FC7F000030B51049104889B0002206F062
:100C3000D8FF0F4D0F4900220023CDE906230024E1
:100C40000E23CDE90334CDE901440B4B00944FF45E
:100C50004072284604F070FB0849284606F0B3FEAF
:100C6000204609B030BD00BF810C0000B80600204E
:100C70003002002040160020710F00004184000067
:100C8000014804F0C3BA00BF200200202DE9F0475C
:100C900080461F480F4606F030F90646002830D03F
:100CA00000252846BDE8F087237B6BB12368DB680D
:100CB0000BB12046984723681B69D3B963680422A7
:100CC0001968204600F002FA013610344C45EBD387
:100CD000B8F1000FE5D0002DE2D02846FFF770FFF5
:100CE0000546002FF7D000214FF4A47004F0D2FD88
:100CF000F1E7204698470028E0D00AFA06F31D43A2
:100D0000E2E7044CDFF8109005464FF0010ADDE7FA
:100D1000C0080020FC7F00001C800000014B53F83D
:100D2000200070473C80000008B5034608462BB100
:100D3000044A136000F06AFC002008BD6FF0150043
:100D4000FBE700BF0400002010B5044C237813B962
:100D5000034804F05BFA0123237010BD0412002045
:100D60002002002010B50446084806F0C6F85CB121
:100D7000BFF35B8F064B53E8001F013943E80012B5
:100D8000002AF8D1BFF35B8F10BD00BFB808002068
:100D9000BC0800200020064BBFF35B8F014653E8E0
:100DA000000F43E80012002AF9D1BFF35B8F7047B0
:100DB000B808002070B5FFF7EDFF084C084E054657
:100DC000B44200D370BD63685B792BB123685B6864
:100DD00013B12946204698471034F1E7FC7F000004
:100DE0001C80000010B5044C0449204605F041FE6B
:100DF000034B1C6010BD00BF800100202880000054
:100E0000B0080020084A094808B500231370084AB2
:100E10001360084A4FF400411360FFF785FFBDE8F7
:100E20000840FFF7DFBF00BF05120020F76E00008B
:100E3000B8080020BC080020014600220148002319
:100E400005F038BE80010020014805F0CEBE00BF8D
:100E500080010020024B0146186805F01ABF00BF50
:100E6000B0080020014805F04FBF00BF80010020FE
:100E700070B5284B187800284BD0FFF7E5FF0546E2
:100E800090B1BFF35B8F244B53E8001F013943E857
:100E90000012002AF8D1BFF35B8F204C204EB442E1
:100EA0002DD32846FFF7D6FF1E4B1F4C1B68002B87
:100EB00019DD06F094FE4FF47A72A0FB020302FBE8
:100EC0000131C30BD4E9002043EA41439B1A4FEAA6
:100ED000D13140F2E93261EB0001934271F100013E
:100EE00001D3FFF767FFD4E9003213F57A7342F1BB
:100EF0000002C4E90032BDE87040FFF7B3BF636889
:100F00005B7923B1236829461B6820469847103433
:100F1000C5E770BD04120020BC080020FC7F000063
:100F20001C800000B8080020B006002070B50D4DF0
:100F3000297861B90120FFF7A9FE0B4C0B4EB44292
:100F400006D3FFF795FF0028FBD101232B7070BD5E
:100F500063685B791BB1236820469B68984710340F
:100F6000EDE700BF05120020FC7F00001C800000A0
:100F700000212DE9F0470846FFF788FE044658B3E4
:100F800040F267684FF0000906F0D4FE1B4B1C4A84
:100F90001B58136033B11B4B1B68092B02DD1A4829
:100FA00004F034F9194FDFF860A0002544B1204661
:100FB000FFF706FE044618B94FF0FF384FF0FF392F
:100FC000FFF756FF064628B9B5B942464B4650468C
:100FD00004F040F93546E9E74FF0FF384FF0FF39AC
:100FE000D2E72B689B691BB100221146284698471F
:100FF0001035BD42F5D3E8E7054DFAE708000000DB
:10100000B4080020BC080020200200201C80000042
:10101000FC7F000013B5184805F06FFF174B1B78D5
:1010200073B1EFF31184202383F31288BFF36F8F22
:10103000FFF71EFF84F31188BFF36F8F02B010BD5E
:101040000F4B1B68002BF9D050B900220023CDE9CB
:1010500000230C484FF40042002304F08FFEEDE71C
:101060000928EBD1074806F0C8FD074802B0BDE8E3
:10107000104004F0CBB800BFBC08002005120020CF
:10108000B4080020B80600202002002010B5064B4E
:101090001B68044698472146A060044805F086FD79
:1010A000BDE81040FFF7B6BF04000020800100201B
:1010B000044A054B9B1AB1EBD30F34BF52F83100F1
:1010C000002070479C7F0000FC7F0000084BC31A83
:1010D00010B41B1144680133237143689A7143684B
:1010E0001960436801225A7110BCFFF72DBE00BF82
:1010F000FC7F00002DE9F04F8FB004AFC1F34A2808
:10110000B8600D4691467B600C0DB8F1000F63D0BE
:10111000002607F114034FF0040B4FF00A0AC7F83A
:101120000C80C7E907667E620193CDF808B0CDF860
:1011300000A007F11C03F96832464846FFF732FA6F
:10114000B0F5006F03461CD36C468AB0D9F8041082
:1011500004AB2648C3E9050140F2FF71D9611A4684
:101160004FF400711984224B42F8103F2148334656
:101170004FF41251FFF7BEFFA5462C37BD46BDE820
:10118000F08FC0F30A0804F11700184420F007009C
:1011900080083B60FFF750FE68F35325044690B18A
:1011A0003B68154AC7E9083600F1100107F114033E
:1011B000F961CDE900A3CDF808B0F96807F11C0387
:1011C0004846FFF7EFF968F353257B68B9682A466C
:1011D000204605F0C8FED0E704F1170020F0070014
:1011E0008008FFF729FE0446EDE700BF56840000A3
:1011F00004000001C47F00003B6F00002DE9F04FA8
:1012000087B0DDE91269DDE9105A04460F469346BE
:101210009846A6B31021CDF80090334652460020E0
:10122000CDF81490FEF7ECFF014605F117000844D5
:10123000144B039104F007040BF0070BE40020F0BB
:10124000070003EA412344EA8B1480081C43FFF79C
:10125000F3FD44EA0554054640B13EB10399CDF88B
:101260000090334652461030FEF7CAFF43462246EE
:101270003946284607B0BDE8F04F05F074BE314648
:10128000D3E700BF00FE0F00406820B1034BC01A37
:1012900040F3CF0070474FF0FF3070479C7F000055
:1012A0000EB403B503AB014653F8042B0448019375
:1012B00001F060F902B05DF804EB03B0704700BFC5
:1012C0007B700000CA0605D48B064CBF0249034957
:1012D000FFF7E6BF704700BF9684000095840000CA
:1012E0002DE9F04F89B09B46149B06939DF84CA0C6
:1012F000159B0593169B179E049304460D46904636
:10130000BAF1000F00F09D8006F48073079305F09A
:1013100012FE06F00209024600283ED091492046FE
:10132000FFF7BEFF0746B9F1000F08D016F0440FD3
:1013300035D18D492A462046FFF7B2FF074406F013
:10134000010353B1894B8A4953F82A20894B20461F
:10135000002A08BF1A46FFF7A3FF06F48073002B8C
:1013600049D006F00803002B63D1B8F1000F66D016
:10137000814942462046FFF793FF0546069B3D44C0
:10138000002B6DD1049B002B73D1F30700F1E48097
:1013900031462046FFF796FFD8E00746C3E7774B74
:1013A00018680028CAD0764B4FF47A791B68B5FBD1
:1013B000F3F54FF46161B5FBF0F300FB135509FB46
:1013C00005F54FF03C0CB3FBF1F201FB1231B5FB1C
:1013D000F0FEB1FBFCF300FB1E550CFB131109FBE7
:1013E00005F50091B5FBF0F56649CDE901E520462C
:1013F000FFF756FFA2E706F00803EBB1624B634923
:1014000053F82A202046FFF74BFF0546B8F1000F9E
:1014100005D0594942462046FFF742FF0544BBF13B
:10142000000FABD05A495A462046FFF739FF054412
:10143000A4E74FF0000BE1E706F00805E6E74546B4
:101440009CE7BBF1010F069B06D1002B64D1049BE6
:10145000002B7BD000250CE0002BF8D04D485CE041
:101460004D48069B4D49224605F0A4F9049B002BEC
:1014700068D0DFF82C81DFF82C91049F3146102FC3
:10148000204628BF1027FFF71DFF4FF0000B5D45DA
:1014900045DC059B49461A782046FFF701FF4FF0CF
:1014A000010B1BF0070F03D141462046FFF7F8FE62
:1014B0005F453BD9059B494613F80B202046FFF7B3
:1014C000EFFE0BF1010BBBF1100FEAD136492046BC
:1014D0004FF0000BFFF7E4FE5A46059B9A5CA2F121
:1014E00020015F2928BF2E2230492046FFF7D8FE71
:1014F0000BF1010BBBF1100F1DD01BF0070F03D137
:1015000041462046FFF7CCFE5F455A46E5D84146A6
:101510002046FFF7C5FEEBE71F485546A1E74146C9
:101520002046FFF7BDFE0BF1010BB0E72049204636
:10153000FFF7B6FEC5E7059B3B440593049BDB1B09
:1015400004939AD1BAF1000F7FF41FAF204609B07F
:10155000BDE8F04F05F084BD064A05492046FFF777
:101560009FFE15E79D840000A18400004C800000D0
:10157000DB8A000098840000C6840000C8080020B0
:10158000C4080020AA84000060800000CA84000013
:10159000D0840000B17000007B7000007525000051
:1015A000DD840000D5840000DF8400004883000053
:1015B000DB84000073B542F20F738B4228BF0B46E9
:1015C00005680F4A04460521684604F001FE636879
:1015D0000C495B6806460B22284605F033FD63681C
:1015E0003246694628465B6805F02CFD636806496B
:1015F0005B681B22284605F025FD02B070BD00BFC8
:10160000B4860000FD840000E1840000074A002148
:101610000123904206D8064A01B901231360054B05
:101620001860704740085B000121F2E740420F005C
:10163000C4080020C8080020014B01221A7070471E
:1016400006120020014B002019607047E0080020BE
:10165000024B034801221A7005F002BD0712002058
:10166000908000000148FFF7A5BF00BF90800000F8
:1016700010B5064B18680C46FFF750FB2146034691
:10168000BDE8104002480F22184700BFE0080020C4
:101690009080000010B9074B18707047064B1B78FC
:1016A0001BB141F2883006F0E5B8A420002104F017
:1016B000F1B800BF06120020071200202DE9F84300
:1016C000DFF874901D4F80460E46042499F80050B0
:1016D00095B903F0E9FA28463246414603F052FA3A
:1016E000054603F0EBFAE5B101233B7099F80030B1
:1016F00073B93046BDE8F88332464146002003F016
:1017000041FA0546EFE72046FFF7C4FF651E2C4669
:10171000002003F0BFFA0028EBD03B78002BF2D179
:10172000E7E73B78002BE4D0013C2046FFF7B2FF0F
:101730003B78002BCAD1DCE70712002006120020FC
:10174000F8B5074F0D4604464618B44201D1284665
:10175000F8BD14F8011BBB6801485B689847F4E7C3
:10176000F47D0000014B036000207047D48000002E
:1017700008B5044805F076F8BDE80840024805F0D1
:1017800071B800BF5385000088850000014804F04F
:1017900077BB00BFD480000038B5044618B90F4BA2
:1017A0000F485B6898476168B1F5683F10D0B1F5A4
:1017B000680F0DD00B4DA9420AD011F46861206862
:1017C00007D00146084806F0ADF8002323606560A5
:1017D00038BD142206F09EFAF9E700BF140100207C
:1017E000B68500002C5F5CA9080E002008B520B368
:1017F0004368B3F5683F10D101220368BFF35B8FE4
:1018000053E8001F002903D143E800200028F7D146
:10181000BFF35B8F0DD1002008BD094A93420AD067
:1018200000684FF0FF324FF0FF3303F03BFC00281D
:10183000F1D00448F0E70448EEE76FF4E040EBE74E
:101840002C5F5CA9E98FFFFFEA8FFFFF08B5D8B1D5
:101850004368B3F5683F10D100220368BFF35B8F84
:1018600053E8001F012903D143E800200028F7D1E5
:10187000BFF35B8F0BD1002008BD074A934208D00D
:10188000006803F087FCF6E76FF4E040F4E70348F4
:10189000F2E70348F0E700BF2C5F5CA9E98FFFFF88
:1018A000EA8FFFFF10B5044618B91D4B1D485B6851
:1018B00098476368B3F5683F2FD0B3F5680F2CD015
:1018C000194A934219D1236803BB18484FF0FF32DD
:1018D0004FF0FF33214603F0B7FB08B923681BB96B
:1018E0000F4B13485B68984720681422002106F0CC
:1018F00011FA4FF46863636008E0B3F5683F0DD8F0
:101900003A2B03D040F6BA629342DED1206806F04B
:1019100041F8636843F03A03636010BD054AF3E79A
:1019200014010020B68500002C5F5CA9080E002081
:10193000DC8500003A00003A08B506490648402315
:10194000142205F0E1FFBDE808400449044804F012
:1019500009BB00BF08090020080E0020DC80000041
:10196000F08000002DE9F047064600AF0C46002944
:1019700036D0E9468AB0D1E90012A3686D46214805
:10198000A8464FF0050AC5E90501C5E9072348F84F
:1019900010AF1D48424600234FF42151FFF7AAFB28
:1019A000CD46D4E903126369AD461848C5F810A0C6
:1019B000C5E90501C5E907231348002342464FF452
:1019C0002151FFF797FBCD46E369114A0E480121EB
:1019D00005F022FBA3690F4A0B48012105F01CFB0F
:1019E000012E07D1EFF305830B4A0748103B314620
:1019F00005F012FB2146304603F076F9BD46BDE8FE
:101A0000F08700BF09860000E47F000038860000F0
:101A10006786000076860000A486000030BFFFF7CE
:101A2000FDBF00BF2DE9F0410B4EDFF8308006EB23
:101A30000807CC1B054632460949204606F05CF9EA
:101A4000A01942460021083C06F064F92C6707F112
:101A50000800BDE8F08100BF0000000004000000A5
:101A60001C800000074A936893F90E10002907DBD9
:101A7000526993421FBF044A536843F08053536036
:101A8000704700BFBC0F002000ED00E070B5294C8E
:101A900006460D462848294905F081FBA36AD9046A
:101AA0003CD52548264905F07AFB1720A36A1A057C
:101AB00004D52148234905F072FB18201D4CA36A68
:101AC0009B0512D51C48204905F069FBA36BA26A4F
:101AD000100409D51D4A1848012105F09DFA1EB1D0
:101AE000A36A23F40043A3621920124CA36A590588
:101AF00004D51148164905F052FB1A20A36ADA05ED
:101B00000ED50D48134905F04AFB1B20094A936A7C
:101B100043F47F43936200232B7070BD1620C5E70A
:101B2000A36A9B04F2D504480B4905F038FB1C203E
:101B3000ECE700BF00ED00E0E47F0000B7860000A6
:101B4000CD860000DE860000F18600000A870000D6
:101B50001F8700003A8700005287000010B5204C14
:101B60002049214805F01BFBA36A990136D51E4880
:101B70001E4905F014FB1E20A36ADA0104D51A4899
:101B80001B4905F00CFB1F20154CA36A1B0304D551
:101B90001548184905F003FB2120A36A590304D511
:101BA0001148154905F0FBFA22200D4CA36A9A034F
:101BB00004D50D48114905F0F2FA2320A36ADB038E
:101BC00004D509480E4905F0EAFA2420044A936A2C
:101BD0006FEA03436FEA1343936210BD1D20CBE706
:101BE00000ED00E081870000E47F0000998700009D
:101BF000AC870000C6870000E48700000988000069
:101C0000238800002DE9F843364D80468946364842
:101C10003649174605F0C3FAAB6ADE0627D53449C4
:101C2000314805F0BCFA1124AB6A1D0704D53149CF
:101C30002D4805F0B4FA12242A4DAB6A980718D53E
:101C40002D49294805F0ABFA6E6BAB6A190646D5EB
:101C50002A4A25483346012105F0DEF9B9F1000F83
:101C600003D0AB6A23F08003AB62132403E010249B
:101C7000DAE76FF015061B4DAB6ADA0704D5204989
:101C8000194805F08CFA1424AB6A9B0604D51D494B
:101C9000154805F084FA1524124B9A6AD50602D429
:101CA0009A6A90070AD55B68190507D54146304600
:101CB00000F07CFA10B180F309880224094B9A6A7B
:101CC000920642BF5A6A22F400525A629A6A42F05D
:101CD000FF029A6200233B702046BDE8F8836FF054
:101CE0001506C2E700ED00E0E47F00004E8800002A
:101CF00064880000DE86000097880000AF8800003E
:101D0000C5880000528700002DE9F041664B8AB07B
:101D1000D3F8048000AF0446C8F30805002686F314
:101D20001188BFF36F8F02F07F43B3F17F4F07D16C
:101D300002F00C03082B12D15C495D4805F02FFA24
:101D4000002634460023FB71EB1E092B00F28A802B
:101D5000DFE803F00A80837D8888888888861007FA
:101D60004CBF0C460126EDE7524951484E4D05F057
:101D700016FA0023FB71EB6A9A0705D54E494C48C9
:101D800005F00DFA002333E0EB6A002B01DA4B4932
:101D9000F5E7EB6A5B00F5D54949454805F0FFF9E1
:101DA0006B69A26943F480736B61BFF34F8FBFF31C
:101DB0006F8F6B6932F8022C23F480736B61BFF371
:101DC0004F8FBFF36F8F4DF602739A4209D0AB6A03
:101DD000DBB27BB3FA1D01212046FFF713FF034658
:101DE00006E02368374A3248012105F015F92368D7
:101DF000FA79DAB907F1080504F1200C2068616866
:101E00002A4603C2083464451546F7D17A6A002E83
:101E100044D0C2F3080121B96FEA52226FEA42228C
:101E20007A6207F108011846FFF79CFD2837BD4686
:101E3000BDE8F081AB6A13F47F4F04D0F91D012097
:101E4000FFF724FECBE7AB6AB3F5803F9AD3FFF7E9
:101E500085FEC4E7FA1D0021BEE7F91D0020EFE76B
:101E600019498CE7194A1A4B18F4F87FE8468AB0EA
:101E700018BF13466A461749C2E905134FF40073A9
:101E80001384103D144BD56142F8103F08480023DD
:101E90004FF41151FFF72EF9C54673E722F4FF7294
:101EA00022F00102BCE700BF00ED00E01289000053
:101EB000E47F00003D89000054890000758900001E
:101EC00083890000A2890000BE890000F988000013
:101ED000E4880000E289000004000001024A53691E
:101EE00043F010035361704700ED00E0EFF308800A
:101EF000EFF3098101B57246FFF706FF01BD00BF90
:101F0000002080F31488BFF36F8F01F09FFC002046
:101F10000D490860BFF34F8F0C4880F3088800F02C
:101F20002BF8202080F3118809484FF404614018F1
:101F300080F30988EFF314800221084380F31488AA
:101F4000BFF36F8F00F0FAF894ED00E04027002017
:101F5000801900200749D1F890200023C2F30722FE
:101F60001846934200DB7047C1F89830C1F8A000D2
:101F70000133F6E700ED00E008B572B6002383F305
:101F80001388FFF7E7FF144B4FF0FF32C3F88020B0
:101F9000C3F88420C3F88820C3F88C20C3F89020AD
:101FA000C3F89420C3F89820C3F89C20C3F880217C
:101FB000C3F88421C3F88821C3F88C21C3F8902189
:101FC000C3F89421C3F89821C3F89C2162B6BFF3EB
:101FD0004F8FBFF36F8F08BD00E100E0084B9B6897
:101FE00083420BD1EFF3058343B1064B5A6842F0AD
:101FF00080525A605A6A22F400425A6205F0B4BD17
:10200000BC0F002000ED00E0094A93686FF00A0160
:102010009967084958674B6843F080534B60002329
:1020200083F31188BFF36F8F9368986F704700BF79
:10203000BC0F002000ED00E010B50446EFF3118363
:10204000202383F31288BFF36F8F0A4B586998607F
:10205000094B4FF000625A60084B026F1A60002271
:10206000436F426783F31188BFF36F8F00F006F967
:10207000204610BDBC0F002000ED00E0240E002023
:102080000B498A684FF030001044EFF3098C80E868
:10209000F01F74467046FFF7CFFFA64604498A68D2
:1020A00002F1300090E8F01F8CF3098870470000BF
:1020B000BC0F00201EF0040F0CBFEFF30880EFF3FD
:1020C0000980816911F8021C0229FFD001B505F0D1
:1020D0005BF801BD40B2002807DB044A4109012337
:1020E00000F01F00834042F82130704700E100E01B
:1020F000054B420900F01F0053F82220012303FA88
:1021000000F01040704700BF00E100E040B200283E
:10211000A8BF00F1604001F10101B8BF064B4FEAD2
:102120004111ACBF00F5614000F00F00C9B2B4BF6F
:10213000195480F80013704714ED00E00B4A08B5FD
:102140000B4B22F07F029A60BFF34F8FBFF36F8F6C
:10215000D3F8882022F47002C3F8882002F0AEFE83
:1021600003F042FC00F060F802F0ECFE000000001A
:1021700000ED00E042F8203C009B42F81C3C0A497C
:10218000019B42F8183C029B42F8143C21F00101EB
:102190004FF0807342F8043C42F8081C0023203AB8
:1021A00002654367704700BF71090000094A034692
:1021B000906870B113F1160F006E05D0A0F14002C7
:1021C0009A4205D8834203D2814228BF002070473B
:1021D00000207047BC0F002008B515460B4A0C4B79
:1021E0009060026F1A600E4600F048F82C4686F3A5
:1021F00009884FF00000074B984720464FF0000138
:102200004FF000024FF00003034C2047BC0F0020AA
:10221000240E0020AF71000071090000014B102254
:102220001A61704700ED00E0044800232021C21825
:102230000133302B82F80013F9D1704700E100E040
:1022400008B5EFF30583064A103B02EBC30152F8D1
:10225000330049688847BDE80840FFF703BC00BF6A
:102260001C7E0000024B034A0348012100F08AB89B
:10227000000004200000002000810000026E054BD9
:10228000403A1A60044A4021C3E90112184601216C
:1022900000F082B8280E002000000B1508B5034698
:1022A0001048D0F89020C2F30722013A934207D990
:1022B0000D480E4A012104F0AFFE6FF0150008BD75
:1022C000C0F898300A6822F01F021A4342F0100248
:1022D000C0F89C208A6842F00102C0F8A02018468D
:1022E000EDE700BF00ED00E0DC7F0000F9890000B1
:1022F000F0B50E4685B01F4604460025B5420DDAFE
:10230000606810B397B1431E18420AD0104A1148B2
:102310002B46012104F080FE6FF01502104605B037
:10232000F0BD1F28F2D921680B42EFD12368019339
:1023300004F060FFA36801A90343D0B20393FFF741
:10234000ADFF10F1160FE7D0421C01350C34D5E774
:102350001F8A0000DC7F0000044B0522C3F8942094
:10236000BFF34F8FBFF36F8F704700BF00ED00E0EA
:10237000BFF35F8F024B0022C3F89420704700BF69
:1023800000ED00E010B5034C01232278FFF7B0FF09
:10239000207010BD1912002008B50B4A00231278D6
:1023A000FFF7A6FF10F1160F07D0084A0021D2F858
:1023B0009030C3F30723984200DB08BDC2F89800B1
:1023C000C2F8A0100130F2E71912002000ED00E081
:1023D0002DE9F04357485849D0F890300D68C3F3C1
:1023E00007239D4285B000F2A180FFF7C1FF496835
:1023F0000022954201F10C011AD1504C504F25702A
:102400006846FFF7AFF9DFF83C81DFF83C910646FC
:102410000025AE421FD1237846490020D1F89020F4
:10242000C2F3072293427BDBFFF796FF00204CE0CC
:10243000C0F8982051F80C3C23F01F03134343F0DD
:102440001003C0F89C3051F8043C43F00103C0F87D
:10245000A0300132CDE7009800EB05114FEA051CD2
:10246000CB683B40B3F5000F44D00AD8B3F5001F4A
:102470002ED0B3F5800F34D0B3F5801F10D00135C6
:10248000C7E7B3F1807F3ED0B3F1007FF7D150F8BA
:102490000C3088684A6804F0ADFE40F4802009E002
:1024A00050F80C3088684A6804F0A4FE40F0885068
:1024B00040F43020039001A92078CDE90123FFF7F3
:1024C000EDFE002828DA6FF0150005B0BDE8F083B6
:1024D00050F80C3088684A6804F08CFE40EA080026
:1024E000E8E750F80C3088684A6804F083FE40EA58
:1024F0000900DFE750F80C3088684A6804F07AFE7B
:1025000040F08270D6E750F80C3088684A6804F0D2
:1025100071FE40F08870CDE7237801332370AEE779
:10252000C1F89830C1F8A000013377E74FF0FF30D1
:10253000CBE700BF00ED00E00C8100001912002085
:102540000000F0FF000008110000020708B5024B70
:102550001B689847002008BD340E0020034B044A36
:102560001860937843F0020393707047340E002094
:1025700030000020F0B587B007460E461446002113
:10258000102268461D4605F0C5FB02238DF8023077
:102590002A46054B019321466846CDE9047603F0AF
:1025A00043FE07B0F0BD00BF1572000008B5064934
:1025B000064821F00701C1F1005202F5802204F023
:1025C000BCF8002008BD00BF87270020380E00207F
:1025D0000E4A0123C2F840354FF080424FF080513F
:1025E000C2F87835D1F83001082808D1D1F8341173
:1025F000052904D80648415C09B1C2F838364FF0C5
:1026000080430122C3F880250020704700E001408C
:10261000518A000020B1034B800143F001031847A9
:10262000704700BF20800000084B70B5C31A0D46EC
:1026300007499B10044659430648402204F0FEFD1A
:102640002B4601462046BDE870401847580E002032
:10265000B76DDBB6B87D000073B50C4C0C4A402357
:10266000041B00930D460B460A49A410614306461D
:10267000094804F00EFE011E05DA30462B4602B072
:10268000BDE87040184702B070BD00BF580E002072
:10269000FB720000B76DDBB6B87D000010B5EFF33C
:1026A0001184202383F31288BFF36F8F074A1368C6
:1026B00023F00201DB07116002D4012004F041FF86
:1026C00084F31188BFF36F8F10BD00BFA80E0020E8
:1026D000002270B5012104461046FFF717FD0F4890
:1026E00001F03EFA0E4B984215D101F049FA2669E5
:1026F0000C49304604F064FB00280BDB01253564EF
:102700002469084904F11C0004F05AFB002801DB8D
:10271000E564002070BD6FF00400FBE72128000095
:102720000000AD0B2C8100001FB500220123CDE974
:102730000223094ACDF800D06B46CDF804D004F04E
:10274000D5FD002805DB4FF480420023684602F0E7
:1027500081FD05B05DF804FB1973000030B4104B27
:102760000C2202FB003301460020D3E90E5298638D
:10277000EFF31180202484F31288BFF36F8F1C6C59
:1027800004F0C00444F002041C6480F31188BFF319
:102790006F8F1DB12B46034830BC184730BC7047C3
:1027A000580E0020B87D000010B4EFF311822023F2
:1027B00083F31288BFF36F8F1748016841F002045A
:1027C0000460C80707D482F31188BFF36F8F01201C
:1027D00010BC01F0E7B94FF08041D1F80C04D1F8FA
:1027E0000C14C907EFD5EFF3118083F31288BFF300
:1027F0006F8F0A490B6C03F0C00343F002030B64B4
:1028000080F31188BFF36F8F82F31188BFF36F8F4E
:10281000002010BCFFF7A2BFA80E0020580E002019
:1028200010B1012804D07047034B1B6C5B0701D12A
:10283000FFF794BF704700BF580E00202DE9F0410C
:102840003849BFF35B8F0746012251E8003F41E85A
:1028500000200028F9D1BFF35B8F33B932493348E8
:102860004B60CB608A6004F0BEFA7B1E012B2BD834
:10287000012F07D14FF08043D3F81C3403F003033A
:10288000012B21D005F099F80546F8B9284B1B78A3
:10289000E3B14FF080430222C3F808230646DFF875
:1028A00094804FF08044D4F81824D4F81834D2031C
:1028B00015D503F00303012B01D0012F0FD155B320
:1028C00086F31188BFF36F8FBDE8F081EFF31186B7
:1028D000202383F31288BFF36F8F0125DFE7ADB1AB
:1028E000304604F078FCD4F81835002BDBD1D4F84E
:1028F0000421002AD7D0C4F80431D4F804310123CC
:10290000C4F81835C8F88031A360CCE70021212035
:1029100002F0C0FFE7E74FF080430222C3F8042330
:10292000D2E700BF540E0020440E0020740E002099
:102930002C16002000E100E008B5074804F09FFFD6
:1029400038B10648FFF70AFE0448FEF70BF80020EE
:1029500008BD6FF01200FBE7F47D00006129000064
:102960000A2838B5074D044604D1AB680D215B68D1
:1029700028469847AB6803485B68E1B29847204611
:1029800038BD00BFF47D0000F0B54068057B01F064
:102990001F0444EA4514056987B0002D64D0B2F5E0
:1029A000001F00F1100506D12146284604F049FE1B
:1029B000002007B0F0BD01AE0027B2F5800F0197EF
:1029C000776039D1B3F1007F14BF052304238DF85C
:1029D00004300023CDE904630393836823FA01F1F3
:1029E00011F001011AD1B2F1A07F17D104F01F0339
:1029F000620903F5E0732AD0012A3BD11F4A52F83D
:102A00002330DB070AD40DF103063246214628465F
:102A100001F0A6FB1A4B98421CD0029603AA21464D
:102A2000284601F05FFA174B984220D10122214637
:102A3000284601F0F9FBBBE7B3F1C06F05D0B3F155
:102A4000007F14BF01230223C1E70323BFE74FF038
:102A5000A042D4E73146284601F0E0FB094B9842FA
:102A6000DBD06FF00B00A4E76FF08500A1E76FF0FB
:102A700015009EE751F82330FFDE00BF0003005031
:102A80000400AD0B0000AD0B38B545682B69B3B140
:102A90001035284601F0B2FB044680B901462846AD
:102AA00001F078FB084B98420BD108492246284692
:102AB00001F050FB224605210620FFF727FB0020EE
:102AC00038BD6FF00400FBE70000AD0BD12A000019
:102AD000420970B5034602D0012A17D070BD0D4ED1
:102AE000326951680029F9D003F01F0301250C68F1
:102AF0009D400029F2D08A682A4002D04B683046B7
:102B000098472CB1236821461C46F2E7024EE7E7BE
:102B10002346F8E7E07D0000CC7D00002DE9F0437E
:102B2000466840F20635D006337B87B002EA0505D9
:102B300054BFC2F34010032001F01F07B5F5837F97
:102B4000144647EA43178DF8030044D00FD8062DEA
:102B500018D007D8B5B1022D3FD06FF0150007B0DF
:102B6000BDE8F083B5F5807FF7D101250AE040F29A
:102B70000222954233D0B5F5407F32D0B5F5007FC3
:102B8000EBD1022522032ED5726801238B40C2F8B7
:102B90000835326992BB07F01F037F092BD0012F44
:102BA00079D13F4A02EB830284F48033D2F80017D4
:102BB000C3F30043C4F3404444EA430421F4E16115
:102BC00044EA800421F0070144EA05230B43C2F8DC
:102BD00000370020C3E70725D4E70425D2E7052501
:102BE000D0E70325CEE7630341BF012372688B4022
:102BF000C2F80C35CDE74FF0A042D3E710360DF107
:102C000002023946304601F0ABFA14F4403F8046E8
:102C10000CD13946304604F012FD224B9845D8D1EC
:102C20009DF80210304601F0F3FAD2E701AB4FF005
:102C3000000903AA39463046CDE90439CDE90199A6
:102C4000CDF80C9001F04EF9164B984285D114F452
:102C5000003315D09DF803308DF80E3084F48034A5
:102C6000C4F300444B4603AA394630468DF80C5055
:102C70008DF80D4001F0F0F90A4B9842CDD06CE789
:102C8000CDE9043303AA0DF103033946304603931B
:102C900001F028F9F0E703F5E07352F82330FFDE86
:102CA000000300500000AD0B02780B69012A08D028
:102CB000022A08D04AB9064A5A6203F1140002F007
:102CC000A5BA044AF8E7044AF6E7044AF4E700BF65
:102CD0000000AD0B0100AE0B0200AE0B0100AD0B0E
:102CE0002DE9F04FD0F81090D0F8048085B005465B
:102CF0000C461746029309F1040A4FF0FF324FF0D9
:102D0000FF33504602F0A6FA09F1140B002300220B
:102D1000584602F09FFA404601F03CFD7B1E00261B
:102D20000393B74201D8002322E0039B217AB342E8
:102D300083BF237D83F00403C3F380030023019347
:102D4000029B0093D4E90023284600F08FF8034645
:102D500070B94FF480420023584602F07BFA98B1D4
:102D6000404601F027FD284600F06EF86FF004039E
:102D70004046029301F01EFD504602F047FA029BC6
:102D8000184605B0BDE8F08FD9F82430034A9342C5
:102D900004F10C04EAD10136C3E700BF0000AD0B1B
:102DA00098B5044640682346826900AF00F10801E7
:102DB00001F0ACFC0E4B984217D023686C4688B0EB
:102DC0006A460C49C2E905134FF4007393830A4B1A
:102DD00042F8103F094800234FF4E251FEF78AF908
:102DE0006FF00F00A546BD4698BD0020FBE700BF71
:102DF0000000AD0BBE8A000003000001BC7F000094
:102E000008B5CA07436800690AD4C1F34202012A1F
:102E100009D0022A0FD00A4A0A48012104F0F3F827
:102E20006FF0150006E01B684FF0CC72C3F8242544
:102E30000160002008BD1B684FF0CD62F6E700BFBF
:102E4000DE8A0000BC7F000008B543681B68D3F829
:102E50000805D3F80C1501F0B3FD034B984214BFDD
:102E60006FF00F00002008BD0000AD0B2DE9F04110
:102E700086B00C4647689DF8348015460021122222
:102E80000DF106001E4604F045FFBDF830208DF818
:102E9000052004F0010314F008028DF804300296B6
:102EA000049509D0124A1348012104F0ACF86FF0E0
:102EB000850006B0BDE8F081A10705D4B8F1000F88
:102EC00011D1002BF3D1202201A9384601F08EFC4C
:102ED000094B984209D00B3398420CBF6FF00F009A
:102EE0006FF00400E5E74022EEE70020E1E700BFD5
:102EF000F08A0000BC7F00000000AD0B036803F007
:102F00001F025B09026004D0012B034818BF002098
:102F100070474FF0A0407047000300502DE9F04F7C
:102F2000DFF89491DFF894A185B01546834600EB55
:102F3000810140F2FF18594503D1002005B0BDE8DA
:102F4000F08FDBF800305E04C3F3C322C3F3080440
:102F500000F1AC805B0C19F80270444508BF4FF0DB
:102F6000FF34222B00F2A580DFE803F012191F22A4
:102F7000252B22A3A3A3A33B68A3A3A3A3A3A3A33B
:102F8000A3A36B818487A3A3A38A9194979A9D009E
:102F9000C5F80C45601C5ED10BF1040BCBE7C5F8FE
:102FA0001445621CF8D000265FE0C5F80845F1E73B
:102FB000C5F81045F5E7631CC5F80845ECD00026B8
:102FC00004E0661CC5F80C45E6D0012603A803946E
:102FD000FFF794FF039B012202FA03F3C0F80C35BC
:102FE00008E0C5F80845002FDBD1631CD4D00026CB
:102FF00032460627DBF80030019303F40040002836
:1030000018BF002203A8009218BF01260394FFF7FF
:1030100075FF039C019B009A00EB8400C3F3412CD5
:10302000D0F800473B0243EA8C03134304EA0A0446
:10303000234343EA4603C0F80037ADE7C5F80C4523
:10304000D1E7C5F86045601CDBF80030A4D0C3F3BD
:103050000043002BB9D003A80394FFF74FFF039B55
:10306000012606FA03F3C0F808353246C2E7C5F870
:103070006445E8E7C5F86845E5E7C5F86C45E2E76B
:10308000C5F82445621C87D000220126B2E7C5F8A6
:1030900028457FE7C5F83045F4E7C5F83445F1E742
:1030A000C5F83845EEE7C5F83C4573E76FF0150005
:1030B00044E76FF0850041E7168B0000F0F8FCFF55
:1030C0002DE9F7430646002201210220FFF71EF8F2
:1030D0000220FEF7FFFF776835693C684FF0000873
:1030E000C4F800852E60D7F80C9001AA41464846E6
:1030F00004F08AF9002837DB019BD9F80020197900
:103100001868FFF70BFF00282EDB6B7A3169012B63
:1031100003D0032B26D14FF01008AB7A032B21D11B
:1031200095F80BC0BCF1000F02D0BCF1010F19D112
:103130002A7A12B1022A15D10E226B687068B3F593
:10314000164F00687BD02DD8B3F5165F7AD016D80D
:10315000B3F5966F78D00AD8B3F5967F77D0B3F5EC
:10316000167F77D06FF0850003B0BDE8F083B3F52C
:10317000166F72D0B3F5965FF4D15C4B3EE0B3F5B9
:10318000E14F6DD007D8B3F5615F6BD0B3F5964FC3
:10319000E8D1574B32E047F6122E7345E2D14FF497
:1031A00000032BE0B3F5613F5ED013D8B3F5963F33
:1031B0005DD009D84DF6C02E73455AD0B3F5614F96
:1031C000D0D14FF46B0319E0B3F5E13FCAD14FF012
:1031D000EB7313E0B3F5612F4ED009D8DFF814E19B
:1031E00073454CD0B3F5E12FBCD14FF0E86305E057
:1031F000DFF804E17345B5D14FF08053C0F82435B2
:10320000736848EA0C081B6842EA0802C3F86C2598
:103210000B1DD5E9010183E803007B6899073DD5C3
:1032200005F1180001F036F9344B98422AD03448A1
:10323000344A012103F0E7FE6FF0040094E74FF4F5
:103240001D03DBE7304BD9E74FF49E23D6E74FF45D
:10325000A033D3E74FF41C33D0E74FF41D23CDE761
:103260002A4BCBE72A4BC9E74FF06C73C6E7294BD3
:10327000C4E74FF46503C1E74FF07063BEE74FF05A
:103280008063BBE7287E04F10C0204F5907104F022
:103290004EF92B7E0120984000F0FAFB0823C4F879
:1032A00000353B7A53B9C4F81031D4F810316B694A
:1032B000C4F834350123C4F8383523607B689A0795
:1032C0005CBF4FF48073C4F804337B68DB0644BFF3
:1032D0004FF48003C4F804332B69C4F8443500204C
:1032E0000123C4F84805A360E3603DE700B0130084
:1032F00000A04E0090D0030040420F000000AD0B34
:10330000F47F00001E8B00000050270000C07500F5
:1033100000F03A0000903A012DE9F04104460769B7
:103320000D4604F04AFB4FF02008B0B92C4B1B7837
:103330009BB16426606804F095F8F0B9012004F0B0
:10334000F4F8013EF6D10021212002F0A3FAF0E7C3
:1033500086F31188BFF36F8FF5E7EFF311863146DF
:1033600088F31288BFF36F8F606804F07BF880B930
:1033700086F31188BFF36F8FEFE7EFF311863146C5
:1033800088F31288BFF36F8F606804F06BF8002831
:10339000DED03B691D70626838691368C3F8440564
:1033A0000120C3F848050020C3F82001D3F82051BC
:1033B000C3F858015268D3F85801D20608D562689C
:1033C00012680820C2F800054FF48002C3F80423F5
:1033D00001229A6081F31188BFF36F8FBDE8F081FD
:1033E0002C16002070B5012383400E4ABFF35B8F7B
:1033F000DC4352E8001F01EA040542E80056002EB3
:10340000F7D1BFF35B8F4FF4803282400648C0F89B
:103410000823BFF35F8FBFF36F8F0B4214BF0120F0
:10342000002070BDC80E00200010014070B40E498D
:10343000D1E90034D01AC31844F1000422F07F46C9
:10344000C1E90034A6F50013B3F5400F09D2074BCC
:103450001B681A0A1B069C19054B42F10005C3E9BB
:10346000004570BC02F09ABB00070020CC0E002083
:103470000807002011B3BFF35B8F0123104A83407C
:1034800052E800CF4CEA030C42E800C10029F7D112
:10349000BFF35B8F0B4A4FF480338340C2F8043391
:1034A000094BBFF35B8F1B68BFF35B8FC340DB0728
:1034B00042BF064B4FF40032C3F80021704700BFF3
:1034C000C80E002000100140C40E002000E100E002
:1034D0000D4B1868010A0006BFF35F8F0B4BD3F842
:1034E0000435181841F10001B3F5801F0AD2084BCA
:1034F000D3E90023904271EB030303D210F18070F3
:1035000041F10001704700BFCC0E002000100140C7
:10351000080700202DE9F04F85B016461F469DF89C
:1035200040A00446FFF75EFF0190FFF7D1FFB042D5
:1035300071EB070354D23E4B301A67EB01019842FE
:1035400071F100014FD23B4B03EB0413D3E902238B
:103550009F4208BF96425ED037494FF4803804F14D
:10356000500508FA04F8AD00C1F848832046ADB212
:1035700003F0BFFF26F07F4B05F1804504F5A873EB
:1035800005F58835DC464FF003090293029A2CF0CA
:103590007F4341F82230C1F84483D1F80435274AEB
:1035A0006FF00200C01A604420F07F40904232D990
:1035B000286868B1D1F804350393A3EB0B0020F021
:1035C0007F40B0F5000F26D9204603F092FF039B01
:1035D000BAF1000F07D109EB030C09F10109D5E796
:1035E000BAF1000F09D06FF0150520460199FFF7D9
:1035F00041FF284605B0BDE8F08F0123104ABFF314
:103600005B8FA34052E8000F184342E800010029F5
:10361000F8D1BFF35B8F07490E98230101EB041229
:10362000C8500F9B5360C2E902670025DDE700BF69
:1036300001008000F006002000100140FDFF7F0027
:10364000C40E00207FB51C4C1C4BC4F80833C4F8D2
:1036500048331B4B00254FF0FF304FF0FF31C4F8CB
:103660000855C3E902014FF48033C4F80433154B05
:1036700002264FF400320121C4F804631120C3F87C
:1036800080212A46FEF742FD1120FEF723FD0E4A57
:103690000123A360236013600C4B0D4A0093CDE916
:1036A000015500232846FFF735FF3046FFF7C6F8DF
:1036B000284604B070BD00BF0010014003000F0099
:1036C000F006002000E100E0C80E00202D340000CC
:1036D000FFFF7F002DE9F7432F4CD4F804339907FF
:1036E0000BD5D4F8043143B12C4A0023C4F804317B
:1036F000D4F80431136801331360D4F80433DA03C7
:1037000029D5BFF35B8F264B53E8002F22F0010130
:1037100043E800100028F7D1BFF35B8FD30702D432
:10372000D4F84031BBB10025C4F84051D4F8403141
:10373000FFF7CEFEEFF31182202383F31288BFF34D
:103740006F8F184BD3E90267B042B94106D282F3BA
:103750001188BFF36F8F03B0BDE8F0834FF0FF38DF
:103760004FF0FF39C3E90289D3E900101D604FF41F
:103770008033C4F84833C4F84051D4F8403182F360
:103780001188BFF36F8F0029E5D0009032463B4689
:1037900028468847DFE700BF00100140CC0E00201C
:1037A000C40E0020F006002030B5431C124C85B03A
:1037B00005D08442A8BF0446012CB8BF0124FFF7FE
:1037C00087FE0E4B0C4DD3E90013401AB0F5000FE5
:1037D00010D22218AA4228BF2A4652184FF00000E1
:1037E00007490091CDE9010043F10003FFF792FE84
:1037F00005B030BD2A46F0E7FFFF7F00000700203C
:103800002D34000008B5FFF763FE024B1B68C01A99
:1038100008BD00BF000700204FF08053D3F83021CF
:10382000082A06D1D3F83431052B02D8024AD05CDD
:1038300070470020704700BF618B0000024AD2F839
:103840000034002BFBD0704700E0014010B54FF072
:103850008053D3F83021082A4ED14FF08042002106
:10386000C2F80C11C2F81011C2F8381502F5404226
:10387000D3F80414C2F82015D3F80814C2F824159C
:10388000D3F80C14C2F82815D3F81014C2F82C156C
:10389000D3F81414C2F83015D3F81814C2F834153C
:1038A000D3F81C14C2F84015D3F82014C2F84415FC
:1038B000D3F82414C2F84815D3F82814C2F84C15CC
:1038C000D3F82C14C2F85015D3F83014C2F854159C
:1038D000D3F83414C2F86015D3F83814C2F864155C
:1038E000D3F83C14C2F86815D3F84014C2F86C152C
:1038F000D3F84434C2F87035FFF78EFF18B13A4B55
:103900003A4AC3F88C26FFF787FF18B1384BFB22E1
:10391000C3F81825FFF780FF70B14FF080414FF0DA
:103920008053D1F8E42ED3F8583222F00F0203F07E
:103930000F031343C1F8E43EFFF76EFF20B12D4B98
:103940004FF40072C3F840264FF08053D3F8303163
:10395000082B1AD14FF08043D3F80024D20744BF7C
:103960006FF00102C3F800244FF08053D3F83431D4
:10397000052B02D8204AD35C3BB14FF01023D3F87B
:1039800008224FF08043C3F858254FF01023D3F896
:103990000022002A03DBD3F80432002B22DA174975
:1039A00001234FF01020C1F804351224FFF746FF21
:1039B000C0F80042FFF742FFC0F80442FFF73EFFA5
:1039C0000023C1F80435FFF739FFBFF34F8F0C49CF
:1039D0000C4BCA6802F4E0621343CB60BFF34F8F15
:1039E00000BFFDE710BD00BF00500040488103004C
:1039F00000F00040009002405B8B000000E00140BE
:103A000000ED00E00400FA0530B50468CCB1BFF366
:103A10005B8FB4FA84F3C3F11F03DBB201229A4037
:103A200024EA020250E8005FA54204D140E8002CDD
:103A3000BCF1000FF6D1BFF35B8FE6D102480B70EB
:103A400030BD0248FCE700BF0000AD0B0200AD0B2B
:103A500010B50368CB40DB0714D401238B40026808
:103A6000BFF35B8F43EA020150E8004F944204D158
:103A700040E8001CBCF1000FF6D1BFF35B8FEED124
:103A8000014810BD0148FCE70000AD0B0400AD0B80
:103A9000014BC3F80405704700F00140F7B5044638
:103AA00018B1012823D003B0F0BD4FF080430222AB
:103AB000C3F808230122DA60C3F80401D3F8043103
:103AC000064601238DF8073042F210754FF080470B
:103AD000D4B1012CE7D1D7F80C3403F48033AEBB5A
:103AE00083B3012003F021FD013DF4D12AE04FF022
:103AF00080430022C3F808035860C3F80021D3F8BC
:103B000000310DF10706DCE7D7F8183403F48033F1
:103B10003EB9002BC7D0012003F007FD013DF3D1D2
:103B2000C1E7D7F8182402F003023260002BBAD0A4
:103B30009DF80700012803D103F0F7FC013DC7D130
:103B4000012CB0D1054B00225A71ACE7D7F80C24F8
:103B500002F001023270002BEAD1F3E7D00E002010
:103B6000044B1A7922B9012218609A8002487047E2
:103B700002487047D00E00200000AD0B0C00AD0BCA
:103B800008B5074B1B682BB10020FEF7B1FA08B946
:103B9000FEF7A0FA4FF080430022C3F8182508BDB5
:103BA000D00E002010B510B1012843D010BD4FF049
:103BB0008043D3F81814D3F81824C80321D502F091
:103BC0000303012B04D013B10020FFF767FF00238C
:103BD0004FF080420220C2F8183508224FF4827359
:103BE00003F180430021196002F180421C68012426
:103BF0001460154A12680AB34FF08043C3F80403F7
:103C0000D4E7D3F81424D107E1D5D3F81C249207C4
:103C1000DAD40D4A12681AB10222C3F80423C5E7A8
:103C2000D3F80421002AFBD00022C3F80421D3F8E2
:103C30000431BBE700224FF48073D1E71A68002AF1
:103C4000FCD019601B68B1E7D00E002010B54FF012
:103C50008043D3F800216AB10022C3F80021D3F8D1
:103C600000210122C3F80823114B587910B95A7169
:103C70001B6898474FF08043D3F8042172B10022AB
:103C8000C3F80421D3F80421D3F81824D3F8182456
:103C9000920704D10122C3F818259A6010BD0222B0
:103CA000C3F80823024BBDE810401B6801201847E9
:103CB000D00E0020036803F01F025B09026004D0ED
:103CC000012B034818BF002070474FF0A0407047F9
:103CD00000030050034A430900F01F00D35C18445E
:103CE000C0B27047678B000070B50546FFF7F2FF62
:103CF0000C4C08300E4634F81030DA0508D5C3F302
:103D0000432304EBC302284654F8333052689847E3
:103D1000A3682BB1E26831462846BDE870401847D9
:103D200070BD00BF8400002008B5FFF7D3FF034B30
:103D3000083033F81000400B08BD00BF840000209D
:103D400008B5FFF7C7FF034B083033F81000C0F386
:103D5000400008BD8400002008B5FFF7BBFF034BFF
:103D6000083033F81000C0F3401008BD8400002074
:103D7000034611F0010010B5CCB20DD1A207C4F377
:103D8000400012D5094AD2F820055860C2F8200533
:103D9000003818BF012008E04FF0A041D1F82025DD
:103DA0001A60C1F82025002AE8D010BD0003005099
:103DB00010B5FFF78FFF124A083032F81030D905DE
:103DC0001CD5C3F3432123F4F85322F8103002F139
:103DD0000E04002034F8023F13F4807F03D0C3F3B5
:103DE000432399420AD001303028F3D1002342F80E
:103DF00031300448BDE81040FFF72ABE10BD00BFB7
:103E000084000020FC000020F0B505460020044698
:103E1000012607468C420BD1114BD3F87C2132B1DD
:103E20000022C3F87C21D3F87C3140F00040F0BD83
:103E3000E3B29B0003F580729B0806FA03F31D4270
:103E40000BD002F1804202F5C042D2F800C0BCF1B2
:103E5000000F02D01760126818430134DAE700BF80
:103E600000600040F7B506460846FFF733FF194FDC
:103E700000F108050C4637F81530DB0727D530462A
:103E800003F0B9FB2046FFF767FF40B12046FFF77C
:103E90004BFF316800F5A270002341F82030204626
:103EA000FFF786FF002301A827F815300194FFF7DC
:103EB00001FF019B00EB8300074BD0F80027134064
:103EC00043F00203C0F80037044803B0F0BD0448D3
:103ED000FBE700BF84000020F0F8FCFF0000AD0B02
:103EE0000400AD0B2DE9FF41164680460846FFF75A
:103EF000F1FE0D463168044609B32846FFF720FF5E
:103F000018B12846FFF728FF10BB0023CDE9003386
:103F10008DF80E308DF80F300DF10F020B4628464C
:103F20000DF10E0103F00FFB474A04F1080132F8CE
:103F3000113023F0020343F0010322F811307368BB
:103F400063B328461F785968FFF7FAFE10B1D1B164
:103F50003E4826E03C4A04F1080032F8103023F0D5
:103F60002003DB04DB0C22F8103061B1032FEFD803
:103F70007168496891F800C0D8F80010A7B90CF52D
:103F8000A27C41F82C70304A04F1080132F811305B
:103F900023F01C0343EA870322F81130B3684BBBBC
:103FA0002B4804B0BDE8F08101EB8C0143EA4C33AF
:103FB000D1F810E52EF0030EC1F810E5D8F8001086
:103FC00001EB8C0E43F02003DEF8101522F81030C0
:103FD00021F44F3121F44071CEF810152902DEF89A
:103FE000108501F47C5141EA074141EA0801CEF80D
:103FF0001015C8E7D3E900672846FFF7D9FE002E61
:10400000CED0114DD5E90023964203D19F4201D174
:10401000002209E00F480DF10F01FFF7F5FC0C4BF2
:104020009842BED19DF80F2045F8326005EBC203DF
:1040300008345F6035F8143043EA422343F4807358
:1040400025F81430ACE700BF840000200400AD0B5D
:104050000000AD0BFC0000202DE9F0430C4685B0BC
:104060008046204611461E46FFF734FE054629B31A
:104070002046FFF765FE18B92046FFF76DFE18BB16
:10408000314F05F1080937F8193013F01C0F02D031
:104090004B78012B18D001238DF80F300023CDE988
:1040A00000134A1C8B1C20460DF10F0103F04BFA44
:1040B00037F8193043F0030327F81930002E41D0A8
:1040C0002046FFF73DFE18B9204805B0BDE8F08353
:1040D00096F800C0D8F800301B4F0CF5A2720021F2
:1040E00043F8221005F1080237F8121021F02001E0
:1040F000C904C90C27F8121075781DB3D8F8000050
:10410000B67800EB8C002D04D0F8103523F4991309
:1041100023F4F853C0F81035230203F47C5305F45C
:1041200040353605D0F810E52B4306F4801641EAF9
:104130004C31334341F0200143EA0E0327F81210BB
:10414000C0F810350248C0E7840000200400AD0B21
:104150000000AD0B014BC3E9021270478400002040
:1041600010B508461446FFF7F7FD50B10846FFF7B3
:10417000B1FD054B083033F8103004485B0B237059
:1041800010BD0348FCE700BF840000200000AD0B19
:104190000400AD0B70B5164D95F8804006462CBB5B
:1041A0002146602205F1100003F0B4FD30682E6F47
:1041B00021468E420ED10023C0F87C31D0F87C31EC
:1041C00040F30730FDF786FF01230A4885F8803069
:1041D000AB6770BDCBB29B0003F580727C2B08BF30
:1041E000845001F1010108BF8358E2E70248F0E77B
:1041F000840000200000AD0B0C00AD0B034B93F8C6
:104200008000003818BF0120704700BF84000020E4
:104210000148FFF71DBC00BFF80000200148FFF770
:10422000F3BB00BFF800002073B503681646D3F84F
:104230000423002AA8BF4FF000420546A8BFC3F8D8
:10424000042308460C46FFF787FD00B30846FFF736
:1042500077FD0146D8B92046FFF766FD04B2A400F9
:1042600004F58072034628688150296882582144E9
:10427000D1F8102542F00102C1F810252EB12968AD
:10428000012202FA03F3C1F8043302B070BD2046E4
:10429000FFF720FD0F4B083033F81030C3F38203D3
:1042A000042B12D0052B12D001A80194FFF702FDB8
:1042B000019AD0F81035D34003F00103991C204631
:1042C00002B0BDE8704003F087B90321F7E702218F
:1042D000F5E700BF840000202DE9F04F694BDFF8BF
:1042E000A881D3F80403D8F87010C0B289B040F0A8
:1042F0000040FFF789FD051E2FDAC24600235AF859
:104300007C1F06A8CDE90633FFF732FD5F4B019312
:104310000DF118094FF0000B019A12F8013B0192C0
:10432000DA0803F007031AF8022022FA03F3DA0787
:104330001CD409F10409BBF1000F14D0D8F8701097
:104340004FF00040FFF760FDD8F87C1006A8FFF79B
:104350000FFD0028DAD125F000450124002D79D188
:1043600009B0BDE8F08F4FF0010BD5E7484B5B4437
:104370000293D9F800100029DBD0029B91FAA1F139
:104380001C78B1FA81F141EA44142046FFF7A2FCFF
:104390000830059438F81070C808BB0819F80020D8
:1043A000039301F00701012303FA01F122EA01025C
:1043B00009F8002005A8FFF77DFC059A039B02F58C
:1043C000E072C7F3820650F822205B073746C2F33B
:1043D000014224D520463946D6B2FFF785FC05A810
:1043E0000594FFF767FC059B03F5E07350F8233055
:1043F000C3F301439E4207D10021204603F0ECF8AD
:104400003146204603F0E8F805A80594FFF752FC72
:10441000059B012202FA03F3C0F82035A9E7022A1E
:104420000CD10321204603F0D7F806F00503012B39
:10443000EAD139462046FFF757FCE5E7022120463E
:10444000039203F0C9F8032EF3D0039A032ADBD1B9
:10445000022EEDE795FAA5F3B3FA83F304FA03F21B
:104460009B0003F1804303F5C04325EA0205D3F81E
:104470001005D3F81015C0F30520C1F30141FFF773
:1044800033FC6BE70060004084000020778B000065
:10449000778B000001460148FFF7B6BA08010020FB
:1044A00030B500F01F04400911D0012812D10C488A
:1044B00000EB84001B02D0F800570A4C43EA82024A
:1044C0002C4042EA41012143C0F8001730BD4FF0B3
:1044D000A040EDE704F5E074002353F82430FFDE3C
:1044E00000030050F0F8FCFFCB7B10B433B9D1E9E6
:1044F00000420368C3F80845C3F80C2503688A68BE
:10450000C3F8242503793C225343054AD3582BB1E1
:10451000006810BC40F30730FDF7DCBD10BC7047ED
:10452000D80E002013B53B4B01930023C0F8043193
:10453000D0F80421C0F82431D0F82421C0F81C316F
:10454000D0F81C21C0F80831D0F80821C0F800329A
:104550004B6381F82F300123036291F82D209A429A
:1045600018BF83604B6B8A6A934204460ED24A6A34
:10457000D35CC0F81C350B6803B340F286238B6014
:104580008B682548C4F8043302B010BD91F82C3074
:1045900013B10123C361EEE70B6A13F0400F4FF034
:1045A000010316BFC361436181F82D30E3E7204664
:1045B00003F049F828B1019B013B0193019B002BBB
:1045C000F5DC91F82F305BB91348019B002BDBDC45
:1045D0000023C4F8003505231048C4F80035D3E79C
:1045E000D4F8C434C4F8C4348BB10D4A0B4813F06A
:1045F000010F18BF104613F0020F02F1010218BF9D
:10460000104613F0040F074B18BF1846DDE70348A8
:10461000DBE700BFA08601000000AD0B0100AD0B81
:104620000000AE0B0200AE0B13B5334B0193002319
:10463000C0F80431D0F80421C0F82431D0F8242186
:10464000C0F81C31D0F81C21C0F80831D0F808217E
:104650004B6381F82F308B6A012B044617D10B6A0C
:104660005B0614D40223C4F800320123236291F8BC
:104670002D20022A18BF23600B688BB140F28623DD
:104680008B608B681D48C4F8043302B010BD012351
:10469000E9E7204602F0D7FF28B1019B013B0193D7
:1046A000019B002BF5DC91F82F305BB91348019B7F
:1046B000002BEADC0023C4F8003505231048C4F8B9
:1046C0000035E2E7D4F8C434C4F8C4348BB10D4AE1
:1046D0000B4813F0010F18BF104613F0020F02F140
:1046E000010218BF104613F0040F074B18BF1846FD
:1046F000DDE70348DBE700BFA08601000000AD0B4B
:104700000100AD0B0000AE0B0200AE0B2DE9F8432B
:1047100090F804901C4E07463C2000FB09F0351829
:104720000C4695F82E1061BBA96032506B6085F87D
:104730002D1085F8311085F83010CCB1637B85F8E9
:10474000383094F80E8085F83980B8F1000F0BD11D
:104750002068062303224146FFF7A2FE6068062375
:1047600003224146FFF79CFE21463846FFF7BCFE78
:104770003C2303FB09660548012386F82E30BDE87B
:10478000F8830348FBE700BFD80E00200000AD0B04
:104790000C00AD0B036802790521C3F80015044B2A
:1047A0003C2101FB0233022283F82E20704700BF18
:1047B000D80E002003680B4A0179C3F80823D3F808
:1047C000002222F00302C3F800220022C3F80025D1
:1047D000054B3C2000FB0133012183F82E1083F8A8
:1047E0003020704786420400D80E00202DE9F047A3
:1047F000314F0479D0F800903C2303FB04730D463D
:1048000093F82D30012B944604D10B78012B06D15F
:104810002A4811E0022B02D10B78012BF8D13C265B
:10482000274BC9F8083306FB047696F830302BB1D5
:10483000B3682448C9F80433BDE8F0878CF004035A
:10484000C3F3800386F83030C6F820C0A846B8E825
:104850000F0006F10C0EAEE80F00D8F80030CEF8CD
:1048600000306B68B362EB6873626B78C9F88835A7
:104870002B78C4EB041A012B07EB8A0A17D09BB9DB
:10488000CCF3401C3C2303FB04735146484683F899
:104890002CC0FFF747FE3C235C433A193B59002BE1
:1048A000CAD182F83030C7E74FF0010CEAE7514631
:1048B0004846FFF7B9FEEEE7D80E00200500AD0B25
:1048C000864204000B00AD0BF0B5324C324887B085
:1048D000214602F0B8FE002859D194F82F70FFB994
:1048E000227B931E012B1BD8606AA369984217D1C3
:1048F000E36963626369A362236A274884F82D70C1
:10490000C3F34013032A84F82C3004D107B0BDE868
:10491000F040FFF707BE07B0BDE8F040FFF784BEE8
:104920001E4E0FCE01AD0FC533682B6047B31A4A38
:10493000D2F8C434C2F8C43413F0020106D0012303
:104940008DF80030002384F8303007E013F00402C3
:1049500009D002238DF8003084F83010D4E90031FA
:104960006846984713E013F0010305D003238DF840
:10497000003084F83020F1E704228DF80020E2E7CF
:10498000236A8DF800705B0784F83070E6D507B0B5
:10499000F0BD00BFD80E002000300040E40E002023
:1049A000036803F01F025B09026004D0012B034877
:1049B00018BF002070474FF0A04070470003005020
:1049C000F7B5064602F0D7FE084602F0D4FE01A86D
:1049D0000196FFF7E5FF019B2E4D00EB83000C468F
:1049E000D0F80037019440F20D612B400B43C0F822
:1049F000003701A8FFF7D4FF019B00EB83000127DC
:104A0000D0F800372B400B43C0F80037042002F0E9
:104A10008CFD092501A80194FFF7C2FF019AD0F887
:104A20001035D340DB0715D401A80196FFF7B8FF76
:104A3000019B07FA03F3C0F80C35042002F075FD62
:104A4000304602F098FE013D042002F06EFD15F0A4
:104A5000FF05DFD101A80194FFF7A2FF019A01230E
:104A60009340C0F80C35042002F05FFD204602F0B0
:104A700082FE042002F059FD01A80194FFF790FF87
:104A8000019AD0F810350448D34003F00103C01A4E
:104A900003B0F0BDF0F8FCFF0100AD0B08B5124B00
:104AA000A8220021184603F035F9032202610F49BC
:104AB00042610F4A8161C2614FF48062026200224A
:104AC00082624262C26201660A49416610218166C1
:104AD000094902670346C266426711F8010D9854FE
:104AE0000132102AF9D108BD140F0020798B000083
:104AF0002C1200201C120020928B00002DE9F84F90
:104B0000DFF87C8098F800308246894616460BB95B
:104B1000FFF7C4FF182707FB0A873D6FD7F86CB073
:104B20005D452BD9BC6E796E641BB44228BF3446F8
:104B300029444846224603F0DFF8BB6E2544A144D1
:104B4000361BAB4208BF0025ABEB050B5E4528BF0B
:104B50005E4656B1182303FB0A833246596E484617
:104B6000294403F0C9F83444354424B1182303FB25
:104B70000A88C8F870502046BDE8F88F0024E3E7A3
:104B8000140F00202DE9F84FDFF87C80182606FB73
:104B9000008E00FB06664644DEF82440DEF828C09E
:104BA0007368A44507468946154603EB040022D8DE
:104BB000DEF820B0ABEB040A0AF1FF339A4203D8C7
:104BC00003F09AF82C440FE063449A4219D85246F5
:104BD0002C4403F091F8B4EB0B0405D07068224626
:104BE00009EB0A0103F088F8182303FB078301206F
:104BF0005C62BDE8F88F0CF1FF3CACEB040C944513
:104C0000DED20020F5E700BF140F0020F8B5144BEA
:104C1000182700FB07751D4407FB00330E46DB6AAF
:104C2000012B14460AD0022B14D023B9284602F0D7
:104C3000AFFD844208D900242046F8BD284602F082
:104C4000A7FD844228BF044622463146284602F08A
:104C5000A8FDF1E72846BDE8F84002F0BDBD00BF61
:104C6000140F002070B50A4B1B7804460D461646FB
:104C70000BB9FFF713FF00F017F83246294620461C
:104C8000FFF7C4FF044600F019F8204670BD00BFCE
:104C9000140F0020034B182202FB00339A6A586A53
:104CA000801A7047140F002003484FF0FF324FF076
:104CB000FF3300F0F7B900BFF8010020014800F011
:104CC00069BA00BFF801002010B50446FCF72EF9C0
:104CD0000348044A012102F096F9204602F0DAFD69
:104CE000E47F0000938B00002DE9F843044600AFF9
:104CF0000D46EFF31188202383F31288BFF36F8FE3
:104D00000428294A98BF294B9668117C94BF53F810
:104D10002030274BE9468AB06A462648C2E9073167
:104D200040F201339384244BC2E9050442F8103F5A
:104D3000224800234FF43151FCF7DCF9CD4645B150
:104D4000EB69C3F3080323B11D4A1C48012102F09B
:104D50005AF92EB1304602F039FE08B1037803B992
:104D60001848E9468AB06A46174BD061C2E9053651
:104D700040F201331384154B42F8103F00230F48D3
:104D80004FF41151FCF7B6F92946CD462046FFF7FE
:104D90009BFF88F31188BFF36F8F3046FDF71EF934
:104DA000BD46BDE8F88300BFBC0F00205482000060
:104DB000A28B0000B88B000005000001E47F00001A
:104DC000E08B0000B08B0000018C000004000001AB
:104DD00038B5094B53F82040013053F82050A54214
:104DE00000D838BD636823B1204602F05BFD08346B
:104DF000F5E723689847FAE76882000070B52A4B08
:104E00002A4C2B4D012286B003201A70FFF7E0FFD9
:104E1000FCF7AEFC0420FFF7DBFF2646AE4204F1B0
:104E2000300410D300F078FC204C224EAC4226D344
:104E300000F086FCFBF76CF91F4A137B23F001039B
:104E4000137306B070BD54F80C3C059354F8103C35
:104E5000049354F8143C039354F8183C029354F808
:104E60001C3C019354F8203C009354E90A2354E974
:104E70000C0100F015FA54F8303C5E65CDE7D4E93A
:104E80000A23B3F1FF3F08BFB2F1FF3F05D052EA5A
:104E90000301206803D102F09BFD3034C6E73146A0
:104EA000183000F001FEF8E72C1600209C7F00006F
:104EB0009C7F0000FF7A00009007002008B503489F
:104EC000034A0021121A02F005FD08BD300200203D
:104ED0003016002070B5002386B00122CDE90423EE
:104EE000134E144D01930F22CDE9023212491423BF
:104EF00003FB005506EBC01604464FF4C07000FBE0
:104F000004110E4B00954FF4A072304600F0C8F922
:104F1000737B0B4AEE6023F0040373734FF4046356
:104F200004FB033313442C746B6006B070BD00BFE8
:104F300010070020BC0F0020C02100206F79000066
:104F400080190020BFB50020FFF742FF2D4B83F3EF
:104F500008882D4D2D4E6B692D4F43F400736B6106
:104F60000024E02385F82230EC772C766C76AC7642
:104F700085F820406B6A43F4E0236B6285F8234098
:104F8000FCF7ACFFFDF74AF94FF0FF33AB62EB6281
:104F9000FDF71EFAFDF766F9FBF734FF1D4BB36012
:104FA00040F201129A81C3E91844DC6602F066FC03
:104FB0000120FFF70DFF0220174DFFF709FF00F05A
:104FC000DFFB164B75610593012315490094CDE96C
:104FD00003434FF480623B46CDE90144284600F08C
:104FE0005FF96A7B064622F0040228466A7302F0E3
:104FF0002BFD2046FFF76EFF3A4631462846FDF767
:10500000EBF800BFC021002000ED00E0BC0F002045
:10501000FD4D00001008002090070020638C000068
:105020004023002038B5064C064D0020AC4200D38A
:1050300038BD204602F052FC0028F9DB1C34F5E7AD
:10504000BC010020BC01002073B50C46EFF31181B8
:10505000202585F31288BFF36F8FC5685DB1256089
:105060002B68C360836901338361002081F3118859
:10507000BFF36F8F11E052EA030603D125606FF092
:105080000B00F3E7CDE900230246083000F090FA68
:1050900018B9034B9B685B69236002B070BD00BF09
:1050A000BC0F00202DE9F341044617461E46EFF3DE
:1050B0001188202383F31288BFF36F8FC368334AAC
:1050C0007BB180689168884219D057EA060318D1ED
:1050D00088F31188BFF36F8F6FF00F0002B0BDE847
:1050E000F081916891F90E1021610133E3609368BA
:1050F000A36088F31188BFF36F8F0020EEE721696A
:10510000F2E791F90E1090F90E309942A8BF1946B6
:105110006FF07E029142B8BF11468B422DDD02F046
:1051200031FC0546CDE9007619482246414600F09B
:105130003FFA0028E1D0EFF31186202383F3128891
:10514000BFF36F8FA068D0B1236821699C420AD059
:105150004BB193F90E309942A8BF19466FF07E0308
:105160009942B8BF194602F00DFC40B108483146DB
:1051700000F08EFA6FF00A00B0E70025D2E7002DAC
:10518000F4D186F31188BFF36F8FF3E7BC0F0020D3
:105190002D16002038B58368044663B3194A926817
:1051A00093422BD1C368012B03D9013BC36000207C
:1051B00038BDEFF31185202383F31288BFF36F8F7F
:1051C0000169806802F0DEFB204602F0B2FCA060BC
:1051D00058B190F90E2022610022826702F034FC5F
:1051E0000948294600F054FAE1E7E06085F31188A8
:1051F000BFF36F8FDBE76FF01500D9E74FF0FF309B
:10520000D6E700BFBC0F00202D16002038B504469D
:10521000EFF31185202383F31288BFF36F8F02F021
:1052200088FC48B10022826702F00EFC294608483B
:10523000BDE8384000F02CBAD4E902329A4218BFD7
:105240000133A36085F31188BFF36F8F38BD00BFB2
:105250002D16002013B5EFF31181202484F312885A
:10526000BFF36F8F846844B1013C846081F311887F
:10527000BFF36F8F002002B010BD52EA030406D1C5
:1052800081F31188BFF36F8F6FF00F00F3E7CDE963
:1052900000230246014800F08BF9ECE72D160020B0
:1052A0002DE9F043073285B022F007020E461F4673
:1052B0001099017300F158037F32C0E91633044698
:1052C000002322F03F020421836041733F2A0F989C
:1052D000A073C4E90633E37306F14009A2F1400864
:1052E00005D883F31188BFF36F8F084602DFB51826
:1052F00029462046FCF796FB07300E9B20F007005E
:10530000A066C4E9189802930D9B01932D1A0C9B7B
:1053100000932A463B4631462046FCF72BFF0023EC
:105320006365044B9B6803B1DB6EE366284605B0FA
:10533000BDE8F083BC0F0020F0B587B000250595CF
:10534000109D04950F9D03950E9D0295DDE9127643
:105350000D9D01950C9D00950446FFF7A1FFB6F148
:10536000FF3F08BFB7F1FF3F05D056EA070305D15D
:10537000204600F09FF9204607B0F0BD03493A46A9
:10538000334604F1180000F08FFBF4E7FF7A0000C9
:1053900038B50D4D2B4653F8184F9C4200D004B938
:1053A000EC68AB6838B95A7BD20604D1A26912B94D
:1053B000DA897F2A05D89C4202D0204600F0BCFA48
:1053C00023466B6138BD00BFBC0F002008B590F9C3
:1053D0000D20437B002A014604DA03F07F03437368
:1053E00002F0F8FA044B9868431A58425841BDE855
:1053F0000840FFF7CDBF00BFBC0F002070B490F98C
:105400000D30427B002B29DBD30627D183692BBBD0
:10541000134962F07F0242730A4652F8184F9442D1
:1054200018BF2346CC6923B9C0E900242060C861B5
:105430000CE090F90E5093F90E60B5420AD0AE42DE
:1054400008DD5A68C0E900321060586070BC002066
:10545000FFF79EBF9C42E7D01B68E4E770BC704733
:10546000BC0F00202DE9F041002A427B0E460CBF04
:1054700010210821114204460FD141EA0203D2094A
:1054800018D1437308291BD00120FFF781FFBFF318
:105490005F8F637B23F060036373264B9B68A3429B
:1054A00041D1EFF30583002B3DD13046BDE8F041FB
:1054B000FCF7AABD03F07F03437302F08BFAE1E728
:1054C000A36813B1204602F08DFA04F1180002F02F
:1054D0006DFB04F158074FF00008A56DBD4200D0E8
:1054E000A5B9144DAB689C42CED1EFF30583002BD8
:1054F000CAD00120FFF74CFF0F4BAB6040F2011206
:105500009A810022C3E91822DA66C0E7284602F031
:1055100069FA05F1180002F049FBC5F878802846C1
:10552000FFF76CFFD9E786F31188BFF36F8FBDE8F3
:10553000F08100BFBC0F00201008002070B590F96A
:105540000D20437B002A014604DA03F07F034373F6
:1055500002F040FA4B7B154A63F07F0310464B7311
:1055600050F8183FD469834208BF002323B9C1E92A
:1055700000042160D1610CE091F90E5093F90E60A6
:10558000B5420ED0AE420CDD5868C1E90030016072
:1055900059609068431A5842BDE870405841FFF77F
:1055A000F7BE9C42E3D01B68E0E700BFBC0F0020C1
:1055B000F8B5124B0C461146114A98681060DDE9A7
:1055C0000676EFF31182202282F31288BFF36F8FE9
:1055D0009D68284602F010FAB6F1FF3F08BFB7F108
:1055E000FF3F06D007493A46334605F1180000F060
:1055F0005BFA2046BDE8F840FCF706BDBC0F002072
:10560000DC0F0020FF7A0000F8B50446EFF31186A6
:10561000202383F31288BFF36F8F437BDA0649B2EE
:1056200019D18569BDB903F07F03437302F0D2F944
:10563000437B164A817363F07F034373134653F829
:10564000180F984218BF0546D0695DB9C4E900300B
:105650000460D46111E0A173002086F31188BFF3C8
:105660006F8FF8BD95F90E70B9420BD08F4209DDEE
:105670006B68C4E900531C606C600120FFF788FE72
:105680000120EAE7A842E1D02D68DEE7BC0F002048
:1056900049B9EFF3058030B9054B5A699B689A42C6
:1056A00001D0FCF7B1BC81F31188BFF36F8F704755
:1056B000BC0F002010B5EFF31184202282F3128872
:1056C000BFF36F8F427B510704D484F31188BFF37B
:1056D0006F8F10BD22F004024273FFF78FFE214648
:1056E0000248BDE81040FFF7D3BF00BF2D160020D1
:1056F000034648B9EFF3058232B9064A5169926808
:10570000914201D0FCF780BC83F31188BFF36F8F07
:10571000704700BFBC0F0020EFF31181202383F3FB
:105720001288BFF36F8F054B9A68D37B013BD3730D
:1057300081F31188BFF36F8F704700BFBC0F00204B
:1057400038B5EFF31185202484F31288BFF36F8FEF
:105750000A4B9A68D37B0133D3730020FFF718FEFE
:1057600085F31188BFF36F8FEFF3118084F31288F4
:10577000BFF36F8FBDE83840FFF7BABFBC0F002002
:10578000024B03F11802C3E906227047BC0F002048
:10579000F8B5EFF31185202383F31288BFF36F8FE1
:1057A00019498868437B03F07F03437302F012F9C1
:1057B0008B685A7B084662F07F025A7350F8182FA4
:1057C000CC69824208BF002222B9C3E900042360E9
:1057D000CB610CE093F90E6092F90E70BE420ED0D0
:1057E000B7420CDD5168C3E900210B605360012012
:1057F000FFF7CEFD2846BDE8F840FCF705BCA24205
:10580000E3D01268E0E700BFBC0F002050EA0103BC
:105810002DE9F04105460E4603D1FFF7B9FF002000
:105820002BE0831C71F1FF3329DB02F0D4F92C1833
:10583000EFF31188202383F31288BFF36F8F124F89
:10584000124BB8681860FFF7C1FDB86810492A46C6
:105850003346183000F028F9BA68537B43F0100340
:1058600053734046FCF7D0FB02F0B5F9201A63EB06
:105870000303012873F10003D1DBBDE8F0816FF071
:105880000104241AD4E700BFBC0F0020DC0F002065
:10589000FF7A0000B1F1FF3F08BFB0F1FF3F08B54C
:1058A00006D10A4B986802F0DEF84FF0FF3008BDD1
:1058B000FFF7ACFF4FF47A7147F6FF730022C0FB8D
:1058C0000132D80B40EA4240F1E700BFBC0F002094
:1058D000014B9868704700BFBC0F0020044BC01AF2
:1058E000044BC0105843044B01221A54704700BFA8
:1058F00090080020ABAAAAAA2D160020C3897F2BEE
:1059000012D80A4B1B6863B1094B90F90E201B6833
:105910009A4209DB437BDB0606D1064BC31A18BF4C
:10592000012303F0010070470023FAE7E40F002091
:10593000E00F00201007002070B50E4B0E4C1E7CAF
:1059400006EB460304EBC3040546204602F02EF99D
:105950000A4B002228469A55FFF7D0FF48B1084B62
:1059600008491A68013A2046D317BDE8704000F094
:105970009BB870BDBC0F0020900800202D160020A1
:10598000E40F0020DD58000038B5EFF31185202327
:1059900083F31288BFF36F8F104B114A9C68106815
:1059A000A04206D1FFF7C8FF85F31188BFF36F8FC0
:1059B00038BD00211B7C11600A4AD35C002BF3D058
:1059C0002046FFF79BFF0028EED0637BDB0602D169
:1059D0002046FFF7B3FD2046E4E700BFBC0F0020E0
:1059E000DC0F00202D16002008B50648064A07499E
:1059F000121A01F071FFBDE80840054A0549064842
:105A000001F06ABF00000020300200207C8C000002
:105A1000000000007C8C000000000020034B1B688D
:105A20000BB9FDF7EFBE0020704700BFE80F002064
:105A300030B570B10B4B5B6898420AD0036843B134
:105A4000D3E90421D0E90445121941EB0501C3E96A
:105A50000421D0E9003213605A600023C0E900330A
:105A600030BD00BF0C01002010B50E4B1C689C42DD
:105A700004D1FFF7D3FF6FF0004010BDFFF7CEFF5A
:105A8000002CF8D0D4E904321B1A62EBE072B3F1B7
:105A9000004F72F10001EEDA002AACBF1846002078
:105AA000EBE700BF0C010020B3F1FF3F08BFB2F1EC
:105AB000FF3FF8B504461D4616465ED08160EFF301
:105AC0001187202383F31288BFF36F8F013275F1A2
:105AD000FF3324DA2E49D1E900206FF001039B1A2D
