:10000000401B002091290000F18600007D2900009E
:100010007D2900007D2900007D29000000000000EE
:10002000000000000000000000000000452B000060
:100030007D29000000000000112B00007D29000038
:10004000312D0000312D0000312D0000312D000038
:10005000312D0000312D0000312D0000312D000028
:10006000312D0000312D0000312D0000312D000018
:10007000312D0000312D0000312D0000312D000008
:10008000312D0000312D0000312D0000312D0000F8
:10009000312D0000312D0000312D0000312D0000E8
:1000A000312D0000312D0000312D0000312D0000D8
:1000B000312D0000312D0000312D0000312D0000C8
:1000C000312D0000312D0000312D0000312D0000B8
:0C00D000312D0000312D0000312D00000A
:1000DC00034613F8012B002AFBD1181A013870477C
:1000EC00F8B5017829B3032938D11D4A1D481E4D96
:1000FC001E4F1C4E08F05FFA002415F8013B03213B
:10010C003A463046013408F05FFA0A2CF5D116490C
:10011C001748224605F072FA164B98421ED0164923
:10012C00164A1748272308F026F82721134808F009
:10013C0019F8144A0B48032108F03DFA0A490C48F7
:10014C000A2205F01FFA0B4B984207D00A490B4ABA
:10015C000B482D2308F00FF82D21E7E7F8BD00BF61
:10016C0048910000108F00002409002067910000C6
:10017C00000000200000AD0B939100007B9100006B
:10018C00AA910000C79100007FB50022062104202F
:10019C0002F012FD08F0A0F9174A1848032108F0E4
:1001AC000AFA01F083FB01460028FAD1142201A8B7
:1001BC0008F0AFFD4A2300931F211E23CDE9021343
:1001CC000F4A1048072369468DF8123005F02CF9B8
:1001DC000D4B984209D00D490D480E4A452307F0A6
:1001EC00CAFF0C48452107F0BDFF064805F080F911
:1001FC0001F05CFBFCE700BFE5910000108F0000F4
:10020C00ED000000000000200000AD0B93910000F9
:10021C00AA9100007B910000B2F5802F2DE9F041EE
:10022C000ED33C493C4A3D4840F2EB1307F0A3FF88
:10023C003B4807F0A0FF40F2EB11374807F092FF64
:10024C00042A0CD83749344A34484FF4F97307F070
:10025C0092FF354807F08FFF4FF4F971EDE7043A40
:10026C00CD1D8E1825F0070526F00706761B172ED8
:10027C004FEAD6070CD82D49274A284840F2FB13E1
:10028C0007F079FF284807F076FF40F2FB11D4E71E
:10029C00B7FA87F4C4F12002C4F12404A400073493
:1002AC00E408631C4FF00008BB420560AF60C5F862
:1002BC000C800CD91E49184A18484FF4037307F0E8
:1002CC005AFF194807F057FF4FF40371B5E7414641
:1002DC00920005F1100008F01CFD630043F00103CF
:1002EC006B8005EBC4023B1B5900A5F800805180C4
:1002FC00AA1925F83440A2F80280AB5305EBC703CA
:10030C0021465A8842F001025A802846BDE8F04145
:10031C0007F09ABEEE92000020920000AA91000015
:10032C00049300001B9300003C93000055930000C5
:10033C007E9300002DE9F04F91B08407009302F0FA
:10034C0004030293C2F3C20303F10103DDF86880D6
:10035C00039205460E46059340F0F581041D30B11D
:10036C00072909D86FF01B0011B0BDE8F08F01F020
:10037C000706341DC6F10806009B4FF00009013B2F
:10038C004FF0040B0193CDF810904F464B464FF0B5
:10039C00FF32DA460DB1009921600598002800F370
:1003AC00D78098480099814203D397488142C0F086
:1003BC00CF800399A4EB050E89074FEA9E0040F10C
:1003CC00E2804FF0000CCCE07A285AD84B280CD89D
:1003DC00472856D829282AD8252851D051D8202842
:1003EC0077D023384342434173E04C382E2848D809
:1003FC00DFE800F06F4747474747474747474747BE
:10040C004947474747474747475947494959595922
:10041C006F496C476F471849184747807D494747D4
:10042C0049477D00002000234FF0040B39E02A38A7
:10043C00C0B2012101FA00F010EA0E0F49D110F000
:10044C00625C30D110EA010343D06046013C5C444D
:10045C00B4FBFBF40BFB04F4002D60D0AAEB050CF1
:10046C00A444B4453FF67EAF00286AD1BAF1040F1C
:10047C0045D158F8040B206004344FF0040A28E0EE
:10048C00013A002325E0019B13F8013C6C2B33D17E
:10049C00019B13F8023C00206C2B0346C4D14FF097
:1004AC00080BDA46D2E708F1070828F007080734EA
:1004BC00F8E802AB24F0070435B106982044B042AA
:1004CC003FF650AFC4E900AB083400234FF0080BE3
:1004DC00DA46019911F8010F0191002800F0BB8058
:1004EC00002B7FF471AF2528F3D1013201234FF09B
:1004FC00040BEDE7184696E700200346A6E7BAF191
:10050C00080F40F09A8008F1070828F00708F8E86F
:10051C000201C4E9000108344FF0080AD9E780B998
:10052C00BAF1040F02D108F10408A5E7BAF1080FDB
:10053C0040F0838008F1070828F0070808F1080844
:10054C00E9E705990139059158F8041B009121E759
:10055C00039988074AD5A4EB050E4FEA9E004FF08D
:10056C00010CBEF5007F1ED32849294A294840F2C8
:10057C007B2307F000FE284807F0FDFD40F27B21AD
:10058C00234807F0EFFD0F2F0FD8002D48D007F1AF
:10059C0040010DEB010C0CF8200C0CF8102C0498FD
:1005AC000130049021E00F2F0CD91849184A194832
:1005BC004FF4207307F0DFFD184807F0DCFD4FF413
:1005CC002071DDE7CDB107F140010DEB010EC0B29A
:1005DC000EF8200C0EF8102CBCF1000FDFD060F0E0
:1005EC007F000EF8200C09F101090137C5F1080153
:1005FC00043406914FF6DA7E6BE7BCF1000F0FD096
:10060C000136F2E7548D0000C0AE00007995000071
:10061C00A9930000AA910000D7930000F893000062
:10062C00029802360028E0D10098CDE90632FFF797
:10063C004FFDDDE906320644D7E7444A44494548B4
:10064C0040F2C52307F097FD5146434807F093FD50
:10065C0040F2C52194E7631BB3F5806F0CD33C4982
:10066C003A4A3C4840F2D12307F085FD3B4807F05D
:10067C0082FD40F2D12183E71DB9A6F10804E018F0
:10068C0072E6029A28609B082B709DF81030C2B15C
:10069C00EB7085F80290B9F1000F05D008A8002284
:1006AC00C5F1010C97420ED1C5F101030DF12008E3
:1006BC004FF0000A01930DF1300B574512D1601B1E
:1006CC0052E66B70E5E710F8013B190608D504EB10
:1006DC000C0EB64503F07F033FF644AE04F8013B25
:1006EC000132DFE7B9F1000F03D098F90020002A9E
:1006FC0017DB029BD3B11AF80B2004F8012B002254
:10070C00019B98182044B0423FF62CAE98F800009C
:10071C0004F8010B00990392204608F0ECFA039AB6
:10072C0014440AF1010A08F10108C6E798F8002000
:10073C0055F822300093029B45F822300098FFF7C1
:10074C00C7FC421CDCE76FF00D000DE6A99300001E
:10075C0079950000AA9100001294000027940000E3
:10076C002DE9F04F97B000AF8946D7F880B0FA6208
:10077C003B62044658B9A849A84AA9484FF4657386
:10078C0007F0F9FC4FF46571A44807F0EBFCCBF3D0
:10079C00C00390F802A0BB6141B9457800780AEB20
:1007AC00800020444D4517D8A0EB0409E378FB6189
:1007BC00BAF1000F02D01BF0010F16D1FB6953BB2D
:1007CC00FB6A1BB13A6A4946204698474D46284673
:1007DC005C37BD46BDE8F08F461C3046FFF778FC11
:1007EC000130304409F10109DCE7237862687A6250
:1007FC00FA6A9900796104EB8301002A40F00181C7
:10080C004D460E4601EB0A094FF000084E454CD1FF
:10081C0001EB0A0610E01BF0020FD1D023789A00EE
:10082C007A6162687A62FA6A04EB8301002A77D1F2
:10083C004D4601EB0A0690461BF0050F0CBF022338
:10084C000123FB62FB6906EB430A0BF00203BB625C
:10085C005645BCD016F8021B16F8013C54F82390F0
:10086C00704B994502D3704B994536D3BB69002B1D
:10087C0040D0786A07F040FC00283BD0E9468AB0AB
:10088C006A466A4B53617B6AC2E906314FF40073C6
:10089C001384674B42F8103F664800234FF4125103
:1008AC0001F068F9023DCD46D2E716F8013BF9623A
:1008BC0054F82300FFF70CFCD7F88430F96A0130A8
:1008CC004BB1D7F8883098453EBFD7F8843023F821
:1008DC00180008F10108054498E7BB6923B1786A50
:1008EC0007F00AFC0028C9D11BF0010F05D1FB6AE7
:1008FC00ED1AADE7BB6A002BAAD04846FFF7E8FB20
:10090C00D7F8843053B1D7F8883098453FBFD7F823
:10091C008420431C22F8183008F10108054497E79D
:10092C00BAF1000F73D01BF0040673D0D04600262A
:10093C0007F1480052463B61B96208F0DCF9B96A2C
:10094C003B6901EB0A02BA62FA69F9695200FA6072
:10095C00BA6A02EB41023A610BF00202BA60BA6A5F
:10096C0039698A4268D162787A621BF0020F32448C
:10097C000CBF4FEA580100211BF0010FD2B240F01E
:10098C00E4801BF0040F14BF40460020BB61627072
:10099C00A070E1703A6A7969FB6A20469847051E97
:1009AC00FFF615AFBB6923707B6A6370FB69E3705C
:1009BC0041463A6AFB6A84F802A007F1480098475E
:1009CC00B0F10008C0F2EF807B693A6AA9EB0A012A
:1009DC00C91AFB68C91AD7E90A0398470028C0F25C
:1009EC00E480A84408EB00054FF0000B07F1380A2F
:1009FC00B345C0F0AC8000213A6AFB6A08469847C0
:100A0C00E5E656464FF0000807F1380092E75646E7
:100A1C00D04696E7B04694E73E940000A9930000B8
:100A2C00AA910000548D0000C0AE00005994000043
:100A3C0004000001188F0000BA6A12F8021BBA6297
:100A4C0012F8015C5A4A54F82500904202D3594AD4
:100A5C00904218D3BA693AB1786A7B6007F04CFBC4
:100A6C007B6800287FF47BAFBA68002A4CD00F2E2D
:100A7C0040D95149514A52484FF4896307F07BFBE6
:100A8C004FF4896180E6BA693AB1786A7B6007F005
:100A9C0033FB7B6800287FF462AF1BF0010F0BD097
:100AAC000F2E27D94449454A454840F23E4307F0AA
:100ABC0062FB40F23E4167E61BF0040F3FF44FAF80
:100ACC00B8F10F0F09D93F493C4A3D4840F2414328
:100ADC0007F051FB40F2414156E608F1280207F1BC
:100AEC00300008F1010102EB000808F8105C5FFA15
:100AFC0081F834E706F1280207F13000711C161852
:100B0C0006F8205CCEB22AE7B8F10F0F09D92D49AF
:100B1C002A4A2B4840F24B4307F02DFB40F24B4145
:100B2C0032E608F1280207F1300C08F10100944478
:100B3C0007F1580252FA80F008F102080CF8101C68
:100B4C005FFA88F800F8105C09E700201EE71BF834
:100B5C000A3087F8373054F82390D7F88430FBB13B
:100B6C0033F81B803A6AFB6A012107F1370098477A
:100B7C0000281ADB0544B8F1000F06D14846FFF7F0
:100B8C00A7FA00F101081FFA88F83A6AFB6A414695
:100B9C0048469847002808DB05440BF1010B27E772
:100BAC00D7F88480DEE7454611E605460FE600BF20
:100BBC00548D0000C0AE0000FC940000A99300000E
:100BCC00AA9100001B950000014B1860704700BFF4
:100BDC000800002080B505460E461746984606F0DC
:100BEC0095FA034608F0A6F8DFF81890044649F881
:100BFC000030424630463946A84754F8090001F007
:100C0C002FFF00BF0800000038B50D460446202217
:100C1C00002108F07EF8EB68E361AB68A3612B68F8
:100C2C0023626B6863620022A2622A6923B1591E97
:100C3C00194208BF42F0010222610122002104F195
:100C4C002C0007F089FF48B105490648064A2E23B7
:100C5C0007F091FA04482E2107F084FA38BD00BF42
:100C6C0072950000AA9100004C9500002DE9F04F00
:100C7C0089B0CDE90123436A00278B42044688469C
:100C8C0005970797BA4655D300F114064FF0200B81
:100C9C00EFF3118300938BF31288BFF36F8F304601
:100CAC00DDF8009006F07EFB58B94B4A4B494C4896
:100CBC00882307F060FA31464A4807F05CFA88212D
:100CCC0060E0304606F092FB079A2AB1394620467E
:100CDC0007F030FB0023079306A9204607F058FACB
:100CEC000699414505462ED32268236A13F8221033
:100CFC0021F0030103F8221003EB820A216842461B
:100D0C00204607F069FAE3682060984216D0002567
:100D1C00304606F055FB40B389F31188BFF36F8F53
:100D2C00059929B1A2690AB1204690470023059381
:100D3C00002DADD1504609B0BDE8F08F236943F0CA
:100D4C0008032361E3E718B1204607F05FFADFE7F9
:100D5C00DDE90132134337D0039107F009FF039902
:100D6C0090BB304606F02CFB78B91B4A1E491C4838
:100D7C0040F2311307F0FFF931461C4807F0FBF93C
:100D8C0040F23111144807F0EDF9009B83F3118800
:100D9C00BFF36F8FDDE9012304F12C0005F0E6F8B9
:100DAC000546EFF311898BF31288BFF36F8F304632
:100DBC0006F0F8FA00283FF478AF3046B5FA85F51E
:100DCC0006F014FB6D09A3E707AB05AA20462768BC
:100DDC0007F039FA05469BE77B950000A8950000C3
:100DEC00AA910000BD950000D3950000EA95000083
:100DFC002DE9F0410446C36908460E46984704F1B4
:100E0C0014050746EFF31188202383F31288BFF3F0
:100E1C006F8F284606F0C6FA68B91B4A1B491C4856
:100E2C00882307F0A8F929461A4807F0A4F9882165
:100E3C00154807F097F9284606F0D8FA337843F0AE
:100E4C000103337061683A46204607F0C5F96060CB
:100E5C00204607F08AFA284606F0B2FA68B90A4A20
:100E6C000D490B4840F2311307F085F929460B4820
:100E7C0007F081F940F23111DAE788F31188BFF3FA
:100E8C006F8FBDE8F08100BF7B950000A895000036
:100E9C00AA910000BD950000D3950000EA950000D2
:100EAC002DE9F843044600F11407EFF311882023D1
:100EBC0083F31288BFF36F8F384606F073FA05463A
:100ECC0068B9354A35493648882307F054F939460C
:100EDC00344807F050F988212F4807F043F9384679
:100EEC0006F084FA2369A26813F0080F02D1636834
:100EFC009A4200D9636A9B1A002B3FD0216A11F8E1
:100F0C00223013F0030001EB82093AD0022803D1FE
:100F1C0051F82260B60805D1D8071FD4E3694846BA
:100F2C0098470646A1683246204607F055F93146E7
:100F3C00A060204607F05EF9384606F041FA10BB77
:100F4C00154A1949164840F2311307F014F939467D
:100F5C00164807F010F940F23111BDE743F00203D7
:100F6C0001F822304846E369A568984729460246AD
:100F7C00204607F031F90025A060DDE71D46A946A3
:100F8C00DAE70546FBE788F31188BFF36F8F002D76
:100F9C008BD14846BDE8F8837B950000A8950000EE
:100FAC00AA910000BD950000D3950000EA950000C1
:100FBC002DE9F0410446C36908460D46984704F1F3
:100FCC0014060746EFF31188202383F31288BFF32E
:100FDC006F8F304606F0E6F968B9284A2849294847
:100FEC00882307F0C8F83146274807F0C4F8882151
:100FFC00224807F0B7F8304606F0F8F92B786FF373
:10100C0000032B7023699B0705D5E268236A03EB69
:10101C0082039D4222D12B786FF341032B70D4E9CC
:10102C000231994204D13A46204607F0D5F8A06027
:10103C003946204607F0DEF8304606F0C1F990B983
:10104C000E4A12490F4840F2311307F094F831461A
:10105C000F4807F090F840F23111C9E72B6867F39D
:10106C009F032B60E8E788F31188BFF36F8F04F1BF
:10107C002C00BDE8F04104F021BF00BF7B950000BF
:10108C00A8950000AA910000BD950000D395000022
:10109C00EA9500002DE9F84F04460846A38B190782
:1010AC00154612D4022803F0070165D1204607F03B
:1010BC0076F988B10138042800F23781DFE810F0A6
:1010CC005C0035018200D400040101280CBF43F000
:1010DC00100143F02001A1831434204606F070F96E
:1010EC00002840F09D819A499A4A9B4840F231135E
:1010FC0007F041F82146B1E003F00702501F012828
:10110C001ED80020062A2768C4E9000014D13A46EC
:10111C0003E0E08B0130E0831268002AF9D123F060
:10112C00070343F00202A283204607F038F990B37C
:10113C0042F02002A2832EE023F007039AB2F2E7DA
:10114C00042A33D123F007039AB2A283204607F076
:10115C0026F910B142F02002A283A38B03F00709F9
:10116C00894540F0EC80A18BCA0640F1508121F0FA
:10117C001003A38301F00701D4F81880A38BB8F1F6
:10118C00000FB9DA0022276823F00703C4E9002214
:10119C0043F00103A383A38B03F00709894540F0B7
:1011AC00CF80002FDFD00026B24644E06B496C4A5A
:1011BC00694840F21B1306F0DEFF40F21B11684831
:1011CC0006F0D0FF49B16749654A63484FF4AB73E9
:1011DC0006F0D1FF4FF4AB71F1E723684BB96249CC
:1011EC005F4A5D4840F2571306F0C5FF40F25711B5
:1011FC00E5E723691E684EB95C49594A56484FF4D5
:10120C00AD7306F0B8FF4FF4AD71D8E7A38B23F0A4
:10121C00070343F006039BB2A3830F4688464FF0A7
:10122C000609A268002A40F08D80002F40F08D80C6
:10123C00002E98D0BA4643F0080304F1140BA38394
:10124C00584606F0BDF8002840F09A804049414AC3
:10125C00414840F2311306F08EFF5946444806F0DF
:10126C008AFF40F23111ADE0022909D041493C4AD4
:10127C00394840F25D1306F07EFF40F25D119EE7A7
:10128C00E78B4FB13C49364A33484FF4AF7306F005
:10129C0072FF4FF4AF7192E723695E684EB9334920
:1012AC002F4A2D4840F2611306F065FF40F26111A0
:1012BC0085E7A38B23F0070343F004039BB2A383BE
:1012CC00B8464FF00409ACE7012909D02B49244A50
:1012DC0021484FF4B27306F04EFF4FF4B2716EE733
:1012EC0023684BB920491E4A1B4840F2651306F08F
:1012FC0042FF40F2651162E723699E684EB91B49B3
:10130C00174A15484FF4B47306F035FF4FF4B47117
:10131C0055E7A38B23F0070343F005039BB200278B
:10132C00A383B8464FF005097BE70C490C4A0A48E1
:10133C0040F26B1306F01FFF40F26B113FE70027E2
:10134C0000266EE74FF0010A75E7924673E700BF7F
:10135C00D39500007B950000AA91000079950000C0
:10136C00FF95000024960000309600005396000074
:10137C00EA9500006A960000809600008F960000A7
:10138C0085F31188BFF36F8FBAF1000F1CD177BBB7
:10139C0016B126492046B047EFF31185202383F37D
:1013AC001288BFF36F8F584605F0FCFF38BB204AFC
:1013BC0020492148882306F0DEFE59461F4806F0D6
:1013CC00DAFE88211A48FBE6A1680029DFD00D68F7
:1013DC000029DCD0D1F804A043464A462046D04729
:1013EC001DB12B6829461D46F2E72B46FAE7394614
:1013FC0043464A4620463F6806F0FDFFC7E758467D
:10140C0005F0F4FFA38B23F00803A383ABE68B0654
:10141C007FF562AE21F02003A38301F0070145E6BE
:10142C0085F31188BFF36F8FBDE8F88F4D14000062
:10143C007B950000A8950000AA910000BD950000C6
:10144C00F8B504460D4600F11406EFF3118720237E
:10145C0083F31288BFF36F8F304605F0A3FF68B992
:10146C000C4A0D490D48882306F085FE0C48314680
:10147C0006F081FE0748882106F074FE304605F020
:10148C00B5FFA5613A4620460121BDE8F840FFF7BB
:10149C0001BE00BF7B950000A8950000AA9100003A
:1014AC00BD9500002DE9F04704460F4606F093FF6A
:1014BC00051E68DB04F11409EFF3118A202383F372
:1014CC001288BFF36F8F484605F06CFF804660B9F9
:1014DC00384A39493948882306F04DFE4946384880
:1014EC0006F049FE8821334842E0484605F07EFF6D
:1014FC00E38BA68B4FF6FF72934206F0070645D09E
:10150C00022E15D10133E3833546484605F058FFCA
:10151C00002841D1274A2B49284840F2311306F0C4
:10152C002AFE4946284806F026FE40F23111DAE739
:10153C00062E13D8DFE806F0092D12120904090053
:10154C006FF085054FF00008DFE700233B60636810
:10155C0083B9C4E9007786B13546F3E71B491748D0
:10156C001B4A4FF4E47306F006FE19484FF4E4717D
:10157C0006F0F8FD1F606760EDE752460221204639
:10158C00FFF788FD35462846BDE8F0876FF00A0561
:10159C00D8E76FF00405D5E78AF31188BFF36F8F96
:1015AC00B8F1000FEFD0002332463946204606F042
:1015BC0022FFE8E77B950000A8950000AA910000A7
:1015CC00BD950000D3950000EA9500008F960000B1
:1015DC00FF95000008B54268816002F00302032AFF
:1015EC00034602D02AB1002000E0006800225A60B5
:1015FC0008BD05490548064A452306F0BCFD0448CC
:10160C00452106F0AFFD00BF79950000AA910000BE
:10161C00A59600002DE9F84FDFF8FCA03F4FAAEB90
:10162C0007038F2B814688460BD93D493D4A3E48DE
:10163C0040F23F1306F09FFD40F23F11394806F08F
:10164C0091FD3A4806F026FF0646002834D13C4668
:10165C0005464FF0010B544527D93549314A3248DC
:10166C004FF4A67306F087FD324806F084FD4FF464
:10167C00A671E3E7237B6BB12368DB680BB12046D3
:10168C00984723681B6943B963680422196820468C
:10169C0000F04AFA01361034DDE72046984700285E
:1016AC00F2D00BFA06F31D43F4E7E3D3B9F1000FC4
:1016BC0002D04FF0010A0DB9BDE8F88FA94695FA92
:1016CC00A5F4B4FA84F40AFA04F3260107EB041423
:1016DC006FEA030B25EA0305237B5BB1BB591B693E
:1016EC00A3B93E44042273682046196809EA0B0921
:1016FC0000F01AFA002DE2D1B8F1000F04D04FF42B
:10170C00A470002105F0CCFC4D46D4E72046984748
:10171C000028EFD1E5E700BF808F0000608F00004C
:10172C00F8960000CB960000AA9100003407002028
:10173C002897000049970000014B53F82000704790
:10174C009C8F000008B5034608462BB1044A136071
:10175C0000F020FD002008BD6FF01500FBE700BF76
:10176C000C000020014B01221A7070472E0900203A
:10177C0010B50446084806F08DFE5CB1BFF35B8FD4
:10178C00064B53E8001F013943E80012002AF8D138
:10179C00BFF35B8F10BD00BF2C070020300700206B
:1017AC000020064BBFF35B8F014653E8000F43E864
:1017BC000012002AF9D1BFF35B8F70472C07002071
:1017CC0070B5FFF7EDFF104C104E0546B44219D919
:1017DC000F49104A104840F2FF1306F0CCFC0F489A
:1017EC0006F0C9FC0B4840F2FF1106F0BBFC636825
:1017FC005B792BB123685B6813B129462046984767
:10180C001034E3E7F3D370BD608F0000808F0000CD
:10181C0028970000CB960000AA9100004997000081
:10182C0010B5044C04492046FFF7EEF9034B1C603D
:10183C0010BD00BFBC000020888F000024070020D2
:10184C00084A094808B500231370084A1360084A6F
:10185C004FF400411360FFF775FFBDE80840FFF738
:10186C00DFBF00BF2F0900209D8400002C07002043
:10187C00300700200146002201480023FFF7F6B98B
:10188C00BC0000200148FFF70BBB00BFBC000020D0
:10189C00024B01461868FFF78BBB00BF24070020E2
:1018AC00014806F06FBD00BFBC00002070B5304B86
:1018BC00187800285BD0FFF7E5FF054660B3BFF34F
:1018CC005B8F2C4B53E8001F013943E80012002AB0
:1018DC00F8D1BFF35B8F284C284EB44218D9284955
:1018EC00284A294840F2F31306F045FC274806F035
:1018FC0042FC244840F2F31106F034FC63685B7937
:10190C0023B1236829461B68204698471034E4E726
:10191C00F4D32846FFF7BCFF1D4B1E4C1B68002B55
:10192C0019DD07F067F94FF47A72A0FB020302FB92
:10193C000131C30BD4E9002043EA41439B1A4FEA1F
:10194C00D13140F2E93261EB0001934271F10001B7
:10195C0001D3FFF735FFD4E9003213F57A7342F166
:10196C000002C4E90032BDE87040FFF799BF70BDBA
:10197C002E09002030070020608F0000808F0000AF
:10198C0028970000CB960000AA9100004997000010
:10199C002C0700202005002013B52A4806F07AFDFC
:1019AC00294B1B78002B35D0EFF31184202383F3C4
:1019BC001288BFF36F8F254805F0F4FC68B9244AF0
:1019CC0024492548882306F0D6FB2049234806F0F5
:1019DC00D2FB88211E4806F0C5FB1C4805F006FD0D
:1019EC00FFF764FF194805F0EBFC68B9184A1C496D
:1019FC00194840F2311306F0BEFB1449194806F0A1
:101A0C00BAFB40F23111E5E784F31188BFF36F8F15
:101A1C0002B010BD144B1B68002BF9D038B9002252
:101A2C0000231248CDE9002306F010F8F0E709284E
:101A3C00EED10E4807F0E0F80D4802B0BDE81040BA
:101A4C0004F03CBA300700202F09002020070020AA
:101A5C007B950000A8950000AA910000BD950000A0
:101A6C00D3950000EA9500002807002028050020E7
:101A7C001001002010B5064B1B6804469847214600
:101A8C00A0600448FFF7B4F9BDE81040FFF784BF2D
:101A9C000C000020BC00002070B5154D297829BB26
:101AAC000120FFF7B7FD134C134EB44217D913495D
:101ABC00134A14484FF4DC7306F05DFB124806F031
:101ACC005AFB0F484FF4DC7106F04CFB63685B79F2
:101ADC001BB1236820469B6898471034E5E7F5D383
:101AEC00FFF7E4FE0028FBD101232B7070BD00BF73
:101AFC002F090020608F0000808F000028970000C5
:101B0C00CB960000AA91000049970000044A054BAF
:101B1C009B1AB1EBD30F34BF52F831000020704741
:101B2C00108F0000608F00000E4BC31A1B11013385
:101B3C0010B5DBB248B90C490C480D4ADF2306F04E
:101B4C001AFB0B48DF2106F00DFB44682371436838
:101B5C009A7143681960436801225A71BDE81040BC
:101B6C00FFF700BE608F0000EC970000AA91000008
:101B7C00B49700002DE9F04F8FB004AFC1F34A28A1
:101B8C00B8600D4691467B600C0DB8F1000F68D023
:101B9C00002607F114034FF0040B4FF00A0AC7F8A4
:101BAC000C80C7E907667E620193CDF808B0CDF8CA
:101BBC0000A007F11C03F96832464846FEF7D0FD39
:101BCC00B0F5006F03461CD36C468AB0D9F80410EC
:101BDC0004AB2C48C3E9050140F2FF71D9611A46E8
:101BEC004FF400711984284B42F8103F27483346B4
:101BFC004FF41251FFF7BEFFA5462C37BD46BDE88A
:101C0C00F08FC0F30A0804F11700184420F0070005
:101C1C0080083B60FFF72EFE68F35325044640B363
:101C2C003B681B4AC7E9083600F1100107F11403A1
:101C3C00F961CDE900A3CDF808B0F96807F11C03F0
:101C4C004846FEF78DFD002813DA12491248134A54
:101C5C004FF4A27306F08FFA10484FF4A27106F0FD
:101C6C0081FA04F1170020F007008008FFF702FE4C
:101C7C00044668F353257B68B9682A46204606F06B
:101C8C004AFCBAE70C98000004000001288F000001
:101C9C00F784000078980000AA9100004B9800008F
:101CAC002DE9F04F87B0DDE91269DDE9105A0446E1
:101CBC000F4693469846BEB11021CDF8009033469E
:101CCC0052460020CDF81490FEF734FB011E0CDABE
:101CDC002149224A224840F2631306F04CFA40F2A2
:101CEC0063111E4806F03EFA314605F11700084410
:101CFC001C4B039104F007040BF0070BE40020F0DD
:101D0C00070003EA412344EA8B1480081C43FFF7C5
:101D1C00B1FD44EA05540546A0B19EB10399CDF836
:101D2C000090334652461030FEF704FB002809DAC7
:101D3C0009490A4A0A4840F27D1306F01CFA40F29F
:101D4C007D11CEE7434622463946284607B0BDE80A
:101D5C00F04F06F0E0BB00BF779800004B980000F6
:101D6C00AA91000000FE0F00406820B1034BC01A7E
:101D7C0040F3CF0070474FF0FF307047108F0000DA
:101D8C000EB403B503AB014653F8042B044801937E
:101D9C0001F0F2F902B05DF804EB03B0704700BF3C
:101DAC00CD1D0000CA0605D48B064CBF0249034961
:101DBC00FFF7E6BF704700BFBCA900008198000088
:101DCC0038B54B681A68CB689A4205460C4602D166
:101DDC00084606F011FC6368BFF35B8F53E8002FD5
:101DEC00511C43E800100028F8D1BFF35B8FA368A7
:101DFC009D5463681A68E3689A4209D905490648F4
:101E0C00064A7A2306F0B7F904487A2106F0AAF9B3
:101E1C00002038BDB3980000AA91000084980000FF
:101E2C002DE9F04F89B09B46149B06939DF84CA06E
:101E3C00159B0593169B179E049304460D469046DE
:101E4C00BAF1000F00F0AD80BAF1040F0BD9A34921
:101E5C00A34AA44840F2622306F08DF940F26221B5
:101E6C009F4806F07FF906F48073079306F03BFB5E
:101E7C0006F00209024600283FD09B492046FFF796
:101E8C007FFF0746B9F1000F08D016F0440F36D18A
:101E9C0096492A462046FFF773FF074406F00103D4
:101EAC0053B1934B934953F82A20934B2046002A65
:101EBC0008BF1A46FFF764FF06F48073002B4AD064
:101ECC0006F00803002B64D1B8F1000F67D08B49E2
:101EDC0042462046FFF754FF0546069B3D44002B27
:101EEC006ED1049B002B40F08380F30700F1F0804F
:101EFC0031462046FFF756FFE4E00746C2E7804B29
:101F0C0018680028C9D07F4B4FF47A791B68B5FB51
:101F1C00F3F54FF46161B5FBF0F300FB135509FBCE
:101F2C0005F54FF03C0CB3FBF1F201FB1231B5FBA4
:101F3C00F0FEB1FBFCF300FB1E550CFB131109FB6F
:101F4C0005F50091B5FBF0F56F49CDE901E52046AB
:101F5C00FFF716FFA1E706F00803EBB16B4B6C49DA
:101F6C0053F82A202046FFF70BFF0546B8F1000F67
:101F7C0005D0624942462046FFF702FF0544BBF1FB
:101F8C00000FAAD063495A462046FFF7F9FE0544D4
:101F9C00A3E74FF0000BE1E706F00805E6E745463E
:101FAC009BE7BBF1010F069B06D1DBB9049B002B11
:101FBC0000F0888000251BE0002BF7D0564812E07B
:101FCC005648069B5649224606F065F800280CDA5E
:101FDC005449434A43484FF42F7306F0CCF84FF45E
:101FEC002F713DE74D485546EBE7049B002B65D020
:101FFC00DFF83481DFF83491049F3146102F2046EE
:10200C0028BF1027FFF7CEFE4FF0000B5D4542DCDA
:10201C00059B49461A782046FFF7B2FE4FF0010B9C
:10202C001BF0070F03D141462046FFF7A9FE5F4581
:10203C0038D9059B494613F80B202046FFF7A0FE24
:10204C000BF1010BBBF1100FEAD1394920464FF0CF
:10205C00000BFFF795FE5A46059B9A5CA2F12001F6
:10206C005F2928BF2E2233492046FFF789FE0BF14A
:10207C00010BBBF1100F1AD01BF0070F03D1414617
:10208C002046FFF77DFE5F455A46E5D8414620467F
:10209C00FFF776FEEBE741462046FFF771FE0BF1AA
:1020AC00010BB3E724492046FFF76AFEC8E7059BFE
:1020BC003B440593049BDB1B04939DD1BAF1000FA9
:1020CC007FF413AF204609B0BDE8F04F06F094BA88
:1020DC00094A08492046FFF753FE09E7E898000033
:1020EC0084980000AA910000F4980000F898000071
:1020FC00AC8F00001D990000E398000020990000AF
:10210C003C0700203807002001990000C08F000018
:10211C00249900002A9900001F860000CD1D0000A4
:10212C00853100002F99000040990000389900007B
:10213C0042990000449900003E99000073B542F2A8
:10214C000F738B4228BF0B4605680F4A04460521C6
:10215C00684605F0EBFC63680C495B6806460B228D
:10216C00284606F03BFA63683246694628465B68A7
:10217C0006F034FA636806495B681B22284606F0B1
:10218C002DFA02B070BD00BF1F9B000063990000C8
:10219C0047990000074A00210123904206D8064ABD
:1021AC0001B901231360054B1860704740085B00B0
:1021BC000121F2E740420F00380700203C070020C5
:1021CC00014B01221A70704730090020014B00208E
:1021DC001960704754070020024B034801221A7003
:1021EC0006F00ABA31090020F08F00000148FFF711
:1021FC00A5BF00BFF08F000010B5064B18680C4649
:10220C00FFF79AFA21460346BDE8104002480F2218
:10221C00184700BF54070020F08F000010B9074B7F
:10222C0018707047064B1B781BB141F2883006F0D2
:10223C0058BCA420002104F033BF00BF300900209B
:10224C00310900202DE9F843DFF874901D4F8046CA
:10225C000E46042499F8005095B903F093FA2846D9
:10226C003246414603F040FA054603F095FAE5B1D3
:10227C0001233B7099F8003073B93046BDE8F88300
:10228C0032464146002003F02FFA0546EFE7204680
:10229C00FFF7C4FF651E2C46002003F069FA0028E6
:1022AC00EBD03B78002BF2D1E7E73B78002BE4D066
:1022BC00013C2046FFF7B2FF3B78002BCAD1DCE78C
:1022CC003109002030090020F8B5074F0D460446AF
:1022DC004618B44201D12846F8BD14F8011BBB685E
:1022EC0001485B689847F4E7C48D000010B543685B
:1022FC001C68094806F0F9FB48B908490848094A1E
:10230C00992305F038FF0748992105F02BFF236826
:10231C005B685C6010BD00BFC48D0000DD990000DF
:10232C00AA9100009F990000014B036000207047A8
:10233C003490000008B5044805F007FFBDE80840DC
:10234C00024805F002BF00BF119A0000469A000037
:10235C002DE9F047064600AF0C46002936D0E94679
:10236C008AB0D1E90012A3686D462148A8464FF007
:10237C00050AC5E90501C5E9072348F810AF1D4852
:10238C00424600234FF42151FFF7F4FBCD46D4E92C
:10239C0003126369AD461848C5F810A0C5E90501DC
:1023AC00C5E907231348002342464FF42151FFF798
:1023BC00E1FBCD46E369114A0E48012106F004F910
:1023CC00A3690F4A0B48012106F0FEF8012E07D134
:1023DC00EFF305830B4A0748103B314606F0F4F83F
:1023EC002146304603F010FABD46BDE8F08700BF29
:1023FC00749A0000488F0000A39A0000D29A000043
:10240C00E19A00000F9B000030BFFFF7FDBF00BF3B
:10241C002DE9F0410B4EDFF8308006EB0807CC1BA2
:10242C00054632460949204606F065FCA01942468D
:10243C000021083C06F06DFC2C6707F10800BDE894
:10244C00F08100BF0000000004000000808F00003D
:10245C00074A936893F90E10002907DB52699342DF
:10246C001FBF044A536843F080535360704700BF4A
:10247C00E008002000ED00E070B5294C06460D4642
:10248C002848294906F035F9A36AD9043CD52548D2
:10249C00264906F02EF91720A36A1A0504D52148FF
:1024AC00234906F026F918201D4CA36A9B0512D56A
:1024BC001C48204906F01DF9A36BA26A100409D52B
:1024CC001D4A1848012106F07FF81EB1A36A23F4B7
:1024DC000043A3621920124CA36A590504D5114874
:1024EC00164906F006F91A20A36ADA050ED50D482E
:1024FC00134906F0FEF81B20094A936A43F47F4304
:10250C00936200232B7070BD1620C5E7A36A9B0451
:10251C00F2D504480B4906F0ECF81C20ECE700BFA0
:10252C0000ED00E0488F0000229B0000389B00006B
:10253C00499B00005C9B0000759B00008A9B00007F
:10254C00A59B0000BD9B000010B5204C20492148E4
:10255C0006F0CFF8A36A990136D51E481E4906F03D
:10256C00C8F81E20A36ADA0104D51A481B4906F0E4
:10257C00C0F81F20154CA36A1B0304D51548184935
:10258C0006F0B7F82120A36A590304D51148154960
:10259C0006F0AFF822200D4CA36A9A0304D50D481F
:1025AC00114906F0A6F82320A36ADB0304D50948D9
:1025BC000E4906F09EF82420044A936A6FEA0343FE
:1025CC006FEA1343936210BD1D20CBE700ED00E0D2
:1025DC00EC9B0000488F0000049C0000179C00003E
:1025EC00319C00004F9C0000749C00008E9C0000ED
:1025FC002DE9F8433F4D804689463F483F491746F1
:10260C0006F077F8AB6ADA0627D53D493A4806F06A
:10261C0070F81124AB6A1B0704D53A49364806F00A
:10262C0068F81224334DAB6A9E0718D536493248E8
:10263C0006F05FF86E6BAB6A1C0646D5334A2E4823
:10264C003346012105F0C0FFB9F1000F03D0AB6A8E
:10265C0023F08003AB62132403E01024DAE76FF05D
:10266C001506244DAB6AD80704D52949224806F033
:10267C0040F81424AB6A990604D526491E4806F086
:10268C0038F815241B4DAB6ADA0602D4AB6A9B07EB
:10269C000AD56B68180507D54146304600F0F8FAA4
:1026AC00B0B180F309880224124B9A6A920642BF99
:1026BC005A6A22F400525A629A6A42F0FF029A62F3
:1026CC0000233B702046BDE8F8836FF01506C2E787
:1026DC00AB6AD906E8D51049104A114840F25D138F
:1026EC0005F049FD0F4805F046FD0C4840F25D1120
:1026FC0005F038FD00ED00E0488F0000B99C0000AB
:10270C00CF9C0000499B0000029D00001A9D000018
:10271C00309D0000BD9B0000819D00004F9D00007E
:10272C00AA910000CB9D0000F0B5794B8BB004460C
:10273C00586800AFC0F30803002686F31188BFF376
:10274C006F8F02F07F45B5F17F4F07D102F00C057A
:10275C00082D12D16F49704805F0CBFF6F49704AB4
:10276C0070484FF48B6305F006FD6F4805F003FDD0
:10277C004FF48B616A4805F0F5FC15074CBF0C460D
:10278C000126002CEAD00022FA71DA1E092A00F286
:10279C009E80DFE802F0059497779C9C9C9C9C9A09
:1027AC0062495D485A4D05F0A4FF0023FB71EB6AAA
:1027BC009A0705D55E49584805F09BFF002329E090
:1027CC00EB6A002B01DA5B49F5E7EB6A5B0069D534
:1027DC005949514805F08DFF6B69A26943F4807328
:1027EC006B61BFF34F8FBFF36F8F6B6932F8022CA5
:1027FC0023F480736B61BFF34F8FBFF36F8F4DF674
:10280C0002739A4227D123684C4A4348012105F0B0
:10281C00DBFE2368FA79DAB907F1080504F1200C1C
:10282C00206861682A4603C2083464451546F7D10E
:10283C007A6A002E67D0C2F3080121B96FEA5222DE
:10284C006FEA42227A6207F108011846FFF780FD11
:10285C002C37BD46F0BDAB6ADBB233B1FA1D01219A
:10286C002046FFF7C5FE0346D4E7AB6A13F47F4F4F
:10287C0004D0F91D0120FFF7FFFDF4E7AB6AB3F5B7
:10288C00803F02D3FFF760FEEDE72D49244A25482F
:10289C0040F22A3305F06FFC2A4805F06CFC40F23C
:1028AC002A3167E726491E4A1E4840F22E3305F0AE
:1028BC0062FC254805F05FFC40F22E315AE7FA1D08
:1028CC000021CDE7F91D0020D5E7204973E7204A08
:1028DC00204910F4F87F6D468AB018BF11466A463D
:1028EC00103BD3611C484FF4007313841B4BC2E99B
:1028FC00050142F8103F084800234FF41151FFF72F
:10290C0039F9AD465AE722F4FF7222F0010299E739
:10291C0000ED00E01C9E0000488F0000479E000068
:10292C004F9D0000AA9100005A9E0000989E000046
:10293C00AF9E0000D09E0000DE9E0000FD9E0000B9
:10294C0079950000199F00003D9F00006D9F0000CD
:10295C00039E0000EE9D0000919F0000040000010A
:10296C00024A536943F010035361704700ED00E0D5
:10297C00EFF30880EFF3098101B57246FFF7D4FE3F
:10298C0001BD00BF002080F31488BFF36F8F01F0EE
:10299C00CBFC00200D490860BFF34F8F0C4880F32F
:1029AC00088800F02BF8202080F3118809484FF498
:1029BC000461401880F30988EFF314800221084366
:1029CC0080F31488BFF36F8F00F02AF994ED00E0C8
:1029DC00401B0020800D00200749D1F890200023D7
:1029EC00C2F307221846934200DB7047C1F89830B7
:1029FC00C1F8A0000133F6E700ED00E008B572B6AF
:102A0C00002383F31388FFF7E7FF144B4FF0FF32DB
:102A1C00C3F88020C3F88420C3F88820C3F88C2026
:102A2C00C3F89020C3F89420C3F89820C3F89C20D6
:102A3C00C3F88021C3F88421C3F88821C3F88C2102
:102A4C00C3F89021C3F89421C3F89821C3F89C21B2
:102A5C0062B6BFF34F8FBFF36F8F08BD00E100E08C
:102A6C00084B9B6883420BD1EFF3058343B1064BB4
:102A7C005A6842F080525A605A6A22F400425A62F2
:102A8C0004F04ABBE008002000ED00E0094A93681E
:102A9C006FF00A019967084958674B6843F08053F7
:102AAC004B60002383F31188BFF36F8F9368986F8B
:102ABC00704700BFE008002000ED00E010B50446B0
:102ACC00EFF31183202383F31288BFF36F8F0A4B2C
:102ADC0058699860094B4FF000625A60084B026FBE
:102AEC001A600022436F426783F31188BFF36F8F24
:102AFC0000F036F9204610BDE008002000ED00E0A3
:102B0C007C0700200B498A684FF030001044EFF32B
:102B1C00098C80E8F01F74467046FFF7CFFFA6467D
:102B2C0004498A6802F1300090E8F01F8CF30988A0
:102B3C0070470000E00800201EF0040F0CBFEFF3FC
:102B4C000880EFF30980816911F8021C0229FFD07B
:102B5C0001B505F0C3FD01BD40B2002807DB044AF6
:102B6C004109012300F01F00834042F821307047D7
:102B7C0000E100E040B200280CDB4309064900F0FC
:102B8C001F0020330122824041F82320BFF34F8FD6
:102B9C00BFF36F8F704700BF00E100E0054B4209A7
:102BAC0000F01F0053F82220012303FA00F010401C
:102BBC00704700BF00E100E038B54B1C072B044602
:102BCC000D460FD9114A12491248582305F0D3FA71
:102BDC00114829460723224605F0CDFA0B48582107
:102BEC0005F0C0FA40B20028ACBF00F160400B4ABF
:102BFC004FEA4313B8BF00F00F00DBB2AABF00F5D9
:102C0C006140135480F8003338BD00BFA49F00000E
:102C1C00DB9F0000AA910000F69F000014ED00E07D
:102C2C000B4A08B50B4B22F07F029A60BFF34F8F13
:102C3C00BFF36F8FD3F8882022F47002C3F888207A
:102C4C0002F006FF04F0DAFB00F060F802F044FF3B
:102C5C000000000000ED00E042F8203C009B42F830
:102C6C001C3C0A49019B42F8183C029B42F8143C5C
:102C7C0021F001014FF0807342F8043C42F8081C2B
:102C8C000023203A02654367704700BFE10B000048
:102C9C00094A0346906870B113F1160F006E05D007
:102CAC00A0F140029A4205D8834203D2814228BF48
:102CBC000020704700207047E008002008B515463A
:102CCC000B4A0C4B9060026F1A600E4600F048F8ED
:102CDC002C4686F309884FF00000074B9847204696
:102CEC004FF000014FF000024FF00003034C20475F
:102CFC00E00800207C0700200F870000E10B00009B
:102D0C00014B10221A61704700ED00E004480023CB
:102D1C002021C2180133272B82F80013F9D17047F8
:102D2C0000E100E008B5EFF30583064A103B02EB27
:102D3C00C30152F8330049688847BDE80840FFF7E3
:102D4C0087BB00BFD88D0000024B034A034801210A
:102D5C0000F08AB800000120000000203490000030
:102D6C00026E054B403A1A60044A4021C3E9011235
:102D7C001846012100F09EB88007002000000B15BA
:102D8C0008B503461048D0F89020C2F30722013A48
:102D9C00934207D90D480E4A012105F015FC6FF03E
:102DAC00150008BDC0F898300A6822F01F021A43BB
:102DBC0042F01002C0F89C208A6842F00102C0F870
:102DCC00A0201846EDE700BF00ED00E0408F0000AA
:102DDC003AA00000F0B50E4685B01F46044600250B
:102DEC00B5420DDA606810B397B1431E18420AD091
:102DFC00104A11482B46012105F0E6FB6FF0150235
:102E0C00104605B0F0BD1F28F2D921680B42EFD156
:102E1C002368019305F098FCA36801A90343D0B281
:102E2C000393FFF7ADFF10F1160FE7D0421C0135ED
:102E3C000C34D5E760A00000408F0000044B052245
:102E4C00C3F89420BFF34F8FBFF36F8F704700BF51
:102E5C0000ED00E0BFF35F8F024B0022C3F894201B
:102E6C00704700BF00ED00E038B50D4D01232A7806
:102E7C000C46FFF7AFFF287016300FD1094A0A49EC
:102E8C000A4840F2671305F076F90948214605F027
:102E9C0072F9044840F2671105F064F938BD00BFBF
:102EAC004309002083A0000079950000AA9100003E
:102EBC00B2A0000010B5144A002312780C46FFF79C
:102ECC0089FF10F1160F08D0104A0021D2F890306B
:102EDC00C3F30723984210DB10BD0D4A0D490E4871
:102EEC004FF4C37305F047F90C48214605F043F93C
:102EFC0007484FF4C37105F035F9C2F89800C2F8D1
:102F0C00A0100130E2E700BF4309002000ED00E013
:102F1C0083A0000079950000AA910000DEA00000BB
:102F2C002DE9F04F7B4C7C49D4F890300D68C3F3FD
:102F3C0007239D4285B013D9784A794979484FF4D3
:102F4C00CF7305F018F9D4F8902077482946C2F3CE
:102F5C00072205F010F94FF4CF71704805F002F913
:102F6C00FFF778FF49680022954201F10C012DD141
:102F7C006E4C6F4F25706846FFF7D6F9DFF8B481B9
:102F8C00DFF8B49106460025AE4232D12378614970
:102F9C000020D1F89020C2F307229342C0F2AF80F8
:102FAC00FFF74CFFD1F89030C3F30723082B00F048
:102FBC00AC806249594A5B4840F20E2305F0DBF8BD
:102FCC005F4805F0D8F840F20E21C6E7C4F8982007
:102FDC0051F80C3C23F01F03134343F01003C4F8C7
:102FEC009C3051F8043C43F00103C4F8A03001328A
:102FFC00BAE7009A02EB05132901D3F80CA00AEAF0
:10300C000700B0F5000F60D00AD8B0F5001F38D01B
:10301C00B0F5800F4ED0B0F5801F12D00135B3E75C
:10302C00B0F1807F5CD0B0F1007FF7D19868D3F815
:10303C0004A0525805F088FBCDE901A240F4802091
:10304C000BE09868D3F804A0525805F07DFBCDE94D
:10305C0001A240F0885040F430200390207801A960
:10306C00FFF78EFE002846DA2D492C4A2D484FF4E6
:10307C00E47305F080F8334805F07DF84FF4E47103
:10308C006BE79868D3F804B0525805F05DFB1AF062
:10309C00010F40EA0800CDE901B20390DED02A49C5
:1030AC001E4A20486C2305F066F8284805F063F8A2
:1030BC006C2152E79868D3F804A0525805F044FBF1
:1030CC00CDE901A240EA0900C7E79868D3F804A04B
:1030DC00525805F039FBCDE901A240F08270BCE7F3
:1030EC009868D3F804A0525805F02EFBCDE901A244
:1030FC0040F08870B1E72378013323708EE7C1F874
:10310C009830C1F8A000013343E7002005B0BDE8BA
:10311C00F08F00BF00ED00E04090000083A00000A5
:10312C0079950000AA9100000BA100004309002032
:10313C000000F0FF0000081100000207BEA1000013
:10314C000EA2000094A100003FA1000065A10000A8
:10315C0008B5024B1B689847002008BD8C0700205F
:10316C00034B044A1860937843F002039370704742
:10317C008C07002018000020F0B587B007460E46DB
:10318C0014460021102268461D4605F0C2FD02239C
:10319C008DF802302A46054B019321466846CDE94D
:1031AC00047604F0EFFC07B0F0BD00BF758700009B
:1031BC0008B50649064821F00701C1F1005202F595
:1031CC008032FDF729F8002008BD00BF871B0020C6
:1031DC0090070020044A0123C2F840354FF080428A
:1031EC000020C2F87835704700E0014020B1034B55
:1031FC00800143F001031847704700BF808F000027
:10320C0037B50C460A490B4A411A40230093491121
:10321C0005462346084805F0B2FA011E05DA284691
:10322C00234603B0BDE83040184703B030BD00BFA3
:10323C00B0070020F38700009C8D0000C9B2012963
:10324C0008B509D908490948094A7A2304F093FFBB
:10325C0007487A2104F086FF03690C2201FB023334
:10326C00986C00F0070008BD7FA20000AA91000036
:10327C0042A2000070B5C9B2012903690BD91849E3
:10328C001848194A40F25D1304F075FF164840F2D5
:10329C005D1104F067FFEFF31185202484F312888D
:1032AC00BFF36F8F0C2606FB0134A46C14F0C00422
:1032BC0008D0A24206D085F31188BFF36F8F4FF070
:1032CC00FF3070BD71430B4401229A6485F3118861
:1032DC00BFF36F8F43680B445B6898470020F0E79F
:1032EC007FA20000AA91000042A2000070B50D461A
:1032FC000649411A0446491105484022FFF7BAFF16
:10330C002B4601462046BDE870401847B007002008
:10331C009C8D0000002270B5012104461046FFF779
:10332C004BFC0F4801F000FA0E4B984215D101F0FE
:10333C000BFA26690C49304605F073F800280BDBB4
:10334C000125B5642469084904F1200005F069F8E9
:10335C00002801DB6565002070BD6FF00400FBE701
:10336C00513400000000AD0B609000001FB500222E
:10337C000123CDE90223094ACDF800D06B46CDF8E4
:10338C0004D005F029FA002805DB4FF48042002315
:10339C00684602F0EBFD05B05DF804FB0588000003
:1033AC0010B5074C23782BB94FF4A57005F099FB99
:1033BC0001232370BDE81040002001F0EBB900BFE1
:1033CC004409002010B5EFF31184202383F31288F5
:1033DC00BFF36F8F074A136823F00201DB071160FC
:1033EC0002D4012001F06AFA84F31188BFF36F8FC5
:1033FC0010BD00BF0808002030B4104B0C2202FB9B
:10340C00003301460020D3E910521864EFF3118009
:10341C00202484F31288BFF36F8F9C6C04F0C004DB
:10342C0044F002049C6480F31188BFF36F8F1DB1CC
:10343C002B46034830BC184730BC7047B0070020FF
:10344C009C8D0000012808B506D0042808D098B936
:10345C000F4B9B6C5B0719D1BDE80840FFF7CCBF45
:10346C000C490D4A0D4840F26E2304F084FE40F2E4
:10347C006E21094804F076FE0649074A074840F2D7
:10348C00722304F078FE40F27221F2E708BD00BF0F
:10349C00B00700207995000042A20000AA9100001C
:1034AC0010B4EFF31182202383F31288BFF36F8FD4
:1034BC001748016841F002040460C80707D482F37E
:1034CC001188BFF36F8F012010BC01F063B94FF06E
:1034DC008041D1F80C04D1F80C14C907EFD5EFF3E7
:1034EC00118083F31288BFF36F8F0A498B6C03F042
:1034FC00C00343F002038B6480F31188BFF36F8F1A
:10350C0082F31188BFF36F8F002010BCFFF774BFDC
:10351C0008080020B00700202DE9F0414449BFF312
:10352C005B8F0646012251E8003F41E8002000284D
:10353C00F9D1BFF35B8FA3B93E493F484B60CB60D9
:10354C008A60FDF7AFFF00280BDA3C493C4A3D4846
:10355C004FF40C7304F00FFE4FF40C71384804F068
:10356C0001FE76B3731E012B58D8012E07D14FF0F4
:10357C008043D3F81C3403F00303012B21D005F056
:10358C00F7FA0546F8B9304B1B78E3B14FF080439E
:10359C000222C3F808230746DFF8B0804FF08044BE
:1035AC00D4F81824D4F81834D20315D503F0030337
:1035BC00012B01D0012E0FD155B387F31188BFF326
:1035CC006F8FBDE8F081EFF31187202383F312880E
:1035DC00BFF36F8F0125DFE7ADB1384605F0A5F8D5
:1035EC00D4F81835002BDBD1D4F80421002AD7D01D
:1035FC00C4F80431D4F804310123C4F81835C8F8E0
:10360C008031A360CCE70021212003F049FDE7E7DE
:10361C004FF080430222C3F80423D2E70C49084A36
:10362C00084840F2422304F0A6FD40F2422195E7FF
:10363C00AC0700209C070020D00700202F99000029
:10364C0042A20000AA910000570D002000E100E00A
:10365C007995000008B5074805F047FA38B10648D7
:10366C00FFF77EFD0448FDF7AFFA002008BD6FF0B0
:10367C001200FBE7C48D0000893600000A2838B51B
:10368C00074D044604D1AB680D215B68284698476A
:10369C00AB6803485B68E1B29847204638BD00BF71
:1036AC00C48D000010B5036961B92049204A214836
:1036BC003A2304F060FD204804F05DFD3A211C48DB
:1036CC0004F050FD486850B91C49194A19483B236D
:1036DC0004F051FD1A4804F04EFD3B21EFE7586809
:1036EC00F8B1884219D19C6808685860A14200D191
:1036FC009860002008602AB15A680A609A6859607C
:10370C0002B99960002010E0814206D1086820605F
:10371C0098688142EDD19C60EBE704460068002874
:10372C00F2D1002AE8D16FF0150010BD08A30000FB
:10373C00CCA20000AA91000011A3000020A300005D
:10374C0032A3000038B545682B69B3B11035284653
:10375C0001F0E8FB044680B90146284601F0A8FBBD
:10376C00084B98420BD108492246284601F070FBC1
:10377C00224605210620FFF71FFA002038BD6FF006
:10378C000400FBE70000AD0BB938000008B5026877
:10379C00530904D14FF0FF33D340DB070BD4074957
:1037AC000748084A40F2693304F0E5FC054840F24A
:1037BC00693104F0D7FC4FF0A04008BD7CA3000099
:1037CC00AA91000049A30000F0B54068057B01F008
:1037DC001F0444EA4514056987B0002D5BD0B2F58F
:1037EC00001F00F1100506D12146284605F04BF9C3
:1037FC00002007B0F0BD01AE0027B2F5800F019795
:10380C00776033D1B3F1007F14BF052304238DF807
:10381C0004300023CDE9046303938368CB40D907BC
:10382C0016D4B2F1A07F13D168460094FFF7AEFF17
:10383C0004F5E07350F82330DB0709D46A462146BF
:10384C00284601F00BFB174B98421AD0CDF808D044
:10385C0003AA2146284601F0D1F9134B98421DD1F9
:10386C0001222146284601F073FBC1E7B3F1C06F7A
:10387C0005D0B3F1007F14BF01230223C7E7032354
:10388C00C5E76946284601F05DFB074B9842DDD041
:10389C006FF00B00ADE76FF08500AAE76FF0150035
:1038AC00A7E700BF0400AD0B0000AD0B430970B5DA
:1038BC0007D1124B596821B101250C68104E854077
:1038CC0001B970BD8A682A4010D04B6863B90D49A4
:1038DC000D4A0E485D2304F04EFC0D4804F04BFCE1
:1038EC0009485D2104F03EFC304698471CB1236822
:1038FC0021461C46E4E72346FAE700BF0C080020EB
:10390C00B08D00009FA30000CCA20000AA91000083
:10391C0032A300002DE9F043466840F20635337BB4
:10392C00D00687B001F01F0702EA050547EA4317E6
:10393C0054BFC2F340130323B5F5837F14468DF8AF
:10394C00033043D00FD8062D18D007D8B5B1022DAF
:10395C003ED06FF0150007B0BDE8F083B5F5807F61
:10396C00F7D101250AE040F20222954232D0B5F59A
:10397C00407F31D0B5F5007FEBD1022522032DD548
:10398C00726801238B40C2F80835336973BB03A8F6
:10399C000397FFF7FBFE84F4803300EB8700C3F33F
:1039AC000043C4F34044D0F8002744EA43049DF894
:1039BC00033022F4E16244EA830422F0070244EA71
:1039CC0005231343C0F800370020C4E70725D5E7CB
:1039DC000425D3E70525D1E70325CFE7630341BFD2
:1039EC00012372688B40C2F80C35CEE710360DF10E
:1039FC0002023946304601F031FA14F4403F804659
:103A0C0017D13946304605F03CF8254B9845DBD1AB
:103A1C009DF80210304601F08FFA4045D4D0214970
:103A2C002148224AAB2304F0A6FB2048AB2104F02A
:103A3C0099FB01AB4FF0000903AA39463046CDE99A
:103A4C000439CDE90199CDF80C9001F0D7F8144B5D
:103A5C0098427FF47EAF14F4003315D09DF80330F8
:103A6C008DF80E3084F48034C4F300444B4603AA22
:103A7C00394630468DF80C508DF80D4001F06CF93C
:103A8C00074B9842C1D064E7CDE9043303AA0DF18A
:103A9C00030339463046039301F0B0F8F0E700BF5A
:103AAC000000AD0BD7A30000AA910000ABA300004F
:103ABC0008B50268530904D14FF0FF33D340DB073C
:103ACC000BD407490748084A40F2693304F053FB0A
:103ADC00054840F2693104F045FB4FF0A04008BDA9
:103AEC007CA30000AA91000049A300002DE9F04F2F
:103AFC00DFF854B185B01546824600EB810840F2E0
:103B0C00FF19D04503D1002005B0BDE8F08FDAF8DD
:103B1C0000305A04C3F3C321C3F3080400F18E80B0
:103B2C004A4A5B0C575C4C4508BF4FF0FF34192BCD
:103B3C0000F28780DFE803F00D141A1D20261D8586
:103B4C0085858535618585858585858585856479BA
:103B5C007C7FC5F80C45631C5CD10AF1040AD0E7E4
:103B6C00C5F81445661CF8D000265CE0C5F808457D
:103B7C00F1E7C5F81045F5E7601CC5F80845ECD031
:103B8C00002604E0611CC5F80C45E6D0012603A80C
:103B9C000394FFF78DFF012101FA04F3C0F80C35F3
:103BAC0008E0C5F80845002FDCD1631CD5D00026F1
:103BBC0031460627DAF80030019303F40040002860
:103BCC0018BF002103A8009118BF01260394FFF72A
:103BDC006FFF019B009900EB8400C3F3412CD0F8DC
:103BEC0000473B0243EA8C030B4304EA0B042343D8
:103BFC0043EA4603C0F80037AFE7C5F80C45D2E7F7
:103C0C00C5F86045621CDAF80030A6D0C3F3004357
:103C1C00002BBBD003A80394FFF74AFF012606FA3A
:103C2C0004F3C0F808353146C4E7C5F86445E9E744
:103C3C00C5F86845E6E7C5F86C45E3E76FF0150095
:103C4C0062E76FF085005FE7F0F8FCFFF9A3000076
:103C5C002DE9F3410022064601210220FEF7ACFFBC
:103C6C000220FEF779FF776835693C680021C4F8BB
:103C7C0000152E60D7F80C8001AA404604F0EEFD2A
:103C8C000028C0F29580019BD8F80020197918689B
:103C9C00FFF72CFF0028C0F28B806B7A012B21D10F
:103CAC00AB7A032B1ED1E87A08B101281AD12A7AF3
:103CBC0012B1022A16D10E226B687168B3F5164F39
:103CCC00D1F800C077D02BD8B3F5165F76D014D8C6
:103CDC00B3F5966F74D008D8B3F5967F73D0B3F55F
:103CEC00167F73D06FF0850062E0B3F5166F70D05D
:103CFC00B3F5965FF6D15B4B3CE0B3F5E14F6BD07F
:103D0C0007D8B3F5615F69D0B3F5964FEAD1564B3E
:103D1C0030E047F612218B42E4D14FF4000329E046
:103D2C00B3F5613F5CD013D8B3F5963F5BD009D89F
:103D3C004DF6C0218B4258D0B3F5614FD2D14FF420
:103D4C006B0317E0B3F5E13FCCD14FF0EB7311E00F
:103D5C00B3F5612F4CD008D844498B424BD0B3F506
:103D6C00E12FBFD14FF0E86304E041498B42B9D158
:103D7C004FF080533169CCF8243573681B680243CB
:103D8C00C3F86C250B1DD5E9010183E803007B68A2
:103D9C0099073FD505F1180001F004FA354B98420C
:103DAC002CD03548354A012104F005FC6FF0040095
:103DBC0002B0BDE8F0814FF41D03DBE7304BD9E7CF
:103DCC004FF49E23D6E74FF4A033D3E74FF41C33C4
:103DDC00D0E74FF41D23CDE72A4BCBE72A4BC9E79D
:103DEC004FF06C73C6E7294BC4E74FF46503C1E78A
:103DFC004FF07063BEE74FF08063BBE7287E04F1A1
:103E0C000C0204F5907104F0B3FD2B7E0120984058
:103E1C0000F00AFC0823C4F800353B7A53B9C4F807
:103E2C001031D4F810316B69C4F834350123C4F85F
:103E3C00383523607B689A075CBF4FF48073C4F8F5
:103E4C0004337B68DB0644BF4FF48003C4F80433AF
:103E5C002B69C4F8443500200123C4F84805A3603D
:103E6C00E360A5E700B0130000A04E0090D0030063
:103E7C0040420F000000AD0B588F000001A4000061
:103E8C000050270000C0750000F03A0000903A0185
:103E9C002DE9F041044607690D4604F069FE4FF028
:103EAC002008B0B92C4B1B789BB16426606804F0D9
:103EBC0003FDF0B9012004F059FD013EF6D10021BB
:103ECC00212003F0EDF8F0E786F31188BFF36F8F34
:103EDC00F5E7EFF31186314688F31288BFF36F8F45
:103EEC00606804F0E9FC80B986F31188BFF36F8F2A
:103EFC00EFE7EFF31186314688F31288BFF36F8F2B
:103F0C00606804F0D9FC0028DED03B691D70626843
:103F1C0038691368C3F844050120C3F8480500202C
:103F2C00C3F82001D3F82051C3F858015268D3F8D4
:103F3C005801D20608D5626812680820C2F800053C
:103F4C004FF48002C3F8042301229A6081F3118894
:103F5C00BFF36F8FBDE8F081570D002070B40E4990
:103F6C00D1E90034D01AC31844F1000422F07F4682
:103F7C00C1E90034A6F50013B3F5400F09D2074B85
:103F8C001B681A0A1B069C19054B42F10005C3E974
:103F9C00004570BC03F0A6BB700500202008002073
:103FAC00780500200D4B1868010A0006BFF35F8FDF
:103FBC000B4BD3F80435181841F10001B3F5801FF1
:103FCC000AD2084BD3E90023904271EB030303D2CE
:103FDC0010F1807041F10001704700BF20080020F3
:103FEC0000100140780500202DE9F7432F4CD4F840
:103FFC00043399070BD5D4F8043143B12C4A002370
:10400C00C4F80431D4F80431136801331360D4F8C4
:10401C000433DA0329D5BFF35B8F264B53E8002F0B
:10402C0022F0010143E800100028F7D1BFF35B8FA9
:10403C00D30702D4D4F84031BBB10025C4F84051A9
:10404C00D4F84031FFF7AEFFEFF31182202383F356
:10405C001288BFF36F8F184BD3E90267B042B94196
:10406C0006D282F31188BFF36F8F03B0BDE8F083E3
:10407C004FF0FF384FF0FF39C3E90289D3E9001044
:10408C001D604FF48033C4F84833C4F84051D4F861
:10409C00403182F31188BFF36F8F0029E5D0009077
:1040AC0032463B4628468847DFE700BF00100140F8
:1040BC002008002018080020600500202DE9F84F8A
:1040CC004B4DBFF35B8F06460F4655E8008F28F02B
:1040DC00010345E80032002AF7D1BFF35B8F454C52
:1040EC004FF48039C4F80893BFF35F8FBFF36F8F21
:1040FC00FFF758FFB04271EB070308F0010840D2FC
:10410C003D4B301A67EB0101984271F100014CD222
:10411C003A4BD3E902239F4208BF96423ED04FF060
:10412C00000CC4F84893C4F840C126F07F40D4F882
:10413C004031DFF8CCA0834603216FF0020E2BF048
:10414C007F43C4F84035C4F84493D4F80425AEEB4F
:10415C0002035B4423F07F4353451FD9D4F840310D
:10416C005BB1D4F80425131A23F07F43B3F5000F89
:10417C0014D9C4F840C1D4F8403101EB020B013121
:10418C00DDE7204BBFF35B8F53E8001F41F00101CB
:10419C0043E80012002AF7D1BFF35B8F174B1A4A82
:1041AC001A60C3E9026700225A60B8F1000F1CD0F4
:1041BC00BFF35B8F55E8003F43F0010345E8003245
:1041CC00002AF7D1BFF35B8F4FF48033C4F804336C
:1041DC000C4BBFF35B8F1B68BFF35B8FDB0742BFDE
:1041EC000A4B4FF40032C3F80021BDE8F88F00BF32
:1041FC001C08002000100140010080006005002018
:10420C00FDFF7F0018080020693F000000E100E07E
:10421C0070B5194C194BC4F80833C4F84833184B13
:10422C0000254FF0FF304FF0FF31C4F80855C3E9BB
:10423C0002014FF48033C4F80433124B02264FF4BE
:10424C000032C4F804630121C3F8802111202A46EE
:10425C00FEF7B2FC1120FEF77FFC01230A4AA36093
:10426C000021236009481360FFF728FF3046FFF751
:10427C0053F9284670BD00BF0010014003000F0029
:10428C006005002000E100E01C080020FFFF7F001B
:10429C00431C10B50F4C05D08442A8BF0446012C1A
:1042AC00B8BF0124FFF77EFE0B4AD2E90031C01AD9
:1042BC00B0F5000F074A0AD22044904228BF10469E
:1042CC00C018BDE8104041F10001FFF7F7BE1046E1
:1042DC00F6E700BFFFFF7F007005002008B5FFF771
:1042EC0061FE024B1B68C01A08BD00BF70050020A0
:1042FC004FF0704393F8E02F062A09D1D3F8E83F2A
:10430C00C3F30313033B042B02D8024AD05C70475F
:10431C00002070474DA40000024AD2F80034002B54
:10432C00FBD0704700E0014010B504F010FB40B129
:10433C004FF080538E4AD3F82433C3F30423C2F8CE
:10434C004035FFF7D5FF10B18A4B8B4A5A6704F002
:10435C00FEFA48B14FF080534FF08042D3F844320C
:10436C00C3F34233C2F83C35FFF7C2FF30B1834A86
:10437C00D2F8FC3023F08073C2F8FC3004F0E7FA7A
:10438C0040B14FF080430022C3F80C21C3F8102138
:10439C00C3F83825FFF7ACFF20B14FF08043032260
:1043AC00C3F8A025FFF7A4FF60B1754B0522C3F835
:1043BC0010260122C3F888260022C3F818263F22B3
:1043CC00C3F814264FF08053D3F83021511C09BF89
:1043DC004FF07043D3F8343193F8E02FD3F8E83F23
:1043EC0008BFC3F30313062A4DD1033B042B03D898
:1043FC00644AD35C002B46D04FF08052624BD2F80B
:10440C000414C3F82015D2F80814C3F82415D2F8F4
:10441C000C14C3F82815D2F81014C3F82C15D2F8C4
:10442C001414C3F83015D2F81814C3F83415D2F894
:10443C001C14C3F84015D2F82014C3F84415D2F854
:10444C002414C3F84815D2F82814C3F84C15D2F824
:10445C002C14C3F85015D2F83014C3F85415D2F8F4
:10446C003414C3F86015D2F83814C3F86415D2F8B4
:10447C003C14C3F86815D2F84014C3F86C15D2F884
:10448C004424C3F8702504F062FA48B14FF080530D
:10449C004FF08042D3F8583203F04F03C2F8E43E99
:1044AC0004F055FA48B14FF08043D3F80024D207FA
:1044BC0044BF6FF00102C3F800244FF08053D3F8CF
:1044CC003021062A26D1D3F83431033B042B02D8F1
:1044DC002E4AD35C63B12E4AD2F83C3743F4806346
:1044EC00C2F83C374FF08053D3F83031062B11D142
:1044FC004FF08053D3F83431033B042B02D8254AB8
:10450C00D35C3BB14FF01023D3F808224FF080431B
:10451C00C3F858254FF01023D3F80022002A03DBF0
:10452C00D3F80432002B22DA1B4901234FF0102060
:10453C00C1F804351524FFF7EFFEC0F80042FFF771
:10454C00EBFEC0F80442FFF7E7FE0023C1F8043588
:10455C00FFF7E2FEBFF34F8F0849104BCA6802F415
:10456C00E0621343CB60BFF34F8F00BFFDE710BD7C
:10457C000030014000C007400DF0ADBA00ED00E086
:10458C000050004048A4000000C0004043A40000BC
:10459C00001000403EA4000000E001400400FA05B9
:1045AC0030B50468CCB1BFF35B8FB4FA84F3C3F1BC
:1045BC001F03DBB201229A4024EA020250E8005F9A
:1045CC00A54204D140E8002CBCF1000FF6D1BFF39A
:1045DC005B8FE6D102480B7030BD0248FCE700BF90
:1045EC000000AD0B0200AD0B10B50368CB40DB0730
:1045FC0014D401238B400268BFF35B8F43EA0201A2
:10460C0050E8004F944204D140E8001CBCF1000F6C
:10461C00F6D1BFF35B8FEED1014810BD0148FCE72A
:10462C000000AD0B0400AD0B014BC3F80405704743
:10463C0000F00140F7B54FF08043044658B1012813
:10464C0028D034493448354ADC2303F094FD3348F0
:10465C00DC2103F087FD0222C3F808230122DA6073
:10466C00C3F80401D3F80431064601238DF8073052
:10467C0042F210754FF08047ECB1012C2FD0254938
:10468C002548274A4FF4747303F075FD24484FF402
:10469C007471DEE70022C3F808035860C3F80021E8
:1046AC00D3F800310DF10706DFE783B1012004F0E8
:1046BC005DF9013D0BD0D7F8183403F48033002E8C
:1046CC00F3D0D7F8182402F003023260BBB903B060
:1046DC00F0BD83B1012004F049F9013D0BD0D7F8AE
:1046EC000C3403F48033002EF3D0D7F80C2402F0F2
:1046FC00010232701BB90B4B00225A71E7E79DF88F
:10470C000700012803D104F031F9013DB4D1012C8B
:10471C00DDD1F0E779950000AA91000052A40000C9
:10472C008FA4000024080020044B1A7922B901221E
:10473C0018609A800248704702487047240800208D
:10474C000000AD0B0C00AD0B08B50E4B1A795AB925
:10475C000D490E480E4A4FF4987303F00CFD0C48AB
:10476C004FF4987103F0FEFC1B682BB10020FEF790
:10477C0015FA08B9FEF7F0F94FF080430022C3F8A0
:10478C00182508BD24080020C3A40000AA9100002D
:10479C0052A4000070B5404C23795BB93F49404AA4
:1047AC0040484FF4BD7303F0E6FC4FF4BD713C4838
:1047BC0003F0D8FC4FF0804358B1012852D03A494D
:1047CC00374A38484FF4DF7303F0D5FC4FF4DF71F0
:1047DC00EDE7D3F81814D3F81824C8032AD502F03F
:1047EC000303012B04D013B10020FFF723FF002398
:1047FC004FF08042C2F818350023C2F80431D2F8C9
:10480C0004312A4AD2F8FC0040F08073C2F8FC3024
:10481C00274B1D6845F0010119605E685968891BBA
:10482C00B1F50A5FFAD31D602249C2F8FC000823D7
:10483C0002201EE0D3F81424D107D8D5D3F81C24B9
:10484C009207D1D422681AB10222C3F8042370BD96
:10485C00D3F80421002AFBD00022C3F80421D3F89A
:10486C000431F4E70022C3F800211349D3F80031D6
:10487C00134603F1804301221A60236823B14FF0E1
:10488C008043C3F80403E2E70B68002BFCD0002341
:10489C000B600B68DBE700BF24080020C3A40000FA
:1048AC0052A40000AA9100007995000000ED00E0F0
:1048BC00001000E0040100400001004008B5094B65
:1048CC001B795BB908490948094A4FF4EC7303F0AA
:1048DC0052FC07484FF4EC7103F044FCBDE808406F
:1048EC00FFF7A8BE24080020C3A40000AA91000072
:1048FC0052A4000010B54FF08043D3F800216AB1E8
:10490C000022C3F80021D3F800210122C3F80823A8
:10491C00114B587910B95A711B6898474FF0804366
:10492C00D3F8042172B10022C3F80421D3F8042176
:10493C00D3F81824D3F81824920704D10122C3F811
:10494C0018259A6010BD0222C3F80823024BBDE85B
:10495C0010401B68012018472408002008B5026885
:10496C000146104604F00EF858B90F490F4A10488A
:10497C0040F2693303F0FFFB40F269310B4803F05E
:10498C00F1FB02F01F0352090B6009D00949074AD9
:10499C00074840F2723303F0EEFB40F27231EDE760
:1049AC004FF0A04008BD00BF7CA3000049A300004D
:1049BC00AA91000079950000072808B50BD9084981
:1049CC000848094A40F2AA3303F0D5FB064840F2E6
:1049DC00AA3103F0C7FB800000F5807008BD00BF52
:1049EC0016A50000AA910000E1A4000070B500F12A
:1049FC0008030C4C34F81330DA0505460E4607D57F
:104A0C00C3F3432304EBC30254F833305268984782
:104A1C00A3682BB1E26831462846BDE870401847C0
:104A2C0070BD00BF44000020C0B2034B083033F807
:104A3C001000C0F34000704744000020C0B2034B8C
:104A4C00083033F81000C0F34010704744000020C9
:104A5C0010B5C0B2184A083032F81030D9051DD53F
:104A6C00C3F3432123F4F85322F8103002F10E045F
:104A7C00002034F8023F13F4807F03D0C3F34323A8
:104A8C0099420BD001302028F3D100230B4842F877
:104A9C003130FFF7A9FD0A4B984200D110BD0949EE
:104AAC0009480A4A4FF4DC7303F065FB07484FF4DE
:104ABC00DC7103F057FB00BF440000209C00002079
:104ACC000000AD0BD7A30000AA91000020A50000A8
:104ADC002DE9F843002407460E4625464FF0010801
:104AEC00A146B5420DD1124BD3F87C2132B1002234
:104AFC00C3F87C21D3F87C3144F000442046BDE857
:104B0C00F883E8B2FFF758FFA0F58072920808FA14
:104B1C0002F2174209D000F1804303F5C043196833
:104B2C0019B1C3F800901B6814430135D9E700BFD5
:104B3C000060004010B5044608460A46FFF77EFFA9
:104B4C00C0B10846FFF770FFA0B9CAB20C4B216880
:104B5C00083233F812200123520B9340C1F808336A
:104B6C00236803EB8203D3F8102522F00302C3F869
:104B7C00102510BDBDE810400021104603F059BFB0
:104B8C0044000020F7B5CDB2184E0835074636F86C
:104B9C001530DB070C4626D5FFF7CCFF2046FFF778
:104BAC004DFF40B136F815303A685B0B03F5A27334
:104BBC00002142F823102046FFF74AFF002301A8EA
:104BCC0026F815300194FFF7C9FE019B00EB83001A
:104BDC00074BD0F80027134043F00203C0F800370E
:104BEC00044803B0F0BD0448FBE700BF44000020BC
:104BFC00F0F8FCFF0000AD0B0400AD0BF0B50C465B
:104C0C00116885B007461546E1B1204603F02EFF2A
:104C1C0008BB0B46CDE900008DF80E008DF80F0097
:104C2C000DF10F020DF10E01204603F0B5FEE3B2BB
:104C3C004549083331F8132022F0020242F00102F8
:104C4C0021F813206B685BB320461A785968FFF77C
:104C5C00EBFE10B1C9B13D4825E0E6B2DFF8E8C083
:104C6C0008363CF8163023F02003DB04DB0C2CF860
:104C7C00163051B1032AEED869684968087839684A
:104C8C009AB900F5A27041F82020E3B22E480833FF
:104C9C0030F8131021F01C0141EA820220F8132095
:104CAC00AB683BBB2A4805B0F0BD01EB800143EA81
:104CBC004033D1F810E52EF0030EC1F810E53F6833
:104CCC0007EB800743F02003D7F810152CF81630AB
:104CDC0021F4473121F44071C7F810152102D7F89F
:104CEC0010E501F4F85141EA024141EA0E01C7F81E
:104CFC001015CAE7D3E900672046FFF7A9FE002E7E
:104D0C00D0D0114DD5E90023964203D19F4201D159
:104D1C00002209E00F480DF10F01FFF741FC0C4B8D
:104D2C009842C0D19DF80F2045F83260E4B205EBF3
:104D3C00C20308345F6035F8143043EA422343F46D
:104D4C00807325F81430ADE7440000200400AD0B4F
:104D5C000000AD0B9C0000202DE9FF4107460C46DE
:104D6C001E4632B30846FFF75FFE18B90846FFF738
:104D7C0065FE20BBE5B2DFF8CC80083538F815307D
:104D8C0013F01C0F02D05378012B18D001238DF88F
:104D9C000F300023CDE900230DF10F01931C2046A9
:104DAC00013203F0F9FD38F8153043F0030328F80D
:104DBC001530002E43D02046FFF736FE18B9224896
:104DCC0004B0BDE8F08196F800E03B681D4D0EF58F
:104DDC00A272002143F82210E1B2083135F81120FB
:104DEC0022F02002D204D20C25F8112096F801C032
:104DFC00BCF1000F23D03868B67800EB8E004FEA78
:104E0C000C4CD0F8103523F4981323F4F853C0F855
:104E1C001035230203F4F8530CF4403C3605D0F85B
:104E2C00107543EA0C0306F4801642EA4E32334303
:104E3C0042F020023B4325F81120C0F810350348FE
:104E4C00BEE700BF440000200400AD0B0000AD0B1A
:104E5C00014BC3E9021270474400002008B55AB94F
:104E6C000D490E480E4A40F20D3303F084F90C48FC
:104E7C0040F20D3103F076F90846FFF7DFFD40B143
:104E8C00C9B2084B0848083133F811305B0B13706A
:104E9C0008BD0648FCE700BF9DA50000AA910000D4
:104EAC0020A50000440000200000AD0B0400AD0B59
:104EBC002DE9F041184D95F8604006464CBB402258
:104ECC00214605F1100003F024FF36682F6DA04633
:104EDC00A7420FD10023C6F87C3146F30730D6F831
:104EEC007C31FDF739FE01230C4885F86030AB6549
:104EFC00BDE8F081E0B2FFF75FFDA0F580739B0881
:104F0C001F2B08BF46F8008004F1010408BF33587A
:104F1C00DEE70348ECE700BF440000200000AD0BC7
:104F2C000C00AD0B034B93F86000003818BF012048
:104F3C00704700BF440000200148FFF755BB00BF7D
:104F4C00980000200148FFF72BBB00BF9800002001
:104F5C002DE9F341CBB216460833344A32F813200C
:104F6C0012F01C0F0C460546C2F382010BD13049DE
:104F7C00304A314840F2FA3303F0FDF840F2FA318E
:104F8C002C4803F0EFF80368D3F804030028A4BFFF
:104F9C004FF00040C3F804032046FFF74FFD00B369
:104FAC002046FFF741FD0746D8B9540B2046FFF7C2
:104FBC0003FDD5F8008048F8007058F800302B68D5
:104FCC0003EB8403D3F8102542F00102C3F810253B
:104FDC0026B12A680123A340C2F8043302B0BDE80D
:104FEC00F0814EB91549134A134840F20E4303F0B1
:104FFC00C2F840F20E41C3E7042912D0052912D0A1
:10500C0001A80194FFF7AAFC019AD0F81035D340FF
:10501C0003F00103991C204602B0BDE8F04103F0F7
:10502C0008BD0321F7E70221F5E700BF440000208B
:10503C007CA5000020A50000AA910000A7A50000F7
:10504C002DE9F74F554B564FD3F80403396DC0B2C9
:10505C0040F00040FFF73CFD051E18DA0023F96D07
:10506C000093684603F0F4FC4FF0010897F85C30AD
:10507C00DB075BD4396D4FF00040FFF729FDF96D6C
:10508C00684603F0E5FC0028F0D125F0004501242A
:10509C00002D6AD103B0BDE8F08F94FAA4F4B4FAF1
:1050AC0084F4E10804F1080304F0070237F81390C4
:1050BC001DF80130019408FA02F223EA020301A858
:1050CC000DF80130FFF74AFC019B03F5E0734FEA42
:1050DC00990B50F82360C9F3820A1BF0040FD146D8
:1050EC00C6F3014626D051462046FFF77FFC01A8A7
:1050FC000194FFF733FC019B03F5E073F6B250F813
:10510C002330C3F301439E4207D10021204603F014
:10511C0090FC3146204603F08CFC01A80194FFF76B
:10512C001DFC019B08FA03F3C0F82035009C002CF1
:10513C00B3D19FE7022E0CD10321204603F079FC5A
:10514C000AF00503012BE8D149462046FFF74EFC37
:10515C00E3E70221204603F06CFCBAF1030FF3D015
:10516C00032EDAD1BAF1020FEDE795FAA5F3B3FAF3
:10517C0083F304FA03F29B0003F1804303F5C0436D
:10518C0025EA0205D3F81005D3F81015C0F3042056
:10519C00C1F30141FFF72AFC7AE700BF0060004031
:1051AC004400002001460148FFF7FAB9A80000208E
:1051BC0008B50268530904D14FF0FF33D340DB0725
:1051CC000BD407490748084A40F2693302F0D3FF71
:1051DC00054840F2693102F0C5FF4FF0A04008BD10
:1051EC007CA30000AA91000049A30000F7B501239D
:1051FC008B724F7A0E464FF48271054603F045FCD4
:10520C004FF492710446284603F03FFC4FF4A6710C
:10521C000443284603F039FC4FF4A8710443284694
:10522C0003F033FC4FF4B2710443284603F02DFC19
:10523C004FF4B4710443284603F027FC0443FFB237
:10524C0020D0013F032F03D8DFE807F02A30515755
:10525C0014F0020304D034F00204F9D1002711E059
:10526C0014F0806230D014F4801F8DF8003024F0DC
:10527C00C3640CD0694630468DF8043003F014FC3E
:10528C00A4B9022700237772B37203B0F0BD0127D3
:10529C00694630468DF8047003F006FC002CF1D002
:1052AC002A4B1C4245D034F48014EAD0284B1C42C3
:1052BC003FD001238DF80030D5F84C350193694669
:1052CC00304603F0F1FBC6E7A30129D5032714F4FC
:1052DC00002F8DF8007024F0C36417D101236946A8
:1052EC0030468DF8043003F0DFFB002CCAD0194B8C
:1052FC001C4224D034F4002410D0154B1C421ED078
:10530C0004238DF80030D5F83C35D7E76946304694
:10531C008DF8042003F0C8FB002CEED10427B1E774
:10532C00D5F8D024C5F8D0240621304603F0C1FBB3
:10533C0094E7D5F8D024C5F8D0240221F5E7D5F8A8
:10534C00D024C5F8D0240521EFE700BF02001006D9
:10535C000200000602000806064C0749074808B57B
:10536C0022464FF4577302F006FF4FF45771204654
:10537C0002F0F8FEB2A50000E5A50000AA9100001D
:10538C0038B5D1E9003253EA020414D0003B18BFFF
:10539C0001230AB143F002030A7D32B9D1E9025468
:1053AC000268C2F80855C2F80C450A68046815066C
:1053BC0003D5FFF7D1FF0123EEE7D2B2C4F888255D
:1053CC004A6804681106F4D4D2B2C4F88C25026879
:1053DC00C2F8943503790C225343054AD35833B1A0
:1053EC000068BDE8384040F30730FDF7B5BB38BD69
:1053FC002C08002037B50446019001A80D46FFF794
:10540C00D7FE00EB84000749D0F80027114041EA91
:10541C00850141F4C06141F00201C0F8001703B0EE
:10542C0030BD00BFF0F8FCFF2DE9F84F0646904662
:10543C000C4659B92749284A28484FF4F67302F00C
:10544C009AFE4FF4F671244802F08CFE90F804A0FA
:10545C00234DD0F800900C2707FB0AF705EB070B40
:10546C009BF808309BBBC9F8003549F30730FDF7B2
:10547C0081FB4FF0FF33C9F80833E37C45F8078014
:10548C008BF80B30A3B9D4E90203984209D1154922
:10549C00114A124840F2192302F06DFE40F2192114
:1054AC00D1E7217CFFF7A6FF617CE068FFF7A2FF44
:1054BC0030462146FFF764FF0C2303FB0A550023FB
:1054CC00AB7209486B7201232B72BDE8F88F074849
:1054DC00FBE700BF45A6000009A60000AA9100004A
:1054EC002C0800204EA600000000AD0B0C00AD0BEC
:1054FC0038B5047903681E4A0C2060431118097AE8
:10550C0001290BD01B491C481C4A40F2762302F09F
:10551C0032FE1A4840F2762102F024FE0021C3F834
:10552C000411D3F80451C3F82411D3F82451C3F84F
:10553C004C11D3F84C51C3F85011D3F85051C3F857
:10554C006411D3F86451C3F86811D3F86811115879
:10555C0011B10B49C3F804130921C3F800150C232E
:10556C0003FB0423022100225A6019725A7238BDBF
:10557C002C08002075A60000AA91000009A60000C6
:10558C000202180638B559B914491548154A40F2A3
:10559C00ED2302F0F0FD134840F2ED2102F0E2FDA4
:1055AC000479114B0C2505FB04331B7A022B0FD10C
:1055BC0001F06043B3F1005F0CD1FF2A0CD80368F3
:1055CC000A48C3F84415C3F8482501225A6338BD6C
:1055DC000748FCE70748FAE70748F8E79FA60000EA
:1055EC00AA91000009A600002C0800200000AD0BB9
:1055FC000500AD0B0A00AD0B0600AD0B38B559B963
:10560C0014491548154A40F21A3302F0B4FD1348F8
:10561C0040F21A3102F0A6FD0479114B0C2505FB62
:10562C0004331B7A022B0FD101F06043B3F1005FFE
:10563C000CD1FF2A0CD803680A48C3F83415C3F8F8
:10564C00382501221A6338BD0748FCE70748FAE7FA
:10565C000748F8E79FA60000AA91000009A60000E1
:10566C002C0800200000AD0B0500AD0B0A00AD0BA3
:10567C000600AD0B03498B7A1BB94FF04020FFF7A6
:10568C00B5BD70472C08002008B5124BA82200218C
:10569C00184603F03EFB032202610F4942610F4A98
:1056AC008161C2614FF480620262002282624262B6
:1056BC00C26201660A494166102181660949026786
:1056CC000346C266426711F8010D98540132102A44
:1056DC00F9D108BD38080020A5A600005709002004
:1056EC0047090020BEA600002DE9F84FDFF87C80AA
:1056FC00182606FB008E00FB06664644DEF82440A6
:10570C00DEF828C07368A44507468946154603EBA6
:10571C00040022D8DEF820B0ABEB040A0AF1FF3308
:10572C009A4203D803F0E7FA2C440FE063449A4200
:10573C0019D852462C4403F0DEFAB4EB0B0405D016
:10574C007068224609EB0A0103F0D5FA182303FB13
:10575C00078301205C62BDE8F88F0CF1FF3CACEBD9
:10576C00040C9445DED20020F5E700BF3808002079
:10577C00034B182202FB00339A6A586A801A70474E
:10578C003808002003484FF0FF324FF0FF3300F091
:10579C0037BA00BFFC000020014800F001BB00BF7D
:1057AC00FC00002008B50A4A0A4B93420ED90A495C
:1057BC000A4A0B48172302F0DEFC0A4802F0DBFC15
:1057CC000648172102F0CEFC1433EEE7FCD308BDDB
:1057DC00D88D00009C8D0000E2A60000BFA6000042
:1057EC00AA9100004997000010B50446FCF754F943
:1057FC000348044A012102F0DEFE204603F080F942
:10580C00488F0000FAA600002DE9F843044600AFCB
:10581C000D46EFF31188202383F31288BFF36F8FAB
:10582C000428304A98BF304B9668117C94BF53F8CB
:10583C0020302E4BE9468AB06A462D48C2E9073122
:10584C0040F2013393842B4BC2E9050442F8103F1C
:10585C00294800234FF43151FCF78CF9CD4645B162
:10586C00EB69C3F3080323B1244A2348012102F056
:10587C00A2FE2EB1304603F081F908B1037803B9CA
:10588C001F48E9468AB06A461E4BD061C2E905360C
:10589C0040F2013313841C4B42F8103F164800238E
:1058AC004FF41151FCF766F92946CD462046FFF717
:1058BC009BFF042C0CD11549154A1648862302F07F
:1058CC005AFC154802F057FC1148862102F04AFC9C
:1058DC0088F31188BFF36F8F3046FDF7C1F8BD46D2
:1058EC00BDE8F883E00800201C91000009A7000027
:1058FC001FA7000005000001488F000047A700000B
:10590C0017A7000068A7000004000001A2A7000070
:10591C0080A70000AA910000BFA7000038B5094B72
:10592C0053F82040013053F82050A54200D838BD20
:10593C00636823B1204603F0EBF80834F5E72368DD
:10594C009847FAE73091000070B5384B384C394D18
:10595C00012286B003201A70FFF7E0FFFCF7EAFC87
:10596C000420FFF7DBFFAC42264628D93249334AE4
:10597C003348432302F0FFFB324802F0FCFB432187
:10598C002E4802F0EFFB54F80C3C059354F8103CF5
:10599C00049354F8143C039354F8183C029354F8B1
:1059AC001C3C019354F8203C009354E90A2354E91D
:1059BC000C0100F055FB54F8303C5E65D3E7AE4269
:1059CC0004F13004DFD301F035F9194C1E4EAC4212
:1059DC001FD91949194A1A48672302F0CCFB1948F8
:1059EC0002F0C9FB6721CBE7D4E90A23B3F1FF3FEF
:1059FC0008BFB2F1FF3F05D052EA0301206803D182
:105A0C0003F0BEF83034E2E73146183001F056FDB1
:105A1C00F8E7E9D301F07CF9FAF7B6FB0B4A137BF4
:105A2C0023F00103137306B070BD00BF570D0020A7
:105A3C00108F0000108F00005FA800003EA800002F
:105A4C00AA91000049970000F18B0000000600208D
:105A5C0008B50348034A0021121A03F071F808BD77
:105A6C00200100205C0D002070B5002386B00122BF
:105A7C00CDE90423134E144D01930F22CDE90232CC
:105A8C001249142303FB005506EBC01604464FF4D1
:105A9C00C07000FB04110E4B00954FF4A072304601
:105AAC0000F0DEFA737B0B4AEE6023F00403737391
:105ABC004FF4046304FB033313442C746B6006B083
:105ACC0070BD00BF80050020E0080020C01500203C
